{
	"contracts/SwapContract.sol": {
		"SwapContract": {
			"abi": [
				{
					"inputs": [],
					"stateMutability": "nonpayable",
					"type": "constructor"
				},
				{
					"anonymous": false,
					"inputs": [
						{
							"indexed": true,
							"internalType": "address",
							"name": "sender",
							"type": "address"
						},
						{
							"indexed": true,
							"internalType": "uint256",
							"name": "amountA",
							"type": "uint256"
						},
						{
							"indexed": true,
							"internalType": "uint256",
							"name": "amountB",
							"type": "uint256"
						}
					],
					"name": "SwapSuccessful",
					"type": "event"
				},
				{
					"inputs": [
						{
							"internalType": "contract AggregatorV3Interface",
							"name": "_base",
							"type": "address"
						},
						{
							"internalType": "contract AggregatorV3Interface",
							"name": "_quote",
							"type": "address"
						},
						{
							"internalType": "uint8",
							"name": "_decimals",
							"type": "uint8"
						}
					],
					"name": "getDerivedPrice",
					"outputs": [
						{
							"internalType": "int256",
							"name": "",
							"type": "int256"
						}
					],
					"stateMutability": "view",
					"type": "function"
				},
				{
					"inputs": [
						{
							"internalType": "uint256",
							"name": "_amountA",
							"type": "uint256"
						}
					],
					"name": "swapDaiEth",
					"outputs": [],
					"stateMutability": "nonpayable",
					"type": "function"
				},
				{
					"inputs": [
						{
							"internalType": "uint256",
							"name": "_amountA",
							"type": "uint256"
						}
					],
					"name": "swapDaiLink",
					"outputs": [],
					"stateMutability": "nonpayable",
					"type": "function"
				},
				{
					"inputs": [
						{
							"internalType": "uint256",
							"name": "_amountA",
							"type": "uint256"
						}
					],
					"name": "swapEthDai",
					"outputs": [],
					"stateMutability": "nonpayable",
					"type": "function"
				},
				{
					"inputs": [
						{
							"internalType": "uint256",
							"name": "_amountA",
							"type": "uint256"
						}
					],
					"name": "swapEthLink",
					"outputs": [],
					"stateMutability": "nonpayable",
					"type": "function"
				},
				{
					"inputs": [
						{
							"internalType": "uint256",
							"name": "_amountA",
							"type": "uint256"
						}
					],
					"name": "swapLinkDai",
					"outputs": [],
					"stateMutability": "nonpayable",
					"type": "function"
				},
				{
					"inputs": [
						{
							"internalType": "uint256",
							"name": "_amountA",
							"type": "uint256"
						}
					],
					"name": "swapLinkEth",
					"outputs": [],
					"stateMutability": "nonpayable",
					"type": "function"
				}
			],
			"devdoc": {
				"kind": "dev",
				"methods": {},
				"version": 1
			},
			"evm": {
				"assembly": "    /* \"contracts/SwapContract.sol\":169:5956  contract SwapContract {... */\n  mstore(0x40, 0x80)\n    /* \"contracts/SwapContract.sol\":547:1031  constructor() {... */\n  callvalue\n  dup1\n  iszero\n  tag_1\n  jumpi\n  revert(0x00, 0x00)\ntag_1:\n  pop\n    /* \"contracts/SwapContract.sol\":585:627  0x3e622317f8C93f7328350cF0B56d9eD4C620C5d6 */\n  0x3e622317f8c93f7328350cf0b56d9ed4c620c5d6\n    /* \"contracts/SwapContract.sol\":572:575  dai */\n  0x00\n  0x00\n    /* \"contracts/SwapContract.sol\":572:628  dai = IERC20(0x3e622317f8C93f7328350cF0B56d9eD4C620C5d6) */\n  0x0100\n  exp\n  dup2\n  sload\n  dup2\n  0xffffffffffffffffffffffffffffffffffffffff\n  mul\n  not\n  and\n  swap1\n  dup4\n  0xffffffffffffffffffffffffffffffffffffffff\n  and\n  mul\n  or\n  swap1\n  sstore\n  pop\n    /* \"contracts/SwapContract.sol\":653:695  0x7b79995e5f793A07Bc00c21412e50Ecae098E7f9 */\n  0x7b79995e5f793a07bc00c21412e50ecae098e7f9\n    /* \"contracts/SwapContract.sol\":639:643  weth */\n  0x02\n  0x00\n    /* \"contracts/SwapContract.sol\":639:696  weth = IERC20(0x7b79995e5f793A07Bc00c21412e50Ecae098E7f9) */\n  0x0100\n  exp\n  dup2\n  sload\n  dup2\n  0xffffffffffffffffffffffffffffffffffffffff\n  mul\n  not\n  and\n  swap1\n  dup4\n  0xffffffffffffffffffffffffffffffffffffffff\n  and\n  mul\n  or\n  swap1\n  sstore\n  pop\n    /* \"contracts/SwapContract.sol\":721:763  0x779877A7B0D9E8603169DdbD7836e478b4624789 */\n  0x779877a7b0d9e8603169ddbd7836e478b4624789\n    /* \"contracts/SwapContract.sol\":707:711  link */\n  0x01\n  0x00\n    /* \"contracts/SwapContract.sol\":707:764  link = IERC20(0x779877A7B0D9E8603169DdbD7836e478b4624789) */\n  0x0100\n  exp\n  dup2\n  sload\n  dup2\n  0xffffffffffffffffffffffffffffffffffffffff\n  mul\n  not\n  and\n  swap1\n  dup4\n  0xffffffffffffffffffffffffffffffffffffffff\n  and\n  mul\n  or\n  swap1\n  sstore\n  pop\n    /* \"contracts/SwapContract.sol\":807:849  0x694AA1769357215DE4FAC081bf1f309aDC325306 */\n  0x694aa1769357215de4fac081bf1f309adc325306\n    /* \"contracts/SwapContract.sol\":775:782  eth_usd */\n  0x03\n  0x00\n    /* \"contracts/SwapContract.sol\":775:850  eth_usd = AggregatorV3Interface(0x694AA1769357215DE4FAC081bf1f309aDC325306) */\n  0x0100\n  exp\n  dup2\n  sload\n  dup2\n  0xffffffffffffffffffffffffffffffffffffffff\n  mul\n  not\n  and\n  swap1\n  dup4\n  0xffffffffffffffffffffffffffffffffffffffff\n  and\n  mul\n  or\n  swap1\n  sstore\n  pop\n    /* \"contracts/SwapContract.sol\":894:936  0xc59E3633BAAC79493d908e63626716e204A45EdF */\n  0xc59e3633baac79493d908e63626716e204a45edf\n    /* \"contracts/SwapContract.sol\":861:869  link_usd */\n  0x04\n  0x00\n    /* \"contracts/SwapContract.sol\":861:937  link_usd = AggregatorV3Interface(0xc59E3633BAAC79493d908e63626716e204A45EdF) */\n  0x0100\n  exp\n  dup2\n  sload\n  dup2\n  0xffffffffffffffffffffffffffffffffffffffff\n  mul\n  not\n  and\n  swap1\n  dup4\n  0xffffffffffffffffffffffffffffffffffffffff\n  and\n  mul\n  or\n  swap1\n  sstore\n  pop\n    /* \"contracts/SwapContract.sol\":980:1022  0x14866185B1962B63C3Ea9E03Bc1da838bab34C19 */\n  0x14866185b1962b63c3ea9e03bc1da838bab34c19\n    /* \"contracts/SwapContract.sol\":948:955  dai_usd */\n  0x05\n  0x00\n    /* \"contracts/SwapContract.sol\":948:1023  dai_usd = AggregatorV3Interface(0x14866185B1962B63C3Ea9E03Bc1da838bab34C19) */\n  0x0100\n  exp\n  dup2\n  sload\n  dup2\n  0xffffffffffffffffffffffffffffffffffffffff\n  mul\n  not\n  and\n  swap1\n  dup4\n  0xffffffffffffffffffffffffffffffffffffffff\n  and\n  mul\n  or\n  swap1\n  sstore\n  pop\n    /* \"contracts/SwapContract.sol\":169:5956  contract SwapContract {... */\n  dataSize(sub_0)\n  dup1\n  dataOffset(sub_0)\n  0x00\n  codecopy\n  0x00\n  return\nstop\n\nsub_0: assembly {\n        /* \"contracts/SwapContract.sol\":169:5956  contract SwapContract {... */\n      mstore(0x40, 0x80)\n      callvalue\n      dup1\n      iszero\n      tag_1\n      jumpi\n      revert(0x00, 0x00)\n    tag_1:\n      pop\n      jumpi(tag_2, lt(calldatasize, 0x04))\n      shr(0xe0, calldataload(0x00))\n      dup1\n      0x7567fe56\n      gt\n      tag_10\n      jumpi\n      dup1\n      0x7567fe56\n      eq\n      tag_6\n      jumpi\n      dup1\n      0x7e11eff4\n      eq\n      tag_7\n      jumpi\n      dup1\n      0x87ffd440\n      eq\n      tag_8\n      jumpi\n      dup1\n      0x97436655\n      eq\n      tag_9\n      jumpi\n      jump(tag_2)\n    tag_10:\n      dup1\n      0x1dd15390\n      eq\n      tag_3\n      jumpi\n      dup1\n      0x2067c2ca\n      eq\n      tag_4\n      jumpi\n      dup1\n      0x61a46876\n      eq\n      tag_5\n      jumpi\n    tag_2:\n      revert(0x00, 0x00)\n        /* \"contracts/SwapContract.sol\":4144:4748  function swapDaiEth(uint256 _amountA) external {... */\n    tag_3:\n      tag_11\n      0x04\n      dup1\n      calldatasize\n      sub\n      dup2\n      add\n      swap1\n      tag_12\n      swap2\n      swap1\n      tag_13\n      jump\t// in\n    tag_12:\n      tag_14\n      jump\t// in\n    tag_11:\n      stop\n        /* \"contracts/SwapContract.sol\":2916:3523  function swapLinkEth(uint256 _amountA) external {... */\n    tag_4:\n      tag_15\n      0x04\n      dup1\n      calldatasize\n      sub\n      dup2\n      add\n      swap1\n      tag_16\n      swap2\n      swap1\n      tag_13\n      jump\t// in\n    tag_16:\n      tag_17\n      jump\t// in\n    tag_15:\n      stop\n        /* \"contracts/SwapContract.sol\":2269:2907  function swapLinkDai(uint256 _amountA) external {... */\n    tag_5:\n      tag_18\n      0x04\n      dup1\n      calldatasize\n      sub\n      dup2\n      add\n      swap1\n      tag_19\n      swap2\n      swap1\n      tag_13\n      jump\t// in\n    tag_19:\n      tag_20\n      jump\t// in\n    tag_18:\n      stop\n        /* \"contracts/SwapContract.sol\":1037:1640  function swapEthDai(uint256 _amountA) external {... */\n    tag_6:\n      tag_21\n      0x04\n      dup1\n      calldatasize\n      sub\n      dup2\n      add\n      swap1\n      tag_22\n      swap2\n      swap1\n      tag_13\n      jump\t// in\n    tag_22:\n      tag_23\n      jump\t// in\n    tag_21:\n      stop\n        /* \"contracts/SwapContract.sol\":3530:4135  function swapDaiLink(uint256 _amountA) external {... */\n    tag_7:\n      tag_24\n      0x04\n      dup1\n      calldatasize\n      sub\n      dup2\n      add\n      swap1\n      tag_25\n      swap2\n      swap1\n      tag_13\n      jump\t// in\n    tag_25:\n      tag_26\n      jump\t// in\n    tag_24:\n      stop\n        /* \"contracts/SwapContract.sol\":1652:2258  function swapEthLink(uint256 _amountA) external {... */\n    tag_8:\n      tag_27\n      0x04\n      dup1\n      calldatasize\n      sub\n      dup2\n      add\n      swap1\n      tag_28\n      swap2\n      swap1\n      tag_13\n      jump\t// in\n    tag_28:\n      tag_29\n      jump\t// in\n    tag_27:\n      stop\n        /* \"contracts/SwapContract.sol\":5191:5953  function getDerivedPrice(... */\n    tag_9:\n      tag_30\n      0x04\n      dup1\n      calldatasize\n      sub\n      dup2\n      add\n      swap1\n      tag_31\n      swap2\n      swap1\n      tag_32\n      jump\t// in\n    tag_31:\n      tag_33\n      jump\t// in\n    tag_30:\n      mload(0x40)\n      tag_34\n      swap2\n      swap1\n      tag_35\n      jump\t// in\n    tag_34:\n      mload(0x40)\n      dup1\n      swap2\n      sub\n      swap1\n      return\n        /* \"contracts/SwapContract.sol\":4144:4748  function swapDaiEth(uint256 _amountA) external {... */\n    tag_14:\n        /* \"contracts/SwapContract.sol\":4231:4232  0 */\n      0x00\n        /* \"contracts/SwapContract.sol\":4209:4233  msg.sender != address(0) */\n      0xffffffffffffffffffffffffffffffffffffffff\n      and\n        /* \"contracts/SwapContract.sol\":4209:4219  msg.sender */\n      caller\n        /* \"contracts/SwapContract.sol\":4209:4233  msg.sender != address(0) */\n      0xffffffffffffffffffffffffffffffffffffffff\n      and\n      sub\n        /* \"contracts/SwapContract.sol\":4201:4259  require(msg.sender != address(0), \"address zero detected\") */\n      tag_37\n      jumpi\n      mload(0x40)\n      0x08c379a000000000000000000000000000000000000000000000000000000000\n      dup2\n      mstore\n      0x04\n      add\n      tag_38\n      swap1\n      tag_39\n      jump\t// in\n    tag_38:\n      mload(0x40)\n      dup1\n      swap2\n      sub\n      swap1\n      revert\n    tag_37:\n        /* \"contracts/SwapContract.sol\":4289:4290  0 */\n      0x00\n        /* \"contracts/SwapContract.sol\":4278:4286  _amountA */\n      dup2\n        /* \"contracts/SwapContract.sol\":4278:4290  _amountA > 0 */\n      gt\n        /* \"contracts/SwapContract.sol\":4270:4322  require(_amountA > 0 , \"Can't exchange zero amount\") */\n      tag_40\n      jumpi\n      mload(0x40)\n      0x08c379a000000000000000000000000000000000000000000000000000000000\n      dup2\n      mstore\n      0x04\n      add\n      tag_41\n      swap1\n      tag_42\n      jump\t// in\n    tag_41:\n      mload(0x40)\n      dup1\n      swap2\n      sub\n      swap1\n      revert\n    tag_40:\n        /* \"contracts/SwapContract.sol\":4370:4378  _amountA */\n      dup1\n        /* \"contracts/SwapContract.sol\":4341:4344  dai */\n      0x00\n      0x00\n      swap1\n      sload\n      swap1\n      0x0100\n      exp\n      swap1\n      div\n      0xffffffffffffffffffffffffffffffffffffffff\n      and\n        /* \"contracts/SwapContract.sol\":4341:4354  dai.balanceOf */\n      0xffffffffffffffffffffffffffffffffffffffff\n      and\n      0x70a08231\n        /* \"contracts/SwapContract.sol\":4355:4365  msg.sender */\n      caller\n        /* \"contracts/SwapContract.sol\":4341:4366  dai.balanceOf(msg.sender) */\n      mload(0x40)\n      dup3\n      0xffffffff\n      and\n      0xe0\n      shl\n      dup2\n      mstore\n      0x04\n      add\n      tag_43\n      swap2\n      swap1\n      tag_44\n      jump\t// in\n    tag_43:\n      0x20\n      mload(0x40)\n      dup1\n      dup4\n      sub\n      dup2\n      dup7\n      gas\n      staticcall\n      iszero\n      dup1\n      iszero\n      tag_46\n      jumpi\n      returndatacopy(0x00, 0x00, returndatasize)\n      revert(0x00, returndatasize)\n    tag_46:\n      pop\n      pop\n      pop\n      pop\n      mload(0x40)\n      returndatasize\n      not(0x1f)\n      0x1f\n      dup3\n      add\n      and\n      dup3\n      add\n      dup1\n      0x40\n      mstore\n      pop\n      dup2\n      add\n      swap1\n      tag_47\n      swap2\n      swap1\n      tag_48\n      jump\t// in\n    tag_47:\n        /* \"contracts/SwapContract.sol\":4341:4378  dai.balanceOf(msg.sender) >= _amountA */\n      lt\n      iszero\n        /* \"contracts/SwapContract.sol\":4333:4403  require(dai.balanceOf(msg.sender) >= _amountA, \"Insufficient Balance\") */\n      tag_49\n      jumpi\n      mload(0x40)\n      0x08c379a000000000000000000000000000000000000000000000000000000000\n      dup2\n      mstore\n      0x04\n      add\n      tag_50\n      swap1\n      tag_51\n      jump\t// in\n    tag_50:\n      mload(0x40)\n      dup1\n      swap2\n      sub\n      swap1\n      revert\n    tag_49:\n        /* \"contracts/SwapContract.sol\":4414:4427  uint _amountB */\n      0x00\n        /* \"contracts/SwapContract.sol\":4435:4473  getDerivedPrice(dai_usd, eth_usd, 18 ) */\n      tag_52\n        /* \"contracts/SwapContract.sol\":4451:4458  dai_usd */\n      0x05\n      0x00\n      swap1\n      sload\n      swap1\n      0x0100\n      exp\n      swap1\n      div\n      0xffffffffffffffffffffffffffffffffffffffff\n      and\n        /* \"contracts/SwapContract.sol\":4460:4467  eth_usd */\n      0x03\n      0x00\n      swap1\n      sload\n      swap1\n      0x0100\n      exp\n      swap1\n      div\n      0xffffffffffffffffffffffffffffffffffffffff\n      and\n        /* \"contracts/SwapContract.sol\":4469:4471  18 */\n      0x12\n        /* \"contracts/SwapContract.sol\":4435:4450  getDerivedPrice */\n      tag_33\n        /* \"contracts/SwapContract.sol\":4435:4473  getDerivedPrice(dai_usd, eth_usd, 18 ) */\n      jump\t// in\n    tag_52:\n        /* \"contracts/SwapContract.sol\":4414:4474  uint _amountB = uint(getDerivedPrice(dai_usd, eth_usd, 18 )) */\n      swap1\n      pop\n        /* \"contracts/SwapContract.sol\":4535:4543  _amountB */\n      dup1\n        /* \"contracts/SwapContract.sol\":4502:4506  weth */\n      0x02\n      0x00\n      swap1\n      sload\n      swap1\n      0x0100\n      exp\n      swap1\n      div\n      0xffffffffffffffffffffffffffffffffffffffff\n      and\n        /* \"contracts/SwapContract.sol\":4502:4516  weth.balanceOf */\n      0xffffffffffffffffffffffffffffffffffffffff\n      and\n      0x70a08231\n        /* \"contracts/SwapContract.sol\":4525:4529  this */\n      address\n        /* \"contracts/SwapContract.sol\":4502:4531  weth.balanceOf(address(this)) */\n      mload(0x40)\n      dup3\n      0xffffffff\n      and\n      0xe0\n      shl\n      dup2\n      mstore\n      0x04\n      add\n      tag_53\n      swap2\n      swap1\n      tag_44\n      jump\t// in\n    tag_53:\n      0x20\n      mload(0x40)\n      dup1\n      dup4\n      sub\n      dup2\n      dup7\n      gas\n      staticcall\n      iszero\n      dup1\n      iszero\n      tag_55\n      jumpi\n      returndatacopy(0x00, 0x00, returndatasize)\n      revert(0x00, returndatasize)\n    tag_55:\n      pop\n      pop\n      pop\n      pop\n      mload(0x40)\n      returndatasize\n      not(0x1f)\n      0x1f\n      dup3\n      add\n      and\n      dup3\n      add\n      dup1\n      0x40\n      mstore\n      pop\n      dup2\n      add\n      swap1\n      tag_56\n      swap2\n      swap1\n      tag_48\n      jump\t// in\n    tag_56:\n        /* \"contracts/SwapContract.sol\":4502:4543  weth.balanceOf(address(this)) >= _amountB */\n      lt\n      iszero\n        /* \"contracts/SwapContract.sol\":4494:4565  require(weth.balanceOf(address(this)) >= _amountB, \"Not enough tokenB\") */\n      tag_57\n      jumpi\n      mload(0x40)\n      0x08c379a000000000000000000000000000000000000000000000000000000000\n      dup2\n      mstore\n      0x04\n      add\n      tag_58\n      swap1\n      tag_59\n      jump\t// in\n    tag_58:\n      mload(0x40)\n      dup1\n      swap2\n      sub\n      swap1\n      revert\n    tag_57:\n        /* \"contracts/SwapContract.sol\":4576:4579  dai */\n      0x00\n      0x00\n      swap1\n      sload\n      swap1\n      0x0100\n      exp\n      swap1\n      div\n      0xffffffffffffffffffffffffffffffffffffffff\n      and\n        /* \"contracts/SwapContract.sol\":4576:4592  dai.transferFrom */\n      0xffffffffffffffffffffffffffffffffffffffff\n      and\n      0x23b872dd\n        /* \"contracts/SwapContract.sol\":4593:4603  msg.sender */\n      caller\n        /* \"contracts/SwapContract.sol\":4613:4617  this */\n      address\n        /* \"contracts/SwapContract.sol\":4620:4628  _amountA */\n      dup6\n        /* \"contracts/SwapContract.sol\":4576:4629  dai.transferFrom(msg.sender, address(this), _amountA) */\n      mload(0x40)\n      dup5\n      0xffffffff\n      and\n      0xe0\n      shl\n      dup2\n      mstore\n      0x04\n      add\n      tag_60\n      swap4\n      swap3\n      swap2\n      swap1\n      tag_61\n      jump\t// in\n    tag_60:\n      0x20\n      mload(0x40)\n      dup1\n      dup4\n      sub\n      dup2\n      0x00\n      dup8\n      gas\n      call\n      iszero\n      dup1\n      iszero\n      tag_63\n      jumpi\n      returndatacopy(0x00, 0x00, returndatasize)\n      revert(0x00, returndatasize)\n    tag_63:\n      pop\n      pop\n      pop\n      pop\n      mload(0x40)\n      returndatasize\n      not(0x1f)\n      0x1f\n      dup3\n      add\n      and\n      dup3\n      add\n      dup1\n      0x40\n      mstore\n      pop\n      dup2\n      add\n      swap1\n      tag_64\n      swap2\n      swap1\n      tag_65\n      jump\t// in\n    tag_64:\n      pop\n        /* \"contracts/SwapContract.sol\":4640:4644  weth */\n      0x02\n      0x00\n      swap1\n      sload\n      swap1\n      0x0100\n      exp\n      swap1\n      div\n      0xffffffffffffffffffffffffffffffffffffffff\n      and\n        /* \"contracts/SwapContract.sol\":4640:4653  weth.transfer */\n      0xffffffffffffffffffffffffffffffffffffffff\n      and\n      0xa9059cbb\n        /* \"contracts/SwapContract.sol\":4654:4664  msg.sender */\n      caller\n        /* \"contracts/SwapContract.sol\":4667:4675  _amountB */\n      dup4\n        /* \"contracts/SwapContract.sol\":4640:4676  weth.transfer(msg.sender , _amountB) */\n      mload(0x40)\n      dup4\n      0xffffffff\n      and\n      0xe0\n      shl\n      dup2\n      mstore\n      0x04\n      add\n      tag_66\n      swap3\n      swap2\n      swap1\n      tag_67\n      jump\t// in\n    tag_66:\n      0x20\n      mload(0x40)\n      dup1\n      dup4\n      sub\n      dup2\n      0x00\n      dup8\n      gas\n      call\n      iszero\n      dup1\n      iszero\n      tag_69\n      jumpi\n      returndatacopy(0x00, 0x00, returndatasize)\n      revert(0x00, returndatasize)\n    tag_69:\n      pop\n      pop\n      pop\n      pop\n      mload(0x40)\n      returndatasize\n      not(0x1f)\n      0x1f\n      dup3\n      add\n      and\n      dup3\n      add\n      dup1\n      0x40\n      mstore\n      pop\n      dup2\n      add\n      swap1\n      tag_70\n      swap2\n      swap1\n      tag_65\n      jump\t// in\n    tag_70:\n      pop\n        /* \"contracts/SwapContract.sol\":4730:4738  _amountB */\n      dup1\n        /* \"contracts/SwapContract.sol\":4719:4727  _amountA */\n      dup3\n        /* \"contracts/SwapContract.sol\":4707:4717  msg.sender */\n      caller\n        /* \"contracts/SwapContract.sol\":4692:4739  SwapSuccessful(msg.sender, _amountA , _amountB) */\n      0xffffffffffffffffffffffffffffffffffffffff\n      and\n      0xd0dcb5d6ccbc65558941eda1d0add99921923cc1868a41bbf8d224258a21396d\n      mload(0x40)\n      mload(0x40)\n      dup1\n      swap2\n      sub\n      swap1\n      log4\n        /* \"contracts/SwapContract.sol\":4191:4748  {... */\n      pop\n        /* \"contracts/SwapContract.sol\":4144:4748  function swapDaiEth(uint256 _amountA) external {... */\n      pop\n      jump\t// out\n        /* \"contracts/SwapContract.sol\":2916:3523  function swapLinkEth(uint256 _amountA) external {... */\n    tag_17:\n        /* \"contracts/SwapContract.sol\":3004:3005  0 */\n      0x00\n        /* \"contracts/SwapContract.sol\":2982:3006  msg.sender != address(0) */\n      0xffffffffffffffffffffffffffffffffffffffff\n      and\n        /* \"contracts/SwapContract.sol\":2982:2992  msg.sender */\n      caller\n        /* \"contracts/SwapContract.sol\":2982:3006  msg.sender != address(0) */\n      0xffffffffffffffffffffffffffffffffffffffff\n      and\n      sub\n        /* \"contracts/SwapContract.sol\":2974:3032  require(msg.sender != address(0), \"address zero detected\") */\n      tag_72\n      jumpi\n      mload(0x40)\n      0x08c379a000000000000000000000000000000000000000000000000000000000\n      dup2\n      mstore\n      0x04\n      add\n      tag_73\n      swap1\n      tag_39\n      jump\t// in\n    tag_73:\n      mload(0x40)\n      dup1\n      swap2\n      sub\n      swap1\n      revert\n    tag_72:\n        /* \"contracts/SwapContract.sol\":3062:3063  0 */\n      0x00\n        /* \"contracts/SwapContract.sol\":3051:3059  _amountA */\n      dup2\n        /* \"contracts/SwapContract.sol\":3051:3063  _amountA > 0 */\n      gt\n        /* \"contracts/SwapContract.sol\":3043:3095  require(_amountA > 0 , \"Can't exchange zero amount\") */\n      tag_74\n      jumpi\n      mload(0x40)\n      0x08c379a000000000000000000000000000000000000000000000000000000000\n      dup2\n      mstore\n      0x04\n      add\n      tag_75\n      swap1\n      tag_42\n      jump\t// in\n    tag_75:\n      mload(0x40)\n      dup1\n      swap2\n      sub\n      swap1\n      revert\n    tag_74:\n        /* \"contracts/SwapContract.sol\":3144:3152  _amountA */\n      dup1\n        /* \"contracts/SwapContract.sol\":3114:3118  link */\n      0x01\n      0x00\n      swap1\n      sload\n      swap1\n      0x0100\n      exp\n      swap1\n      div\n      0xffffffffffffffffffffffffffffffffffffffff\n      and\n        /* \"contracts/SwapContract.sol\":3114:3128  link.balanceOf */\n      0xffffffffffffffffffffffffffffffffffffffff\n      and\n      0x70a08231\n        /* \"contracts/SwapContract.sol\":3129:3139  msg.sender */\n      caller\n        /* \"contracts/SwapContract.sol\":3114:3140  link.balanceOf(msg.sender) */\n      mload(0x40)\n      dup3\n      0xffffffff\n      and\n      0xe0\n      shl\n      dup2\n      mstore\n      0x04\n      add\n      tag_76\n      swap2\n      swap1\n      tag_44\n      jump\t// in\n    tag_76:\n      0x20\n      mload(0x40)\n      dup1\n      dup4\n      sub\n      dup2\n      dup7\n      gas\n      staticcall\n      iszero\n      dup1\n      iszero\n      tag_78\n      jumpi\n      returndatacopy(0x00, 0x00, returndatasize)\n      revert(0x00, returndatasize)\n    tag_78:\n      pop\n      pop\n      pop\n      pop\n      mload(0x40)\n      returndatasize\n      not(0x1f)\n      0x1f\n      dup3\n      add\n      and\n      dup3\n      add\n      dup1\n      0x40\n      mstore\n      pop\n      dup2\n      add\n      swap1\n      tag_79\n      swap2\n      swap1\n      tag_48\n      jump\t// in\n    tag_79:\n        /* \"contracts/SwapContract.sol\":3114:3152  link.balanceOf(msg.sender) >= _amountA */\n      lt\n      iszero\n        /* \"contracts/SwapContract.sol\":3106:3177  require(link.balanceOf(msg.sender) >= _amountA, \"Insufficient Balance\") */\n      tag_80\n      jumpi\n      mload(0x40)\n      0x08c379a000000000000000000000000000000000000000000000000000000000\n      dup2\n      mstore\n      0x04\n      add\n      tag_81\n      swap1\n      tag_51\n      jump\t// in\n    tag_81:\n      mload(0x40)\n      dup1\n      swap2\n      sub\n      swap1\n      revert\n    tag_80:\n        /* \"contracts/SwapContract.sol\":3188:3201  uint _amountB */\n      0x00\n        /* \"contracts/SwapContract.sol\":3209:3248  getDerivedPrice(link_usd, eth_usd, 18 ) */\n      tag_82\n        /* \"contracts/SwapContract.sol\":3225:3233  link_usd */\n      0x04\n      0x00\n      swap1\n      sload\n      swap1\n      0x0100\n      exp\n      swap1\n      div\n      0xffffffffffffffffffffffffffffffffffffffff\n      and\n        /* \"contracts/SwapContract.sol\":3235:3242  eth_usd */\n      0x03\n      0x00\n      swap1\n      sload\n      swap1\n      0x0100\n      exp\n      swap1\n      div\n      0xffffffffffffffffffffffffffffffffffffffff\n      and\n        /* \"contracts/SwapContract.sol\":3244:3246  18 */\n      0x12\n        /* \"contracts/SwapContract.sol\":3209:3224  getDerivedPrice */\n      tag_33\n        /* \"contracts/SwapContract.sol\":3209:3248  getDerivedPrice(link_usd, eth_usd, 18 ) */\n      jump\t// in\n    tag_82:\n        /* \"contracts/SwapContract.sol\":3188:3249  uint _amountB = uint(getDerivedPrice(link_usd, eth_usd, 18 )) */\n      swap1\n      pop\n        /* \"contracts/SwapContract.sol\":3310:3318  _amountB */\n      dup1\n        /* \"contracts/SwapContract.sol\":3277:3281  weth */\n      0x02\n      0x00\n      swap1\n      sload\n      swap1\n      0x0100\n      exp\n      swap1\n      div\n      0xffffffffffffffffffffffffffffffffffffffff\n      and\n        /* \"contracts/SwapContract.sol\":3277:3291  weth.balanceOf */\n      0xffffffffffffffffffffffffffffffffffffffff\n      and\n      0x70a08231\n        /* \"contracts/SwapContract.sol\":3300:3304  this */\n      address\n        /* \"contracts/SwapContract.sol\":3277:3306  weth.balanceOf(address(this)) */\n      mload(0x40)\n      dup3\n      0xffffffff\n      and\n      0xe0\n      shl\n      dup2\n      mstore\n      0x04\n      add\n      tag_83\n      swap2\n      swap1\n      tag_44\n      jump\t// in\n    tag_83:\n      0x20\n      mload(0x40)\n      dup1\n      dup4\n      sub\n      dup2\n      dup7\n      gas\n      staticcall\n      iszero\n      dup1\n      iszero\n      tag_85\n      jumpi\n      returndatacopy(0x00, 0x00, returndatasize)\n      revert(0x00, returndatasize)\n    tag_85:\n      pop\n      pop\n      pop\n      pop\n      mload(0x40)\n      returndatasize\n      not(0x1f)\n      0x1f\n      dup3\n      add\n      and\n      dup3\n      add\n      dup1\n      0x40\n      mstore\n      pop\n      dup2\n      add\n      swap1\n      tag_86\n      swap2\n      swap1\n      tag_48\n      jump\t// in\n    tag_86:\n        /* \"contracts/SwapContract.sol\":3277:3318  weth.balanceOf(address(this)) >= _amountB */\n      lt\n      iszero\n        /* \"contracts/SwapContract.sol\":3269:3340  require(weth.balanceOf(address(this)) >= _amountB, \"Not enough tokenB\") */\n      tag_87\n      jumpi\n      mload(0x40)\n      0x08c379a000000000000000000000000000000000000000000000000000000000\n      dup2\n      mstore\n      0x04\n      add\n      tag_88\n      swap1\n      tag_59\n      jump\t// in\n    tag_88:\n      mload(0x40)\n      dup1\n      swap2\n      sub\n      swap1\n      revert\n    tag_87:\n        /* \"contracts/SwapContract.sol\":3351:3355  link */\n      0x01\n      0x00\n      swap1\n      sload\n      swap1\n      0x0100\n      exp\n      swap1\n      div\n      0xffffffffffffffffffffffffffffffffffffffff\n      and\n        /* \"contracts/SwapContract.sol\":3351:3368  link.transferFrom */\n      0xffffffffffffffffffffffffffffffffffffffff\n      and\n      0x23b872dd\n        /* \"contracts/SwapContract.sol\":3369:3379  msg.sender */\n      caller\n        /* \"contracts/SwapContract.sol\":3389:3393  this */\n      address\n        /* \"contracts/SwapContract.sol\":3396:3404  _amountA */\n      dup6\n        /* \"contracts/SwapContract.sol\":3351:3405  link.transferFrom(msg.sender, address(this), _amountA) */\n      mload(0x40)\n      dup5\n      0xffffffff\n      and\n      0xe0\n      shl\n      dup2\n      mstore\n      0x04\n      add\n      tag_89\n      swap4\n      swap3\n      swap2\n      swap1\n      tag_61\n      jump\t// in\n    tag_89:\n      0x20\n      mload(0x40)\n      dup1\n      dup4\n      sub\n      dup2\n      0x00\n      dup8\n      gas\n      call\n      iszero\n      dup1\n      iszero\n      tag_91\n      jumpi\n      returndatacopy(0x00, 0x00, returndatasize)\n      revert(0x00, returndatasize)\n    tag_91:\n      pop\n      pop\n      pop\n      pop\n      mload(0x40)\n      returndatasize\n      not(0x1f)\n      0x1f\n      dup3\n      add\n      and\n      dup3\n      add\n      dup1\n      0x40\n      mstore\n      pop\n      dup2\n      add\n      swap1\n      tag_92\n      swap2\n      swap1\n      tag_65\n      jump\t// in\n    tag_92:\n      pop\n        /* \"contracts/SwapContract.sol\":3416:3420  weth */\n      0x02\n      0x00\n      swap1\n      sload\n      swap1\n      0x0100\n      exp\n      swap1\n      div\n      0xffffffffffffffffffffffffffffffffffffffff\n      and\n        /* \"contracts/SwapContract.sol\":3416:3429  weth.transfer */\n      0xffffffffffffffffffffffffffffffffffffffff\n      and\n      0xa9059cbb\n        /* \"contracts/SwapContract.sol\":3430:3440  msg.sender */\n      caller\n        /* \"contracts/SwapContract.sol\":3443:3451  _amountB */\n      dup4\n        /* \"contracts/SwapContract.sol\":3416:3452  weth.transfer(msg.sender , _amountB) */\n      mload(0x40)\n      dup4\n      0xffffffff\n      and\n      0xe0\n      shl\n      dup2\n      mstore\n      0x04\n      add\n      tag_93\n      swap3\n      swap2\n      swap1\n      tag_67\n      jump\t// in\n    tag_93:\n      0x20\n      mload(0x40)\n      dup1\n      dup4\n      sub\n      dup2\n      0x00\n      dup8\n      gas\n      call\n      iszero\n      dup1\n      iszero\n      tag_95\n      jumpi\n      returndatacopy(0x00, 0x00, returndatasize)\n      revert(0x00, returndatasize)\n    tag_95:\n      pop\n      pop\n      pop\n      pop\n      mload(0x40)\n      returndatasize\n      not(0x1f)\n      0x1f\n      dup3\n      add\n      and\n      dup3\n      add\n      dup1\n      0x40\n      mstore\n      pop\n      dup2\n      add\n      swap1\n      tag_96\n      swap2\n      swap1\n      tag_65\n      jump\t// in\n    tag_96:\n      pop\n        /* \"contracts/SwapContract.sol\":3506:3514  _amountB */\n      dup1\n        /* \"contracts/SwapContract.sol\":3495:3503  _amountA */\n      dup3\n        /* \"contracts/SwapContract.sol\":3483:3493  msg.sender */\n      caller\n        /* \"contracts/SwapContract.sol\":3468:3515  SwapSuccessful(msg.sender, _amountA , _amountB) */\n      0xffffffffffffffffffffffffffffffffffffffff\n      and\n      0xd0dcb5d6ccbc65558941eda1d0add99921923cc1868a41bbf8d224258a21396d\n      mload(0x40)\n      mload(0x40)\n      dup1\n      swap2\n      sub\n      swap1\n      log4\n        /* \"contracts/SwapContract.sol\":2964:3523  {... */\n      pop\n        /* \"contracts/SwapContract.sol\":2916:3523  function swapLinkEth(uint256 _amountA) external {... */\n      pop\n      jump\t// out\n        /* \"contracts/SwapContract.sol\":2269:2907  function swapLinkDai(uint256 _amountA) external {... */\n    tag_20:\n        /* \"contracts/SwapContract.sol\":2361:2362  0 */\n      0x00\n        /* \"contracts/SwapContract.sol\":2339:2363  msg.sender != address(0) */\n      0xffffffffffffffffffffffffffffffffffffffff\n      and\n        /* \"contracts/SwapContract.sol\":2339:2349  msg.sender */\n      caller\n        /* \"contracts/SwapContract.sol\":2339:2363  msg.sender != address(0) */\n      0xffffffffffffffffffffffffffffffffffffffff\n      and\n      sub\n        /* \"contracts/SwapContract.sol\":2331:2389  require(msg.sender != address(0), \"address zero detected\") */\n      tag_98\n      jumpi\n      mload(0x40)\n      0x08c379a000000000000000000000000000000000000000000000000000000000\n      dup2\n      mstore\n      0x04\n      add\n      tag_99\n      swap1\n      tag_39\n      jump\t// in\n    tag_99:\n      mload(0x40)\n      dup1\n      swap2\n      sub\n      swap1\n      revert\n    tag_98:\n        /* \"contracts/SwapContract.sol\":2423:2424  0 */\n      0x00\n        /* \"contracts/SwapContract.sol\":2412:2420  _amountA */\n      dup2\n        /* \"contracts/SwapContract.sol\":2412:2424  _amountA > 0 */\n      gt\n        /* \"contracts/SwapContract.sol\":2404:2456  require(_amountA > 0 , \"Can't exchange zero amount\") */\n      tag_100\n      jumpi\n      mload(0x40)\n      0x08c379a000000000000000000000000000000000000000000000000000000000\n      dup2\n      mstore\n      0x04\n      add\n      tag_101\n      swap1\n      tag_42\n      jump\t// in\n    tag_101:\n      mload(0x40)\n      dup1\n      swap2\n      sub\n      swap1\n      revert\n    tag_100:\n        /* \"contracts/SwapContract.sol\":2509:2517  _amountA */\n      dup1\n        /* \"contracts/SwapContract.sol\":2479:2483  link */\n      0x01\n      0x00\n      swap1\n      sload\n      swap1\n      0x0100\n      exp\n      swap1\n      div\n      0xffffffffffffffffffffffffffffffffffffffff\n      and\n        /* \"contracts/SwapContract.sol\":2479:2493  link.balanceOf */\n      0xffffffffffffffffffffffffffffffffffffffff\n      and\n      0x70a08231\n        /* \"contracts/SwapContract.sol\":2494:2504  msg.sender */\n      caller\n        /* \"contracts/SwapContract.sol\":2479:2505  link.balanceOf(msg.sender) */\n      mload(0x40)\n      dup3\n      0xffffffff\n      and\n      0xe0\n      shl\n      dup2\n      mstore\n      0x04\n      add\n      tag_102\n      swap2\n      swap1\n      tag_44\n      jump\t// in\n    tag_102:\n      0x20\n      mload(0x40)\n      dup1\n      dup4\n      sub\n      dup2\n      dup7\n      gas\n      staticcall\n      iszero\n      dup1\n      iszero\n      tag_104\n      jumpi\n      returndatacopy(0x00, 0x00, returndatasize)\n      revert(0x00, returndatasize)\n    tag_104:\n      pop\n      pop\n      pop\n      pop\n      mload(0x40)\n      returndatasize\n      not(0x1f)\n      0x1f\n      dup3\n      add\n      and\n      dup3\n      add\n      dup1\n      0x40\n      mstore\n      pop\n      dup2\n      add\n      swap1\n      tag_105\n      swap2\n      swap1\n      tag_48\n      jump\t// in\n    tag_105:\n        /* \"contracts/SwapContract.sol\":2479:2517  link.balanceOf(msg.sender) >= _amountA */\n      lt\n      iszero\n        /* \"contracts/SwapContract.sol\":2471:2542  require(link.balanceOf(msg.sender) >= _amountA, \"Insufficient Balance\") */\n      tag_106\n      jumpi\n      mload(0x40)\n      0x08c379a000000000000000000000000000000000000000000000000000000000\n      dup2\n      mstore\n      0x04\n      add\n      tag_107\n      swap1\n      tag_51\n      jump\t// in\n    tag_107:\n      mload(0x40)\n      dup1\n      swap2\n      sub\n      swap1\n      revert\n    tag_106:\n        /* \"contracts/SwapContract.sol\":2557:2570  uint _amountB */\n      0x00\n        /* \"contracts/SwapContract.sol\":2578:2617  getDerivedPrice(link_usd, dai_usd, 18 ) */\n      tag_108\n        /* \"contracts/SwapContract.sol\":2594:2602  link_usd */\n      0x04\n      0x00\n      swap1\n      sload\n      swap1\n      0x0100\n      exp\n      swap1\n      div\n      0xffffffffffffffffffffffffffffffffffffffff\n      and\n        /* \"contracts/SwapContract.sol\":2604:2611  dai_usd */\n      0x05\n      0x00\n      swap1\n      sload\n      swap1\n      0x0100\n      exp\n      swap1\n      div\n      0xffffffffffffffffffffffffffffffffffffffff\n      and\n        /* \"contracts/SwapContract.sol\":2613:2615  18 */\n      0x12\n        /* \"contracts/SwapContract.sol\":2578:2593  getDerivedPrice */\n      tag_33\n        /* \"contracts/SwapContract.sol\":2578:2617  getDerivedPrice(link_usd, dai_usd, 18 ) */\n      jump\t// in\n    tag_108:\n        /* \"contracts/SwapContract.sol\":2557:2618  uint _amountB = uint(getDerivedPrice(link_usd, dai_usd, 18 )) */\n      swap1\n      pop\n        /* \"contracts/SwapContract.sol\":2686:2694  _amountB */\n      dup1\n        /* \"contracts/SwapContract.sol\":2654:2657  dai */\n      0x00\n      0x00\n      swap1\n      sload\n      swap1\n      0x0100\n      exp\n      swap1\n      div\n      0xffffffffffffffffffffffffffffffffffffffff\n      and\n        /* \"contracts/SwapContract.sol\":2654:2667  dai.balanceOf */\n      0xffffffffffffffffffffffffffffffffffffffff\n      and\n      0x70a08231\n        /* \"contracts/SwapContract.sol\":2676:2680  this */\n      address\n        /* \"contracts/SwapContract.sol\":2654:2682  dai.balanceOf(address(this)) */\n      mload(0x40)\n      dup3\n      0xffffffff\n      and\n      0xe0\n      shl\n      dup2\n      mstore\n      0x04\n      add\n      tag_109\n      swap2\n      swap1\n      tag_44\n      jump\t// in\n    tag_109:\n      0x20\n      mload(0x40)\n      dup1\n      dup4\n      sub\n      dup2\n      dup7\n      gas\n      staticcall\n      iszero\n      dup1\n      iszero\n      tag_111\n      jumpi\n      returndatacopy(0x00, 0x00, returndatasize)\n      revert(0x00, returndatasize)\n    tag_111:\n      pop\n      pop\n      pop\n      pop\n      mload(0x40)\n      returndatasize\n      not(0x1f)\n      0x1f\n      dup3\n      add\n      and\n      dup3\n      add\n      dup1\n      0x40\n      mstore\n      pop\n      dup2\n      add\n      swap1\n      tag_112\n      swap2\n      swap1\n      tag_48\n      jump\t// in\n    tag_112:\n        /* \"contracts/SwapContract.sol\":2654:2694  dai.balanceOf(address(this)) >= _amountB */\n      lt\n      iszero\n        /* \"contracts/SwapContract.sol\":2646:2716  require(dai.balanceOf(address(this)) >= _amountB, \"Not enough tokenB\") */\n      tag_113\n      jumpi\n      mload(0x40)\n      0x08c379a000000000000000000000000000000000000000000000000000000000\n      dup2\n      mstore\n      0x04\n      add\n      tag_114\n      swap1\n      tag_59\n      jump\t// in\n    tag_114:\n      mload(0x40)\n      dup1\n      swap2\n      sub\n      swap1\n      revert\n    tag_113:\n        /* \"contracts/SwapContract.sol\":2731:2735  link */\n      0x01\n      0x00\n      swap1\n      sload\n      swap1\n      0x0100\n      exp\n      swap1\n      div\n      0xffffffffffffffffffffffffffffffffffffffff\n      and\n        /* \"contracts/SwapContract.sol\":2731:2748  link.transferFrom */\n      0xffffffffffffffffffffffffffffffffffffffff\n      and\n      0x23b872dd\n        /* \"contracts/SwapContract.sol\":2749:2759  msg.sender */\n      caller\n        /* \"contracts/SwapContract.sol\":2769:2773  this */\n      address\n        /* \"contracts/SwapContract.sol\":2776:2784  _amountA */\n      dup6\n        /* \"contracts/SwapContract.sol\":2731:2785  link.transferFrom(msg.sender, address(this), _amountA) */\n      mload(0x40)\n      dup5\n      0xffffffff\n      and\n      0xe0\n      shl\n      dup2\n      mstore\n      0x04\n      add\n      tag_115\n      swap4\n      swap3\n      swap2\n      swap1\n      tag_61\n      jump\t// in\n    tag_115:\n      0x20\n      mload(0x40)\n      dup1\n      dup4\n      sub\n      dup2\n      0x00\n      dup8\n      gas\n      call\n      iszero\n      dup1\n      iszero\n      tag_117\n      jumpi\n      returndatacopy(0x00, 0x00, returndatasize)\n      revert(0x00, returndatasize)\n    tag_117:\n      pop\n      pop\n      pop\n      pop\n      mload(0x40)\n      returndatasize\n      not(0x1f)\n      0x1f\n      dup3\n      add\n      and\n      dup3\n      add\n      dup1\n      0x40\n      mstore\n      pop\n      dup2\n      add\n      swap1\n      tag_118\n      swap2\n      swap1\n      tag_65\n      jump\t// in\n    tag_118:\n      pop\n        /* \"contracts/SwapContract.sol\":2800:2803  dai */\n      0x00\n      0x00\n      swap1\n      sload\n      swap1\n      0x0100\n      exp\n      swap1\n      div\n      0xffffffffffffffffffffffffffffffffffffffff\n      and\n        /* \"contracts/SwapContract.sol\":2800:2812  dai.transfer */\n      0xffffffffffffffffffffffffffffffffffffffff\n      and\n      0xa9059cbb\n        /* \"contracts/SwapContract.sol\":2813:2823  msg.sender */\n      caller\n        /* \"contracts/SwapContract.sol\":2826:2834  _amountB */\n      dup4\n        /* \"contracts/SwapContract.sol\":2800:2835  dai.transfer(msg.sender , _amountB) */\n      mload(0x40)\n      dup4\n      0xffffffff\n      and\n      0xe0\n      shl\n      dup2\n      mstore\n      0x04\n      add\n      tag_119\n      swap3\n      swap2\n      swap1\n      tag_67\n      jump\t// in\n    tag_119:\n      0x20\n      mload(0x40)\n      dup1\n      dup4\n      sub\n      dup2\n      0x00\n      dup8\n      gas\n      call\n      iszero\n      dup1\n      iszero\n      tag_121\n      jumpi\n      returndatacopy(0x00, 0x00, returndatasize)\n      revert(0x00, returndatasize)\n    tag_121:\n      pop\n      pop\n      pop\n      pop\n      mload(0x40)\n      returndatasize\n      not(0x1f)\n      0x1f\n      dup3\n      add\n      and\n      dup3\n      add\n      dup1\n      0x40\n      mstore\n      pop\n      dup2\n      add\n      swap1\n      tag_122\n      swap2\n      swap1\n      tag_65\n      jump\t// in\n    tag_122:\n      pop\n        /* \"contracts/SwapContract.sol\":2889:2897  _amountB */\n      dup1\n        /* \"contracts/SwapContract.sol\":2878:2886  _amountA */\n      dup3\n        /* \"contracts/SwapContract.sol\":2866:2876  msg.sender */\n      caller\n        /* \"contracts/SwapContract.sol\":2851:2898  SwapSuccessful(msg.sender, _amountA , _amountB) */\n      0xffffffffffffffffffffffffffffffffffffffff\n      and\n      0xd0dcb5d6ccbc65558941eda1d0add99921923cc1868a41bbf8d224258a21396d\n      mload(0x40)\n      mload(0x40)\n      dup1\n      swap2\n      sub\n      swap1\n      log4\n        /* \"contracts/SwapContract.sol\":2317:2907  {... */\n      pop\n        /* \"contracts/SwapContract.sol\":2269:2907  function swapLinkDai(uint256 _amountA) external {... */\n      pop\n      jump\t// out\n        /* \"contracts/SwapContract.sol\":1037:1640  function swapEthDai(uint256 _amountA) external {... */\n    tag_23:\n        /* \"contracts/SwapContract.sol\":1124:1125  0 */\n      0x00\n        /* \"contracts/SwapContract.sol\":1102:1126  msg.sender != address(0) */\n      0xffffffffffffffffffffffffffffffffffffffff\n      and\n        /* \"contracts/SwapContract.sol\":1102:1112  msg.sender */\n      caller\n        /* \"contracts/SwapContract.sol\":1102:1126  msg.sender != address(0) */\n      0xffffffffffffffffffffffffffffffffffffffff\n      and\n      sub\n        /* \"contracts/SwapContract.sol\":1094:1152  require(msg.sender != address(0), \"address zero detected\") */\n      tag_124\n      jumpi\n      mload(0x40)\n      0x08c379a000000000000000000000000000000000000000000000000000000000\n      dup2\n      mstore\n      0x04\n      add\n      tag_125\n      swap1\n      tag_39\n      jump\t// in\n    tag_125:\n      mload(0x40)\n      dup1\n      swap2\n      sub\n      swap1\n      revert\n    tag_124:\n        /* \"contracts/SwapContract.sol\":1182:1183  0 */\n      0x00\n        /* \"contracts/SwapContract.sol\":1171:1179  _amountA */\n      dup2\n        /* \"contracts/SwapContract.sol\":1171:1183  _amountA > 0 */\n      gt\n        /* \"contracts/SwapContract.sol\":1163:1215  require(_amountA > 0 , \"Can't exchange zero amount\") */\n      tag_126\n      jumpi\n      mload(0x40)\n      0x08c379a000000000000000000000000000000000000000000000000000000000\n      dup2\n      mstore\n      0x04\n      add\n      tag_127\n      swap1\n      tag_42\n      jump\t// in\n    tag_127:\n      mload(0x40)\n      dup1\n      swap2\n      sub\n      swap1\n      revert\n    tag_126:\n        /* \"contracts/SwapContract.sol\":1264:1272  _amountA */\n      dup1\n        /* \"contracts/SwapContract.sol\":1234:1238  weth */\n      0x02\n      0x00\n      swap1\n      sload\n      swap1\n      0x0100\n      exp\n      swap1\n      div\n      0xffffffffffffffffffffffffffffffffffffffff\n      and\n        /* \"contracts/SwapContract.sol\":1234:1248  weth.balanceOf */\n      0xffffffffffffffffffffffffffffffffffffffff\n      and\n      0x70a08231\n        /* \"contracts/SwapContract.sol\":1249:1259  msg.sender */\n      caller\n        /* \"contracts/SwapContract.sol\":1234:1260  weth.balanceOf(msg.sender) */\n      mload(0x40)\n      dup3\n      0xffffffff\n      and\n      0xe0\n      shl\n      dup2\n      mstore\n      0x04\n      add\n      tag_128\n      swap2\n      swap1\n      tag_44\n      jump\t// in\n    tag_128:\n      0x20\n      mload(0x40)\n      dup1\n      dup4\n      sub\n      dup2\n      dup7\n      gas\n      staticcall\n      iszero\n      dup1\n      iszero\n      tag_130\n      jumpi\n      returndatacopy(0x00, 0x00, returndatasize)\n      revert(0x00, returndatasize)\n    tag_130:\n      pop\n      pop\n      pop\n      pop\n      mload(0x40)\n      returndatasize\n      not(0x1f)\n      0x1f\n      dup3\n      add\n      and\n      dup3\n      add\n      dup1\n      0x40\n      mstore\n      pop\n      dup2\n      add\n      swap1\n      tag_131\n      swap2\n      swap1\n      tag_48\n      jump\t// in\n    tag_131:\n        /* \"contracts/SwapContract.sol\":1234:1272  weth.balanceOf(msg.sender) >= _amountA */\n      lt\n      iszero\n        /* \"contracts/SwapContract.sol\":1226:1297  require(weth.balanceOf(msg.sender) >= _amountA, \"Insufficient Balance\") */\n      tag_132\n      jumpi\n      mload(0x40)\n      0x08c379a000000000000000000000000000000000000000000000000000000000\n      dup2\n      mstore\n      0x04\n      add\n      tag_133\n      swap1\n      tag_51\n      jump\t// in\n    tag_133:\n      mload(0x40)\n      dup1\n      swap2\n      sub\n      swap1\n      revert\n    tag_132:\n        /* \"contracts/SwapContract.sol\":1308:1321  uint _amountB */\n      0x00\n        /* \"contracts/SwapContract.sol\":1329:1367  getDerivedPrice(eth_usd, dai_usd, 18 ) */\n      tag_134\n        /* \"contracts/SwapContract.sol\":1345:1352  eth_usd */\n      0x03\n      0x00\n      swap1\n      sload\n      swap1\n      0x0100\n      exp\n      swap1\n      div\n      0xffffffffffffffffffffffffffffffffffffffff\n      and\n        /* \"contracts/SwapContract.sol\":1354:1361  dai_usd */\n      0x05\n      0x00\n      swap1\n      sload\n      swap1\n      0x0100\n      exp\n      swap1\n      div\n      0xffffffffffffffffffffffffffffffffffffffff\n      and\n        /* \"contracts/SwapContract.sol\":1363:1365  18 */\n      0x12\n        /* \"contracts/SwapContract.sol\":1329:1344  getDerivedPrice */\n      tag_33\n        /* \"contracts/SwapContract.sol\":1329:1367  getDerivedPrice(eth_usd, dai_usd, 18 ) */\n      jump\t// in\n    tag_134:\n        /* \"contracts/SwapContract.sol\":1308:1368  uint _amountB = uint(getDerivedPrice(eth_usd, dai_usd, 18 )) */\n      swap1\n      pop\n        /* \"contracts/SwapContract.sol\":1428:1436  _amountB */\n      dup1\n        /* \"contracts/SwapContract.sol\":1396:1399  dai */\n      0x00\n      0x00\n      swap1\n      sload\n      swap1\n      0x0100\n      exp\n      swap1\n      div\n      0xffffffffffffffffffffffffffffffffffffffff\n      and\n        /* \"contracts/SwapContract.sol\":1396:1409  dai.balanceOf */\n      0xffffffffffffffffffffffffffffffffffffffff\n      and\n      0x70a08231\n        /* \"contracts/SwapContract.sol\":1418:1422  this */\n      address\n        /* \"contracts/SwapContract.sol\":1396:1424  dai.balanceOf(address(this)) */\n      mload(0x40)\n      dup3\n      0xffffffff\n      and\n      0xe0\n      shl\n      dup2\n      mstore\n      0x04\n      add\n      tag_135\n      swap2\n      swap1\n      tag_44\n      jump\t// in\n    tag_135:\n      0x20\n      mload(0x40)\n      dup1\n      dup4\n      sub\n      dup2\n      dup7\n      gas\n      staticcall\n      iszero\n      dup1\n      iszero\n      tag_137\n      jumpi\n      returndatacopy(0x00, 0x00, returndatasize)\n      revert(0x00, returndatasize)\n    tag_137:\n      pop\n      pop\n      pop\n      pop\n      mload(0x40)\n      returndatasize\n      not(0x1f)\n      0x1f\n      dup3\n      add\n      and\n      dup3\n      add\n      dup1\n      0x40\n      mstore\n      pop\n      dup2\n      add\n      swap1\n      tag_138\n      swap2\n      swap1\n      tag_48\n      jump\t// in\n    tag_138:\n        /* \"contracts/SwapContract.sol\":1396:1436  dai.balanceOf(address(this)) >= _amountB */\n      lt\n      iszero\n        /* \"contracts/SwapContract.sol\":1388:1458  require(dai.balanceOf(address(this)) >= _amountB, \"Not enough tokenB\") */\n      tag_139\n      jumpi\n      mload(0x40)\n      0x08c379a000000000000000000000000000000000000000000000000000000000\n      dup2\n      mstore\n      0x04\n      add\n      tag_140\n      swap1\n      tag_59\n      jump\t// in\n    tag_140:\n      mload(0x40)\n      dup1\n      swap2\n      sub\n      swap1\n      revert\n    tag_139:\n        /* \"contracts/SwapContract.sol\":1469:1473  weth */\n      0x02\n      0x00\n      swap1\n      sload\n      swap1\n      0x0100\n      exp\n      swap1\n      div\n      0xffffffffffffffffffffffffffffffffffffffff\n      and\n        /* \"contracts/SwapContract.sol\":1469:1486  weth.transferFrom */\n      0xffffffffffffffffffffffffffffffffffffffff\n      and\n      0x23b872dd\n        /* \"contracts/SwapContract.sol\":1487:1497  msg.sender */\n      caller\n        /* \"contracts/SwapContract.sol\":1507:1511  this */\n      address\n        /* \"contracts/SwapContract.sol\":1514:1522  _amountA */\n      dup6\n        /* \"contracts/SwapContract.sol\":1469:1523  weth.transferFrom(msg.sender, address(this), _amountA) */\n      mload(0x40)\n      dup5\n      0xffffffff\n      and\n      0xe0\n      shl\n      dup2\n      mstore\n      0x04\n      add\n      tag_141\n      swap4\n      swap3\n      swap2\n      swap1\n      tag_61\n      jump\t// in\n    tag_141:\n      0x20\n      mload(0x40)\n      dup1\n      dup4\n      sub\n      dup2\n      0x00\n      dup8\n      gas\n      call\n      iszero\n      dup1\n      iszero\n      tag_143\n      jumpi\n      returndatacopy(0x00, 0x00, returndatasize)\n      revert(0x00, returndatasize)\n    tag_143:\n      pop\n      pop\n      pop\n      pop\n      mload(0x40)\n      returndatasize\n      not(0x1f)\n      0x1f\n      dup3\n      add\n      and\n      dup3\n      add\n      dup1\n      0x40\n      mstore\n      pop\n      dup2\n      add\n      swap1\n      tag_144\n      swap2\n      swap1\n      tag_65\n      jump\t// in\n    tag_144:\n      pop\n        /* \"contracts/SwapContract.sol\":1534:1537  dai */\n      0x00\n      0x00\n      swap1\n      sload\n      swap1\n      0x0100\n      exp\n      swap1\n      div\n      0xffffffffffffffffffffffffffffffffffffffff\n      and\n        /* \"contracts/SwapContract.sol\":1534:1546  dai.transfer */\n      0xffffffffffffffffffffffffffffffffffffffff\n      and\n      0xa9059cbb\n        /* \"contracts/SwapContract.sol\":1547:1557  msg.sender */\n      caller\n        /* \"contracts/SwapContract.sol\":1560:1568  _amountB */\n      dup4\n        /* \"contracts/SwapContract.sol\":1534:1569  dai.transfer(msg.sender , _amountB) */\n      mload(0x40)\n      dup4\n      0xffffffff\n      and\n      0xe0\n      shl\n      dup2\n      mstore\n      0x04\n      add\n      tag_145\n      swap3\n      swap2\n      swap1\n      tag_67\n      jump\t// in\n    tag_145:\n      0x20\n      mload(0x40)\n      dup1\n      dup4\n      sub\n      dup2\n      0x00\n      dup8\n      gas\n      call\n      iszero\n      dup1\n      iszero\n      tag_147\n      jumpi\n      returndatacopy(0x00, 0x00, returndatasize)\n      revert(0x00, returndatasize)\n    tag_147:\n      pop\n      pop\n      pop\n      pop\n      mload(0x40)\n      returndatasize\n      not(0x1f)\n      0x1f\n      dup3\n      add\n      and\n      dup3\n      add\n      dup1\n      0x40\n      mstore\n      pop\n      dup2\n      add\n      swap1\n      tag_148\n      swap2\n      swap1\n      tag_65\n      jump\t// in\n    tag_148:\n      pop\n        /* \"contracts/SwapContract.sol\":1623:1631  _amountB */\n      dup1\n        /* \"contracts/SwapContract.sol\":1612:1620  _amountA */\n      dup3\n        /* \"contracts/SwapContract.sol\":1600:1610  msg.sender */\n      caller\n        /* \"contracts/SwapContract.sol\":1585:1632  SwapSuccessful(msg.sender, _amountA , _amountB) */\n      0xffffffffffffffffffffffffffffffffffffffff\n      and\n      0xd0dcb5d6ccbc65558941eda1d0add99921923cc1868a41bbf8d224258a21396d\n      mload(0x40)\n      mload(0x40)\n      dup1\n      swap2\n      sub\n      swap1\n      log4\n        /* \"contracts/SwapContract.sol\":1084:1640  {... */\n      pop\n        /* \"contracts/SwapContract.sol\":1037:1640  function swapEthDai(uint256 _amountA) external {... */\n      pop\n      jump\t// out\n        /* \"contracts/SwapContract.sol\":3530:4135  function swapDaiLink(uint256 _amountA) external {... */\n    tag_26:\n        /* \"contracts/SwapContract.sol\":3618:3619  0 */\n      0x00\n        /* \"contracts/SwapContract.sol\":3596:3620  msg.sender != address(0) */\n      0xffffffffffffffffffffffffffffffffffffffff\n      and\n        /* \"contracts/SwapContract.sol\":3596:3606  msg.sender */\n      caller\n        /* \"contracts/SwapContract.sol\":3596:3620  msg.sender != address(0) */\n      0xffffffffffffffffffffffffffffffffffffffff\n      and\n      sub\n        /* \"contracts/SwapContract.sol\":3588:3646  require(msg.sender != address(0), \"address zero detected\") */\n      tag_150\n      jumpi\n      mload(0x40)\n      0x08c379a000000000000000000000000000000000000000000000000000000000\n      dup2\n      mstore\n      0x04\n      add\n      tag_151\n      swap1\n      tag_39\n      jump\t// in\n    tag_151:\n      mload(0x40)\n      dup1\n      swap2\n      sub\n      swap1\n      revert\n    tag_150:\n        /* \"contracts/SwapContract.sol\":3676:3677  0 */\n      0x00\n        /* \"contracts/SwapContract.sol\":3665:3673  _amountA */\n      dup2\n        /* \"contracts/SwapContract.sol\":3665:3677  _amountA > 0 */\n      gt\n        /* \"contracts/SwapContract.sol\":3657:3709  require(_amountA > 0 , \"Can't exchange zero amount\") */\n      tag_152\n      jumpi\n      mload(0x40)\n      0x08c379a000000000000000000000000000000000000000000000000000000000\n      dup2\n      mstore\n      0x04\n      add\n      tag_153\n      swap1\n      tag_42\n      jump\t// in\n    tag_153:\n      mload(0x40)\n      dup1\n      swap2\n      sub\n      swap1\n      revert\n    tag_152:\n        /* \"contracts/SwapContract.sol\":3757:3765  _amountA */\n      dup1\n        /* \"contracts/SwapContract.sol\":3728:3731  dai */\n      0x00\n      0x00\n      swap1\n      sload\n      swap1\n      0x0100\n      exp\n      swap1\n      div\n      0xffffffffffffffffffffffffffffffffffffffff\n      and\n        /* \"contracts/SwapContract.sol\":3728:3741  dai.balanceOf */\n      0xffffffffffffffffffffffffffffffffffffffff\n      and\n      0x70a08231\n        /* \"contracts/SwapContract.sol\":3742:3752  msg.sender */\n      caller\n        /* \"contracts/SwapContract.sol\":3728:3753  dai.balanceOf(msg.sender) */\n      mload(0x40)\n      dup3\n      0xffffffff\n      and\n      0xe0\n      shl\n      dup2\n      mstore\n      0x04\n      add\n      tag_154\n      swap2\n      swap1\n      tag_44\n      jump\t// in\n    tag_154:\n      0x20\n      mload(0x40)\n      dup1\n      dup4\n      sub\n      dup2\n      dup7\n      gas\n      staticcall\n      iszero\n      dup1\n      iszero\n      tag_156\n      jumpi\n      returndatacopy(0x00, 0x00, returndatasize)\n      revert(0x00, returndatasize)\n    tag_156:\n      pop\n      pop\n      pop\n      pop\n      mload(0x40)\n      returndatasize\n      not(0x1f)\n      0x1f\n      dup3\n      add\n      and\n      dup3\n      add\n      dup1\n      0x40\n      mstore\n      pop\n      dup2\n      add\n      swap1\n      tag_157\n      swap2\n      swap1\n      tag_48\n      jump\t// in\n    tag_157:\n        /* \"contracts/SwapContract.sol\":3728:3765  dai.balanceOf(msg.sender) >= _amountA */\n      lt\n      iszero\n        /* \"contracts/SwapContract.sol\":3720:3790  require(dai.balanceOf(msg.sender) >= _amountA, \"Insufficient Balance\") */\n      tag_158\n      jumpi\n      mload(0x40)\n      0x08c379a000000000000000000000000000000000000000000000000000000000\n      dup2\n      mstore\n      0x04\n      add\n      tag_159\n      swap1\n      tag_51\n      jump\t// in\n    tag_159:\n      mload(0x40)\n      dup1\n      swap2\n      sub\n      swap1\n      revert\n    tag_158:\n        /* \"contracts/SwapContract.sol\":3801:3814  uint _amountB */\n      0x00\n        /* \"contracts/SwapContract.sol\":3822:3861  getDerivedPrice(dai_usd, link_usd, 18 ) */\n      tag_160\n        /* \"contracts/SwapContract.sol\":3838:3845  dai_usd */\n      0x05\n      0x00\n      swap1\n      sload\n      swap1\n      0x0100\n      exp\n      swap1\n      div\n      0xffffffffffffffffffffffffffffffffffffffff\n      and\n        /* \"contracts/SwapContract.sol\":3847:3855  link_usd */\n      0x04\n      0x00\n      swap1\n      sload\n      swap1\n      0x0100\n      exp\n      swap1\n      div\n      0xffffffffffffffffffffffffffffffffffffffff\n      and\n        /* \"contracts/SwapContract.sol\":3857:3859  18 */\n      0x12\n        /* \"contracts/SwapContract.sol\":3822:3837  getDerivedPrice */\n      tag_33\n        /* \"contracts/SwapContract.sol\":3822:3861  getDerivedPrice(dai_usd, link_usd, 18 ) */\n      jump\t// in\n    tag_160:\n        /* \"contracts/SwapContract.sol\":3801:3862  uint _amountB = uint(getDerivedPrice(dai_usd, link_usd, 18 )) */\n      swap1\n      pop\n        /* \"contracts/SwapContract.sol\":3923:3931  _amountB */\n      dup1\n        /* \"contracts/SwapContract.sol\":3890:3894  link */\n      0x01\n      0x00\n      swap1\n      sload\n      swap1\n      0x0100\n      exp\n      swap1\n      div\n      0xffffffffffffffffffffffffffffffffffffffff\n      and\n        /* \"contracts/SwapContract.sol\":3890:3904  link.balanceOf */\n      0xffffffffffffffffffffffffffffffffffffffff\n      and\n      0x70a08231\n        /* \"contracts/SwapContract.sol\":3913:3917  this */\n      address\n        /* \"contracts/SwapContract.sol\":3890:3919  link.balanceOf(address(this)) */\n      mload(0x40)\n      dup3\n      0xffffffff\n      and\n      0xe0\n      shl\n      dup2\n      mstore\n      0x04\n      add\n      tag_161\n      swap2\n      swap1\n      tag_44\n      jump\t// in\n    tag_161:\n      0x20\n      mload(0x40)\n      dup1\n      dup4\n      sub\n      dup2\n      dup7\n      gas\n      staticcall\n      iszero\n      dup1\n      iszero\n      tag_163\n      jumpi\n      returndatacopy(0x00, 0x00, returndatasize)\n      revert(0x00, returndatasize)\n    tag_163:\n      pop\n      pop\n      pop\n      pop\n      mload(0x40)\n      returndatasize\n      not(0x1f)\n      0x1f\n      dup3\n      add\n      and\n      dup3\n      add\n      dup1\n      0x40\n      mstore\n      pop\n      dup2\n      add\n      swap1\n      tag_164\n      swap2\n      swap1\n      tag_48\n      jump\t// in\n    tag_164:\n        /* \"contracts/SwapContract.sol\":3890:3931  link.balanceOf(address(this)) >= _amountB */\n      lt\n      iszero\n        /* \"contracts/SwapContract.sol\":3882:3953  require(link.balanceOf(address(this)) >= _amountB, \"Not enough tokenB\") */\n      tag_165\n      jumpi\n      mload(0x40)\n      0x08c379a000000000000000000000000000000000000000000000000000000000\n      dup2\n      mstore\n      0x04\n      add\n      tag_166\n      swap1\n      tag_59\n      jump\t// in\n    tag_166:\n      mload(0x40)\n      dup1\n      swap2\n      sub\n      swap1\n      revert\n    tag_165:\n        /* \"contracts/SwapContract.sol\":3964:3967  dai */\n      0x00\n      0x00\n      swap1\n      sload\n      swap1\n      0x0100\n      exp\n      swap1\n      div\n      0xffffffffffffffffffffffffffffffffffffffff\n      and\n        /* \"contracts/SwapContract.sol\":3964:3980  dai.transferFrom */\n      0xffffffffffffffffffffffffffffffffffffffff\n      and\n      0x23b872dd\n        /* \"contracts/SwapContract.sol\":3981:3991  msg.sender */\n      caller\n        /* \"contracts/SwapContract.sol\":4001:4005  this */\n      address\n        /* \"contracts/SwapContract.sol\":4008:4016  _amountA */\n      dup6\n        /* \"contracts/SwapContract.sol\":3964:4017  dai.transferFrom(msg.sender, address(this), _amountA) */\n      mload(0x40)\n      dup5\n      0xffffffff\n      and\n      0xe0\n      shl\n      dup2\n      mstore\n      0x04\n      add\n      tag_167\n      swap4\n      swap3\n      swap2\n      swap1\n      tag_61\n      jump\t// in\n    tag_167:\n      0x20\n      mload(0x40)\n      dup1\n      dup4\n      sub\n      dup2\n      0x00\n      dup8\n      gas\n      call\n      iszero\n      dup1\n      iszero\n      tag_169\n      jumpi\n      returndatacopy(0x00, 0x00, returndatasize)\n      revert(0x00, returndatasize)\n    tag_169:\n      pop\n      pop\n      pop\n      pop\n      mload(0x40)\n      returndatasize\n      not(0x1f)\n      0x1f\n      dup3\n      add\n      and\n      dup3\n      add\n      dup1\n      0x40\n      mstore\n      pop\n      dup2\n      add\n      swap1\n      tag_170\n      swap2\n      swap1\n      tag_65\n      jump\t// in\n    tag_170:\n      pop\n        /* \"contracts/SwapContract.sol\":4028:4032  link */\n      0x01\n      0x00\n      swap1\n      sload\n      swap1\n      0x0100\n      exp\n      swap1\n      div\n      0xffffffffffffffffffffffffffffffffffffffff\n      and\n        /* \"contracts/SwapContract.sol\":4028:4041  link.transfer */\n      0xffffffffffffffffffffffffffffffffffffffff\n      and\n      0xa9059cbb\n        /* \"contracts/SwapContract.sol\":4042:4052  msg.sender */\n      caller\n        /* \"contracts/SwapContract.sol\":4055:4063  _amountB */\n      dup4\n        /* \"contracts/SwapContract.sol\":4028:4064  link.transfer(msg.sender , _amountB) */\n      mload(0x40)\n      dup4\n      0xffffffff\n      and\n      0xe0\n      shl\n      dup2\n      mstore\n      0x04\n      add\n      tag_171\n      swap3\n      swap2\n      swap1\n      tag_67\n      jump\t// in\n    tag_171:\n      0x20\n      mload(0x40)\n      dup1\n      dup4\n      sub\n      dup2\n      0x00\n      dup8\n      gas\n      call\n      iszero\n      dup1\n      iszero\n      tag_173\n      jumpi\n      returndatacopy(0x00, 0x00, returndatasize)\n      revert(0x00, returndatasize)\n    tag_173:\n      pop\n      pop\n      pop\n      pop\n      mload(0x40)\n      returndatasize\n      not(0x1f)\n      0x1f\n      dup3\n      add\n      and\n      dup3\n      add\n      dup1\n      0x40\n      mstore\n      pop\n      dup2\n      add\n      swap1\n      tag_174\n      swap2\n      swap1\n      tag_65\n      jump\t// in\n    tag_174:\n      pop\n        /* \"contracts/SwapContract.sol\":4118:4126  _amountB */\n      dup1\n        /* \"contracts/SwapContract.sol\":4107:4115  _amountA */\n      dup3\n        /* \"contracts/SwapContract.sol\":4095:4105  msg.sender */\n      caller\n        /* \"contracts/SwapContract.sol\":4080:4127  SwapSuccessful(msg.sender, _amountA , _amountB) */\n      0xffffffffffffffffffffffffffffffffffffffff\n      and\n      0xd0dcb5d6ccbc65558941eda1d0add99921923cc1868a41bbf8d224258a21396d\n      mload(0x40)\n      mload(0x40)\n      dup1\n      swap2\n      sub\n      swap1\n      log4\n        /* \"contracts/SwapContract.sol\":3578:4135  {... */\n      pop\n        /* \"contracts/SwapContract.sol\":3530:4135  function swapDaiLink(uint256 _amountA) external {... */\n      pop\n      jump\t// out\n        /* \"contracts/SwapContract.sol\":1652:2258  function swapEthLink(uint256 _amountA) external {... */\n    tag_29:\n        /* \"contracts/SwapContract.sol\":1740:1741  0 */\n      0x00\n        /* \"contracts/SwapContract.sol\":1718:1742  msg.sender != address(0) */\n      0xffffffffffffffffffffffffffffffffffffffff\n      and\n        /* \"contracts/SwapContract.sol\":1718:1728  msg.sender */\n      caller\n        /* \"contracts/SwapContract.sol\":1718:1742  msg.sender != address(0) */\n      0xffffffffffffffffffffffffffffffffffffffff\n      and\n      sub\n        /* \"contracts/SwapContract.sol\":1710:1768  require(msg.sender != address(0), \"address zero detected\") */\n      tag_176\n      jumpi\n      mload(0x40)\n      0x08c379a000000000000000000000000000000000000000000000000000000000\n      dup2\n      mstore\n      0x04\n      add\n      tag_177\n      swap1\n      tag_39\n      jump\t// in\n    tag_177:\n      mload(0x40)\n      dup1\n      swap2\n      sub\n      swap1\n      revert\n    tag_176:\n        /* \"contracts/SwapContract.sol\":1798:1799  0 */\n      0x00\n        /* \"contracts/SwapContract.sol\":1787:1795  _amountA */\n      dup2\n        /* \"contracts/SwapContract.sol\":1787:1799  _amountA > 0 */\n      gt\n        /* \"contracts/SwapContract.sol\":1779:1831  require(_amountA > 0 , \"Can't exchange zero amount\") */\n      tag_178\n      jumpi\n      mload(0x40)\n      0x08c379a000000000000000000000000000000000000000000000000000000000\n      dup2\n      mstore\n      0x04\n      add\n      tag_179\n      swap1\n      tag_42\n      jump\t// in\n    tag_179:\n      mload(0x40)\n      dup1\n      swap2\n      sub\n      swap1\n      revert\n    tag_178:\n        /* \"contracts/SwapContract.sol\":1880:1888  _amountA */\n      dup1\n        /* \"contracts/SwapContract.sol\":1850:1854  weth */\n      0x02\n      0x00\n      swap1\n      sload\n      swap1\n      0x0100\n      exp\n      swap1\n      div\n      0xffffffffffffffffffffffffffffffffffffffff\n      and\n        /* \"contracts/SwapContract.sol\":1850:1864  weth.balanceOf */\n      0xffffffffffffffffffffffffffffffffffffffff\n      and\n      0x70a08231\n        /* \"contracts/SwapContract.sol\":1865:1875  msg.sender */\n      caller\n        /* \"contracts/SwapContract.sol\":1850:1876  weth.balanceOf(msg.sender) */\n      mload(0x40)\n      dup3\n      0xffffffff\n      and\n      0xe0\n      shl\n      dup2\n      mstore\n      0x04\n      add\n      tag_180\n      swap2\n      swap1\n      tag_44\n      jump\t// in\n    tag_180:\n      0x20\n      mload(0x40)\n      dup1\n      dup4\n      sub\n      dup2\n      dup7\n      gas\n      staticcall\n      iszero\n      dup1\n      iszero\n      tag_182\n      jumpi\n      returndatacopy(0x00, 0x00, returndatasize)\n      revert(0x00, returndatasize)\n    tag_182:\n      pop\n      pop\n      pop\n      pop\n      mload(0x40)\n      returndatasize\n      not(0x1f)\n      0x1f\n      dup3\n      add\n      and\n      dup3\n      add\n      dup1\n      0x40\n      mstore\n      pop\n      dup2\n      add\n      swap1\n      tag_183\n      swap2\n      swap1\n      tag_48\n      jump\t// in\n    tag_183:\n        /* \"contracts/SwapContract.sol\":1850:1888  weth.balanceOf(msg.sender) >= _amountA */\n      lt\n      iszero\n        /* \"contracts/SwapContract.sol\":1842:1913  require(weth.balanceOf(msg.sender) >= _amountA, \"Insufficient Balance\") */\n      tag_184\n      jumpi\n      mload(0x40)\n      0x08c379a000000000000000000000000000000000000000000000000000000000\n      dup2\n      mstore\n      0x04\n      add\n      tag_185\n      swap1\n      tag_51\n      jump\t// in\n    tag_185:\n      mload(0x40)\n      dup1\n      swap2\n      sub\n      swap1\n      revert\n    tag_184:\n        /* \"contracts/SwapContract.sol\":1924:1937  uint _amountB */\n      0x00\n        /* \"contracts/SwapContract.sol\":1945:1984  getDerivedPrice(eth_usd, link_usd, 18 ) */\n      tag_186\n        /* \"contracts/SwapContract.sol\":1961:1968  eth_usd */\n      0x03\n      0x00\n      swap1\n      sload\n      swap1\n      0x0100\n      exp\n      swap1\n      div\n      0xffffffffffffffffffffffffffffffffffffffff\n      and\n        /* \"contracts/SwapContract.sol\":1970:1978  link_usd */\n      0x04\n      0x00\n      swap1\n      sload\n      swap1\n      0x0100\n      exp\n      swap1\n      div\n      0xffffffffffffffffffffffffffffffffffffffff\n      and\n        /* \"contracts/SwapContract.sol\":1980:1982  18 */\n      0x12\n        /* \"contracts/SwapContract.sol\":1945:1960  getDerivedPrice */\n      tag_33\n        /* \"contracts/SwapContract.sol\":1945:1984  getDerivedPrice(eth_usd, link_usd, 18 ) */\n      jump\t// in\n    tag_186:\n        /* \"contracts/SwapContract.sol\":1924:1985  uint _amountB = uint(getDerivedPrice(eth_usd, link_usd, 18 )) */\n      swap1\n      pop\n        /* \"contracts/SwapContract.sol\":2045:2053  _amountB */\n      dup1\n        /* \"contracts/SwapContract.sol\":2012:2016  link */\n      0x01\n      0x00\n      swap1\n      sload\n      swap1\n      0x0100\n      exp\n      swap1\n      div\n      0xffffffffffffffffffffffffffffffffffffffff\n      and\n        /* \"contracts/SwapContract.sol\":2012:2026  link.balanceOf */\n      0xffffffffffffffffffffffffffffffffffffffff\n      and\n      0x70a08231\n        /* \"contracts/SwapContract.sol\":2035:2039  this */\n      address\n        /* \"contracts/SwapContract.sol\":2012:2041  link.balanceOf(address(this)) */\n      mload(0x40)\n      dup3\n      0xffffffff\n      and\n      0xe0\n      shl\n      dup2\n      mstore\n      0x04\n      add\n      tag_187\n      swap2\n      swap1\n      tag_44\n      jump\t// in\n    tag_187:\n      0x20\n      mload(0x40)\n      dup1\n      dup4\n      sub\n      dup2\n      dup7\n      gas\n      staticcall\n      iszero\n      dup1\n      iszero\n      tag_189\n      jumpi\n      returndatacopy(0x00, 0x00, returndatasize)\n      revert(0x00, returndatasize)\n    tag_189:\n      pop\n      pop\n      pop\n      pop\n      mload(0x40)\n      returndatasize\n      not(0x1f)\n      0x1f\n      dup3\n      add\n      and\n      dup3\n      add\n      dup1\n      0x40\n      mstore\n      pop\n      dup2\n      add\n      swap1\n      tag_190\n      swap2\n      swap1\n      tag_48\n      jump\t// in\n    tag_190:\n        /* \"contracts/SwapContract.sol\":2012:2053  link.balanceOf(address(this)) >= _amountB */\n      lt\n      iszero\n        /* \"contracts/SwapContract.sol\":2004:2075  require(link.balanceOf(address(this)) >= _amountB, \"Not enough tokenB\") */\n      tag_191\n      jumpi\n      mload(0x40)\n      0x08c379a000000000000000000000000000000000000000000000000000000000\n      dup2\n      mstore\n      0x04\n      add\n      tag_192\n      swap1\n      tag_59\n      jump\t// in\n    tag_192:\n      mload(0x40)\n      dup1\n      swap2\n      sub\n      swap1\n      revert\n    tag_191:\n        /* \"contracts/SwapContract.sol\":2086:2090  weth */\n      0x02\n      0x00\n      swap1\n      sload\n      swap1\n      0x0100\n      exp\n      swap1\n      div\n      0xffffffffffffffffffffffffffffffffffffffff\n      and\n        /* \"contracts/SwapContract.sol\":2086:2103  weth.transferFrom */\n      0xffffffffffffffffffffffffffffffffffffffff\n      and\n      0x23b872dd\n        /* \"contracts/SwapContract.sol\":2104:2114  msg.sender */\n      caller\n        /* \"contracts/SwapContract.sol\":2124:2128  this */\n      address\n        /* \"contracts/SwapContract.sol\":2131:2139  _amountA */\n      dup6\n        /* \"contracts/SwapContract.sol\":2086:2140  weth.transferFrom(msg.sender, address(this), _amountA) */\n      mload(0x40)\n      dup5\n      0xffffffff\n      and\n      0xe0\n      shl\n      dup2\n      mstore\n      0x04\n      add\n      tag_193\n      swap4\n      swap3\n      swap2\n      swap1\n      tag_61\n      jump\t// in\n    tag_193:\n      0x20\n      mload(0x40)\n      dup1\n      dup4\n      sub\n      dup2\n      0x00\n      dup8\n      gas\n      call\n      iszero\n      dup1\n      iszero\n      tag_195\n      jumpi\n      returndatacopy(0x00, 0x00, returndatasize)\n      revert(0x00, returndatasize)\n    tag_195:\n      pop\n      pop\n      pop\n      pop\n      mload(0x40)\n      returndatasize\n      not(0x1f)\n      0x1f\n      dup3\n      add\n      and\n      dup3\n      add\n      dup1\n      0x40\n      mstore\n      pop\n      dup2\n      add\n      swap1\n      tag_196\n      swap2\n      swap1\n      tag_65\n      jump\t// in\n    tag_196:\n      pop\n        /* \"contracts/SwapContract.sol\":2151:2155  link */\n      0x01\n      0x00\n      swap1\n      sload\n      swap1\n      0x0100\n      exp\n      swap1\n      div\n      0xffffffffffffffffffffffffffffffffffffffff\n      and\n        /* \"contracts/SwapContract.sol\":2151:2164  link.transfer */\n      0xffffffffffffffffffffffffffffffffffffffff\n      and\n      0xa9059cbb\n        /* \"contracts/SwapContract.sol\":2165:2175  msg.sender */\n      caller\n        /* \"contracts/SwapContract.sol\":2178:2186  _amountB */\n      dup4\n        /* \"contracts/SwapContract.sol\":2151:2187  link.transfer(msg.sender , _amountB) */\n      mload(0x40)\n      dup4\n      0xffffffff\n      and\n      0xe0\n      shl\n      dup2\n      mstore\n      0x04\n      add\n      tag_197\n      swap3\n      swap2\n      swap1\n      tag_67\n      jump\t// in\n    tag_197:\n      0x20\n      mload(0x40)\n      dup1\n      dup4\n      sub\n      dup2\n      0x00\n      dup8\n      gas\n      call\n      iszero\n      dup1\n      iszero\n      tag_199\n      jumpi\n      returndatacopy(0x00, 0x00, returndatasize)\n      revert(0x00, returndatasize)\n    tag_199:\n      pop\n      pop\n      pop\n      pop\n      mload(0x40)\n      returndatasize\n      not(0x1f)\n      0x1f\n      dup3\n      add\n      and\n      dup3\n      add\n      dup1\n      0x40\n      mstore\n      pop\n      dup2\n      add\n      swap1\n      tag_200\n      swap2\n      swap1\n      tag_65\n      jump\t// in\n    tag_200:\n      pop\n        /* \"contracts/SwapContract.sol\":2241:2249  _amountB */\n      dup1\n        /* \"contracts/SwapContract.sol\":2230:2238  _amountA */\n      dup3\n        /* \"contracts/SwapContract.sol\":2218:2228  msg.sender */\n      caller\n        /* \"contracts/SwapContract.sol\":2203:2250  SwapSuccessful(msg.sender, _amountA , _amountB) */\n      0xffffffffffffffffffffffffffffffffffffffff\n      and\n      0xd0dcb5d6ccbc65558941eda1d0add99921923cc1868a41bbf8d224258a21396d\n      mload(0x40)\n      mload(0x40)\n      dup1\n      swap2\n      sub\n      swap1\n      log4\n        /* \"contracts/SwapContract.sol\":1700:2258  {... */\n      pop\n        /* \"contracts/SwapContract.sol\":1652:2258  function swapEthLink(uint256 _amountA) external {... */\n      pop\n      jump\t// out\n        /* \"contracts/SwapContract.sol\":5191:5953  function getDerivedPrice(... */\n    tag_33:\n        /* \"contracts/SwapContract.sol\":5343:5349  int256 */\n      0x00\n        /* \"contracts/SwapContract.sol\":5400:5401  0 */\n      0x00\n        /* \"contracts/SwapContract.sol\":5382:5402  _decimals > uint8(0) */\n      0xff\n      and\n        /* \"contracts/SwapContract.sol\":5382:5391  _decimals */\n      dup3\n        /* \"contracts/SwapContract.sol\":5382:5402  _decimals > uint8(0) */\n      0xff\n      and\n      gt\n        /* \"contracts/SwapContract.sol\":5382:5428  _decimals > uint8(0) && _decimals <= uint8(18) */\n      dup1\n      iszero\n      tag_202\n      jumpi\n      pop\n        /* \"contracts/SwapContract.sol\":5425:5427  18 */\n      0x12\n        /* \"contracts/SwapContract.sol\":5406:5428  _decimals <= uint8(18) */\n      0xff\n      and\n        /* \"contracts/SwapContract.sol\":5406:5415  _decimals */\n      dup3\n        /* \"contracts/SwapContract.sol\":5406:5428  _decimals <= uint8(18) */\n      0xff\n      and\n      gt\n      iszero\n        /* \"contracts/SwapContract.sol\":5382:5428  _decimals > uint8(0) && _decimals <= uint8(18) */\n    tag_202:\n        /* \"contracts/SwapContract.sol\":5361:5471  require(... */\n      tag_203\n      jumpi\n      mload(0x40)\n      0x08c379a000000000000000000000000000000000000000000000000000000000\n      dup2\n      mstore\n      0x04\n      add\n      tag_204\n      swap1\n      tag_205\n      jump\t// in\n    tag_204:\n      mload(0x40)\n      dup1\n      swap2\n      sub\n      swap1\n      revert\n    tag_203:\n        /* \"contracts/SwapContract.sol\":5481:5496  int256 decimals */\n      0x00\n        /* \"contracts/SwapContract.sol\":5520:5529  _decimals */\n      dup3\n        /* \"contracts/SwapContract.sol\":5512:5530  uint256(_decimals) */\n      0xff\n      and\n        /* \"contracts/SwapContract.sol\":5506:5508  10 */\n      0x0a\n        /* \"contracts/SwapContract.sol\":5506:5530  10 ** uint256(_decimals) */\n      tag_206\n      swap2\n      swap1\n      tag_207\n      jump\t// in\n    tag_206:\n        /* \"contracts/SwapContract.sol\":5481:5531  int256 decimals = int256(10 ** uint256(_decimals)) */\n      swap1\n      pop\n        /* \"contracts/SwapContract.sol\":5544:5560  int256 basePrice */\n      0x00\n        /* \"contracts/SwapContract.sol\":5570:5575  _base */\n      dup6\n        /* \"contracts/SwapContract.sol\":5570:5591  _base.latestRoundData */\n      0xffffffffffffffffffffffffffffffffffffffff\n      and\n      0xfeaf968c\n        /* \"contracts/SwapContract.sol\":5570:5593  _base.latestRoundData() */\n      mload(0x40)\n      dup2\n      0xffffffff\n      and\n      0xe0\n      shl\n      dup2\n      mstore\n      0x04\n      add\n      0xa0\n      mload(0x40)\n      dup1\n      dup4\n      sub\n      dup2\n      dup7\n      gas\n      staticcall\n      iszero\n      dup1\n      iszero\n      tag_209\n      jumpi\n      returndatacopy(0x00, 0x00, returndatasize)\n      revert(0x00, returndatasize)\n    tag_209:\n      pop\n      pop\n      pop\n      pop\n      mload(0x40)\n      returndatasize\n      not(0x1f)\n      0x1f\n      dup3\n      add\n      and\n      dup3\n      add\n      dup1\n      0x40\n      mstore\n      pop\n      dup2\n      add\n      swap1\n      tag_210\n      swap2\n      swap1\n      tag_211\n      jump\t// in\n    tag_210:\n        /* \"contracts/SwapContract.sol\":5541:5593  (, int256 basePrice, , , ) = _base.latestRoundData() */\n      pop\n      pop\n      pop\n      swap2\n      pop\n      pop\n        /* \"contracts/SwapContract.sol\":5603:5621  uint8 baseDecimals */\n      0x00\n        /* \"contracts/SwapContract.sol\":5624:5629  _base */\n      dup7\n        /* \"contracts/SwapContract.sol\":5624:5638  _base.decimals */\n      0xffffffffffffffffffffffffffffffffffffffff\n      and\n      0x313ce567\n        /* \"contracts/SwapContract.sol\":5624:5640  _base.decimals() */\n      mload(0x40)\n      dup2\n      0xffffffff\n      and\n      0xe0\n      shl\n      dup2\n      mstore\n      0x04\n      add\n      0x20\n      mload(0x40)\n      dup1\n      dup4\n      sub\n      dup2\n      dup7\n      gas\n      staticcall\n      iszero\n      dup1\n      iszero\n      tag_213\n      jumpi\n      returndatacopy(0x00, 0x00, returndatasize)\n      revert(0x00, returndatasize)\n    tag_213:\n      pop\n      pop\n      pop\n      pop\n      mload(0x40)\n      returndatasize\n      not(0x1f)\n      0x1f\n      dup3\n      add\n      and\n      dup3\n      add\n      dup1\n      0x40\n      mstore\n      pop\n      dup2\n      add\n      swap1\n      tag_214\n      swap2\n      swap1\n      tag_215\n      jump\t// in\n    tag_214:\n        /* \"contracts/SwapContract.sol\":5603:5640  uint8 baseDecimals = _base.decimals() */\n      swap1\n      pop\n        /* \"contracts/SwapContract.sol\":5662:5708  scalePrice(basePrice, baseDecimals, _decimals) */\n      tag_216\n        /* \"contracts/SwapContract.sol\":5673:5682  basePrice */\n      dup3\n        /* \"contracts/SwapContract.sol\":5684:5696  baseDecimals */\n      dup3\n        /* \"contracts/SwapContract.sol\":5698:5707  _decimals */\n      dup8\n        /* \"contracts/SwapContract.sol\":5662:5672  scalePrice */\n      tag_217\n        /* \"contracts/SwapContract.sol\":5662:5708  scalePrice(basePrice, baseDecimals, _decimals) */\n      jump\t// in\n    tag_216:\n        /* \"contracts/SwapContract.sol\":5650:5708  basePrice = scalePrice(basePrice, baseDecimals, _decimals) */\n      swap2\n      pop\n        /* \"contracts/SwapContract.sol\":5722:5739  int256 quotePrice */\n      0x00\n        /* \"contracts/SwapContract.sol\":5749:5755  _quote */\n      dup7\n        /* \"contracts/SwapContract.sol\":5749:5771  _quote.latestRoundData */\n      0xffffffffffffffffffffffffffffffffffffffff\n      and\n      0xfeaf968c\n        /* \"contracts/SwapContract.sol\":5749:5773  _quote.latestRoundData() */\n      mload(0x40)\n      dup2\n      0xffffffff\n      and\n      0xe0\n      shl\n      dup2\n      mstore\n      0x04\n      add\n      0xa0\n      mload(0x40)\n      dup1\n      dup4\n      sub\n      dup2\n      dup7\n      gas\n      staticcall\n      iszero\n      dup1\n      iszero\n      tag_219\n      jumpi\n      returndatacopy(0x00, 0x00, returndatasize)\n      revert(0x00, returndatasize)\n    tag_219:\n      pop\n      pop\n      pop\n      pop\n      mload(0x40)\n      returndatasize\n      not(0x1f)\n      0x1f\n      dup3\n      add\n      and\n      dup3\n      add\n      dup1\n      0x40\n      mstore\n      pop\n      dup2\n      add\n      swap1\n      tag_220\n      swap2\n      swap1\n      tag_211\n      jump\t// in\n    tag_220:\n        /* \"contracts/SwapContract.sol\":5719:5773  (, int256 quotePrice, , , ) = _quote.latestRoundData() */\n      pop\n      pop\n      pop\n      swap2\n      pop\n      pop\n        /* \"contracts/SwapContract.sol\":5783:5802  uint8 quoteDecimals */\n      0x00\n        /* \"contracts/SwapContract.sol\":5805:5811  _quote */\n      dup8\n        /* \"contracts/SwapContract.sol\":5805:5820  _quote.decimals */\n      0xffffffffffffffffffffffffffffffffffffffff\n      and\n      0x313ce567\n        /* \"contracts/SwapContract.sol\":5805:5822  _quote.decimals() */\n      mload(0x40)\n      dup2\n      0xffffffff\n      and\n      0xe0\n      shl\n      dup2\n      mstore\n      0x04\n      add\n      0x20\n      mload(0x40)\n      dup1\n      dup4\n      sub\n      dup2\n      dup7\n      gas\n      staticcall\n      iszero\n      dup1\n      iszero\n      tag_222\n      jumpi\n      returndatacopy(0x00, 0x00, returndatasize)\n      revert(0x00, returndatasize)\n    tag_222:\n      pop\n      pop\n      pop\n      pop\n      mload(0x40)\n      returndatasize\n      not(0x1f)\n      0x1f\n      dup3\n      add\n      and\n      dup3\n      add\n      dup1\n      0x40\n      mstore\n      pop\n      dup2\n      add\n      swap1\n      tag_223\n      swap2\n      swap1\n      tag_215\n      jump\t// in\n    tag_223:\n        /* \"contracts/SwapContract.sol\":5783:5822  uint8 quoteDecimals = _quote.decimals() */\n      swap1\n      pop\n        /* \"contracts/SwapContract.sol\":5845:5893  scalePrice(quotePrice, quoteDecimals, _decimals) */\n      tag_224\n        /* \"contracts/SwapContract.sol\":5856:5866  quotePrice */\n      dup3\n        /* \"contracts/SwapContract.sol\":5868:5881  quoteDecimals */\n      dup3\n        /* \"contracts/SwapContract.sol\":5883:5892  _decimals */\n      dup10\n        /* \"contracts/SwapContract.sol\":5845:5855  scalePrice */\n      tag_217\n        /* \"contracts/SwapContract.sol\":5845:5893  scalePrice(quotePrice, quoteDecimals, _decimals) */\n      jump\t// in\n    tag_224:\n        /* \"contracts/SwapContract.sol\":5832:5893  quotePrice = scalePrice(quotePrice, quoteDecimals, _decimals) */\n      swap2\n      pop\n        /* \"contracts/SwapContract.sol\":5936:5946  quotePrice */\n      dup2\n        /* \"contracts/SwapContract.sol\":5924:5932  decimals */\n      dup6\n        /* \"contracts/SwapContract.sol\":5912:5921  basePrice */\n      dup6\n        /* \"contracts/SwapContract.sol\":5912:5932  basePrice * decimals */\n      tag_225\n      swap2\n      swap1\n      tag_226\n      jump\t// in\n    tag_225:\n        /* \"contracts/SwapContract.sol\":5911:5946  (basePrice * decimals) / quotePrice */\n      tag_227\n      swap2\n      swap1\n      tag_228\n      jump\t// in\n    tag_227:\n        /* \"contracts/SwapContract.sol\":5904:5946  return (basePrice * decimals) / quotePrice */\n      swap6\n      pop\n      pop\n      pop\n      pop\n      pop\n      pop\n        /* \"contracts/SwapContract.sol\":5191:5953  function getDerivedPrice(... */\n      swap4\n      swap3\n      pop\n      pop\n      pop\n      jump\t// out\n        /* \"contracts/SwapContract.sol\":4760:5184  function scalePrice(... */\n    tag_217:\n        /* \"contracts/SwapContract.sol\":4887:4893  int256 */\n      0x00\n        /* \"contracts/SwapContract.sol\":4926:4935  _decimals */\n      dup2\n        /* \"contracts/SwapContract.sol\":4909:4935  _priceDecimals < _decimals */\n      0xff\n      and\n        /* \"contracts/SwapContract.sol\":4909:4923  _priceDecimals */\n      dup4\n        /* \"contracts/SwapContract.sol\":4909:4935  _priceDecimals < _decimals */\n      0xff\n      and\n      lt\n        /* \"contracts/SwapContract.sol\":4905:5155  if (_priceDecimals < _decimals) {... */\n      iszero\n      tag_230\n      jumpi\n        /* \"contracts/SwapContract.sol\":5000:5014  _priceDecimals */\n      dup3\n        /* \"contracts/SwapContract.sol\":4988:4997  _decimals */\n      dup3\n        /* \"contracts/SwapContract.sol\":4988:5014  _decimals - _priceDecimals */\n      tag_231\n      swap2\n      swap1\n      tag_232\n      jump\t// in\n    tag_231:\n        /* \"contracts/SwapContract.sol\":4980:5015  uint256(_decimals - _priceDecimals) */\n      0xff\n      and\n        /* \"contracts/SwapContract.sol\":4974:4976  10 */\n      0x0a\n        /* \"contracts/SwapContract.sol\":4974:5015  10 ** uint256(_decimals - _priceDecimals) */\n      tag_233\n      swap2\n      swap1\n      tag_207\n      jump\t// in\n    tag_233:\n        /* \"contracts/SwapContract.sol\":4958:4964  _price */\n      dup5\n        /* \"contracts/SwapContract.sol\":4958:5016  _price * int256(10 ** uint256(_decimals - _priceDecimals)) */\n      tag_234\n      swap2\n      swap1\n      tag_226\n      jump\t// in\n    tag_234:\n        /* \"contracts/SwapContract.sol\":4951:5016  return _price * int256(10 ** uint256(_decimals - _priceDecimals)) */\n      swap1\n      pop\n      jump(tag_229)\n        /* \"contracts/SwapContract.sol\":4905:5155  if (_priceDecimals < _decimals) {... */\n    tag_230:\n        /* \"contracts/SwapContract.sol\":5054:5063  _decimals */\n      dup2\n        /* \"contracts/SwapContract.sol\":5037:5063  _priceDecimals > _decimals */\n      0xff\n      and\n        /* \"contracts/SwapContract.sol\":5037:5051  _priceDecimals */\n      dup4\n        /* \"contracts/SwapContract.sol\":5037:5063  _priceDecimals > _decimals */\n      0xff\n      and\n      gt\n        /* \"contracts/SwapContract.sol\":5033:5155  if (_priceDecimals > _decimals) {... */\n      iszero\n      tag_236\n      jumpi\n        /* \"contracts/SwapContract.sol\":5133:5142  _decimals */\n      dup2\n        /* \"contracts/SwapContract.sol\":5116:5130  _priceDecimals */\n      dup4\n        /* \"contracts/SwapContract.sol\":5116:5142  _priceDecimals - _decimals */\n      tag_237\n      swap2\n      swap1\n      tag_232\n      jump\t// in\n    tag_237:\n        /* \"contracts/SwapContract.sol\":5108:5143  uint256(_priceDecimals - _decimals) */\n      0xff\n      and\n        /* \"contracts/SwapContract.sol\":5102:5104  10 */\n      0x0a\n        /* \"contracts/SwapContract.sol\":5102:5143  10 ** uint256(_priceDecimals - _decimals) */\n      tag_238\n      swap2\n      swap1\n      tag_207\n      jump\t// in\n    tag_238:\n        /* \"contracts/SwapContract.sol\":5086:5092  _price */\n      dup5\n        /* \"contracts/SwapContract.sol\":5086:5144  _price / int256(10 ** uint256(_priceDecimals - _decimals)) */\n      tag_239\n      swap2\n      swap1\n      tag_228\n      jump\t// in\n    tag_239:\n        /* \"contracts/SwapContract.sol\":5079:5144  return _price / int256(10 ** uint256(_priceDecimals - _decimals)) */\n      swap1\n      pop\n      jump(tag_229)\n        /* \"contracts/SwapContract.sol\":5033:5155  if (_priceDecimals > _decimals) {... */\n    tag_236:\n        /* \"contracts/SwapContract.sol\":5171:5177  _price */\n      dup4\n        /* \"contracts/SwapContract.sol\":5164:5177  return _price */\n      swap1\n      pop\n        /* \"contracts/SwapContract.sol\":4760:5184  function scalePrice(... */\n    tag_229:\n      swap4\n      swap3\n      pop\n      pop\n      pop\n      jump\t// out\n        /* \"#utility.yul\":88:205   */\n    tag_241:\n        /* \"#utility.yul\":197:198   */\n      0x00\n        /* \"#utility.yul\":194:195   */\n      0x00\n        /* \"#utility.yul\":187:199   */\n      revert\n        /* \"#utility.yul\":334:411   */\n    tag_243:\n        /* \"#utility.yul\":371:378   */\n      0x00\n        /* \"#utility.yul\":400:405   */\n      dup2\n        /* \"#utility.yul\":389:405   */\n      swap1\n      pop\n        /* \"#utility.yul\":334:411   */\n      swap2\n      swap1\n      pop\n      jump\t// out\n        /* \"#utility.yul\":417:539   */\n    tag_244:\n        /* \"#utility.yul\":490:514   */\n      tag_290\n        /* \"#utility.yul\":508:513   */\n      dup2\n        /* \"#utility.yul\":490:514   */\n      tag_243\n      jump\t// in\n    tag_290:\n        /* \"#utility.yul\":483:488   */\n      dup2\n        /* \"#utility.yul\":480:515   */\n      eq\n        /* \"#utility.yul\":470:533   */\n      tag_291\n      jumpi\n        /* \"#utility.yul\":529:530   */\n      0x00\n        /* \"#utility.yul\":526:527   */\n      0x00\n        /* \"#utility.yul\":519:531   */\n      revert\n        /* \"#utility.yul\":470:533   */\n    tag_291:\n        /* \"#utility.yul\":417:539   */\n      pop\n      jump\t// out\n        /* \"#utility.yul\":545:684   */\n    tag_245:\n        /* \"#utility.yul\":591:596   */\n      0x00\n        /* \"#utility.yul\":629:635   */\n      dup2\n        /* \"#utility.yul\":616:636   */\n      calldataload\n        /* \"#utility.yul\":607:636   */\n      swap1\n      pop\n        /* \"#utility.yul\":645:678   */\n      tag_293\n        /* \"#utility.yul\":672:677   */\n      dup2\n        /* \"#utility.yul\":645:678   */\n      tag_244\n      jump\t// in\n    tag_293:\n        /* \"#utility.yul\":545:684   */\n      swap3\n      swap2\n      pop\n      pop\n      jump\t// out\n        /* \"#utility.yul\":690:1019   */\n    tag_13:\n        /* \"#utility.yul\":749:755   */\n      0x00\n        /* \"#utility.yul\":798:800   */\n      0x20\n        /* \"#utility.yul\":786:795   */\n      dup3\n        /* \"#utility.yul\":777:784   */\n      dup5\n        /* \"#utility.yul\":773:796   */\n      sub\n        /* \"#utility.yul\":769:801   */\n      slt\n        /* \"#utility.yul\":766:885   */\n      iszero\n      tag_295\n      jumpi\n        /* \"#utility.yul\":804:883   */\n      tag_296\n      tag_241\n      jump\t// in\n    tag_296:\n        /* \"#utility.yul\":766:885   */\n    tag_295:\n        /* \"#utility.yul\":924:925   */\n      0x00\n        /* \"#utility.yul\":949:1002   */\n      tag_297\n        /* \"#utility.yul\":994:1001   */\n      dup5\n        /* \"#utility.yul\":985:991   */\n      dup3\n        /* \"#utility.yul\":974:983   */\n      dup6\n        /* \"#utility.yul\":970:992   */\n      add\n        /* \"#utility.yul\":949:1002   */\n      tag_245\n      jump\t// in\n    tag_297:\n        /* \"#utility.yul\":939:1002   */\n      swap2\n      pop\n        /* \"#utility.yul\":895:1012   */\n      pop\n        /* \"#utility.yul\":690:1019   */\n      swap3\n      swap2\n      pop\n      pop\n      jump\t// out\n        /* \"#utility.yul\":1025:1151   */\n    tag_246:\n        /* \"#utility.yul\":1062:1069   */\n      0x00\n        /* \"#utility.yul\":1102:1144   */\n      0xffffffffffffffffffffffffffffffffffffffff\n        /* \"#utility.yul\":1095:1100   */\n      dup3\n        /* \"#utility.yul\":1091:1145   */\n      and\n        /* \"#utility.yul\":1080:1145   */\n      swap1\n      pop\n        /* \"#utility.yul\":1025:1151   */\n      swap2\n      swap1\n      pop\n      jump\t// out\n        /* \"#utility.yul\":1157:1253   */\n    tag_247:\n        /* \"#utility.yul\":1194:1201   */\n      0x00\n        /* \"#utility.yul\":1223:1247   */\n      tag_300\n        /* \"#utility.yul\":1241:1246   */\n      dup3\n        /* \"#utility.yul\":1223:1247   */\n      tag_246\n      jump\t// in\n    tag_300:\n        /* \"#utility.yul\":1212:1247   */\n      swap1\n      pop\n        /* \"#utility.yul\":1157:1253   */\n      swap2\n      swap1\n      pop\n      jump\t// out\n        /* \"#utility.yul\":1259:1383   */\n    tag_248:\n        /* \"#utility.yul\":1324:1331   */\n      0x00\n        /* \"#utility.yul\":1353:1377   */\n      tag_302\n        /* \"#utility.yul\":1371:1376   */\n      dup3\n        /* \"#utility.yul\":1353:1377   */\n      tag_247\n      jump\t// in\n    tag_302:\n        /* \"#utility.yul\":1342:1377   */\n      swap1\n      pop\n        /* \"#utility.yul\":1259:1383   */\n      swap2\n      swap1\n      pop\n      jump\t// out\n        /* \"#utility.yul\":1389:1567   */\n    tag_249:\n        /* \"#utility.yul\":1490:1542   */\n      tag_304\n        /* \"#utility.yul\":1536:1541   */\n      dup2\n        /* \"#utility.yul\":1490:1542   */\n      tag_248\n      jump\t// in\n    tag_304:\n        /* \"#utility.yul\":1483:1488   */\n      dup2\n        /* \"#utility.yul\":1480:1543   */\n      eq\n        /* \"#utility.yul\":1470:1561   */\n      tag_305\n      jumpi\n        /* \"#utility.yul\":1557:1558   */\n      0x00\n        /* \"#utility.yul\":1554:1555   */\n      0x00\n        /* \"#utility.yul\":1547:1559   */\n      revert\n        /* \"#utility.yul\":1470:1561   */\n    tag_305:\n        /* \"#utility.yul\":1389:1567   */\n      pop\n      jump\t// out\n        /* \"#utility.yul\":1573:1768   */\n    tag_250:\n        /* \"#utility.yul\":1647:1652   */\n      0x00\n        /* \"#utility.yul\":1685:1691   */\n      dup2\n        /* \"#utility.yul\":1672:1692   */\n      calldataload\n        /* \"#utility.yul\":1663:1692   */\n      swap1\n      pop\n        /* \"#utility.yul\":1701:1762   */\n      tag_307\n        /* \"#utility.yul\":1756:1761   */\n      dup2\n        /* \"#utility.yul\":1701:1762   */\n      tag_249\n      jump\t// in\n    tag_307:\n        /* \"#utility.yul\":1573:1768   */\n      swap3\n      swap2\n      pop\n      pop\n      jump\t// out\n        /* \"#utility.yul\":1774:1860   */\n    tag_251:\n        /* \"#utility.yul\":1809:1816   */\n      0x00\n        /* \"#utility.yul\":1849:1853   */\n      0xff\n        /* \"#utility.yul\":1842:1847   */\n      dup3\n        /* \"#utility.yul\":1838:1854   */\n      and\n        /* \"#utility.yul\":1827:1854   */\n      swap1\n      pop\n        /* \"#utility.yul\":1774:1860   */\n      swap2\n      swap1\n      pop\n      jump\t// out\n        /* \"#utility.yul\":1866:1984   */\n    tag_252:\n        /* \"#utility.yul\":1937:1959   */\n      tag_310\n        /* \"#utility.yul\":1953:1958   */\n      dup2\n        /* \"#utility.yul\":1937:1959   */\n      tag_251\n      jump\t// in\n    tag_310:\n        /* \"#utility.yul\":1930:1935   */\n      dup2\n        /* \"#utility.yul\":1927:1960   */\n      eq\n        /* \"#utility.yul\":1917:1978   */\n      tag_311\n      jumpi\n        /* \"#utility.yul\":1974:1975   */\n      0x00\n        /* \"#utility.yul\":1971:1972   */\n      0x00\n        /* \"#utility.yul\":1964:1976   */\n      revert\n        /* \"#utility.yul\":1917:1978   */\n    tag_311:\n        /* \"#utility.yul\":1866:1984   */\n      pop\n      jump\t// out\n        /* \"#utility.yul\":1990:2125   */\n    tag_253:\n        /* \"#utility.yul\":2034:2039   */\n      0x00\n        /* \"#utility.yul\":2072:2078   */\n      dup2\n        /* \"#utility.yul\":2059:2079   */\n      calldataload\n        /* \"#utility.yul\":2050:2079   */\n      swap1\n      pop\n        /* \"#utility.yul\":2088:2119   */\n      tag_313\n        /* \"#utility.yul\":2113:2118   */\n      dup2\n        /* \"#utility.yul\":2088:2119   */\n      tag_252\n      jump\t// in\n    tag_313:\n        /* \"#utility.yul\":1990:2125   */\n      swap3\n      swap2\n      pop\n      pop\n      jump\t// out\n        /* \"#utility.yul\":2131:2858   */\n    tag_32:\n        /* \"#utility.yul\":2262:2268   */\n      0x00\n        /* \"#utility.yul\":2270:2276   */\n      0x00\n        /* \"#utility.yul\":2278:2284   */\n      0x00\n        /* \"#utility.yul\":2327:2329   */\n      0x60\n        /* \"#utility.yul\":2315:2324   */\n      dup5\n        /* \"#utility.yul\":2306:2313   */\n      dup7\n        /* \"#utility.yul\":2302:2325   */\n      sub\n        /* \"#utility.yul\":2298:2330   */\n      slt\n        /* \"#utility.yul\":2295:2414   */\n      iszero\n      tag_315\n      jumpi\n        /* \"#utility.yul\":2333:2412   */\n      tag_316\n      tag_241\n      jump\t// in\n    tag_316:\n        /* \"#utility.yul\":2295:2414   */\n    tag_315:\n        /* \"#utility.yul\":2453:2454   */\n      0x00\n        /* \"#utility.yul\":2478:2559   */\n      tag_317\n        /* \"#utility.yul\":2551:2558   */\n      dup7\n        /* \"#utility.yul\":2542:2548   */\n      dup3\n        /* \"#utility.yul\":2531:2540   */\n      dup8\n        /* \"#utility.yul\":2527:2549   */\n      add\n        /* \"#utility.yul\":2478:2559   */\n      tag_250\n      jump\t// in\n    tag_317:\n        /* \"#utility.yul\":2468:2559   */\n      swap4\n      pop\n        /* \"#utility.yul\":2424:2569   */\n      pop\n        /* \"#utility.yul\":2608:2610   */\n      0x20\n        /* \"#utility.yul\":2634:2715   */\n      tag_318\n        /* \"#utility.yul\":2707:2714   */\n      dup7\n        /* \"#utility.yul\":2698:2704   */\n      dup3\n        /* \"#utility.yul\":2687:2696   */\n      dup8\n        /* \"#utility.yul\":2683:2705   */\n      add\n        /* \"#utility.yul\":2634:2715   */\n      tag_250\n      jump\t// in\n    tag_318:\n        /* \"#utility.yul\":2624:2715   */\n      swap3\n      pop\n        /* \"#utility.yul\":2579:2725   */\n      pop\n        /* \"#utility.yul\":2764:2766   */\n      0x40\n        /* \"#utility.yul\":2790:2841   */\n      tag_319\n        /* \"#utility.yul\":2833:2840   */\n      dup7\n        /* \"#utility.yul\":2824:2830   */\n      dup3\n        /* \"#utility.yul\":2813:2822   */\n      dup8\n        /* \"#utility.yul\":2809:2831   */\n      add\n        /* \"#utility.yul\":2790:2841   */\n      tag_253\n      jump\t// in\n    tag_319:\n        /* \"#utility.yul\":2780:2841   */\n      swap2\n      pop\n        /* \"#utility.yul\":2735:2851   */\n      pop\n        /* \"#utility.yul\":2131:2858   */\n      swap3\n      pop\n      swap3\n      pop\n      swap3\n      jump\t// out\n        /* \"#utility.yul\":2864:2940   */\n    tag_254:\n        /* \"#utility.yul\":2900:2907   */\n      0x00\n        /* \"#utility.yul\":2929:2934   */\n      dup2\n        /* \"#utility.yul\":2918:2934   */\n      swap1\n      pop\n        /* \"#utility.yul\":2864:2940   */\n      swap2\n      swap1\n      pop\n      jump\t// out\n        /* \"#utility.yul\":2946:3061   */\n    tag_255:\n        /* \"#utility.yul\":3031:3054   */\n      tag_322\n        /* \"#utility.yul\":3048:3053   */\n      dup2\n        /* \"#utility.yul\":3031:3054   */\n      tag_254\n      jump\t// in\n    tag_322:\n        /* \"#utility.yul\":3026:3029   */\n      dup3\n        /* \"#utility.yul\":3019:3055   */\n      mstore\n        /* \"#utility.yul\":2946:3061   */\n      pop\n      pop\n      jump\t// out\n        /* \"#utility.yul\":3067:3285   */\n    tag_35:\n        /* \"#utility.yul\":3158:3162   */\n      0x00\n        /* \"#utility.yul\":3196:3198   */\n      0x20\n        /* \"#utility.yul\":3185:3194   */\n      dup3\n        /* \"#utility.yul\":3181:3199   */\n      add\n        /* \"#utility.yul\":3173:3199   */\n      swap1\n      pop\n        /* \"#utility.yul\":3209:3278   */\n      tag_324\n        /* \"#utility.yul\":3275:3276   */\n      0x00\n        /* \"#utility.yul\":3264:3273   */\n      dup4\n        /* \"#utility.yul\":3260:3277   */\n      add\n        /* \"#utility.yul\":3251:3257   */\n      dup5\n        /* \"#utility.yul\":3209:3278   */\n      tag_255\n      jump\t// in\n    tag_324:\n        /* \"#utility.yul\":3067:3285   */\n      swap3\n      swap2\n      pop\n      pop\n      jump\t// out\n        /* \"#utility.yul\":3291:3460   */\n    tag_256:\n        /* \"#utility.yul\":3375:3386   */\n      0x00\n        /* \"#utility.yul\":3409:3415   */\n      dup3\n        /* \"#utility.yul\":3404:3407   */\n      dup3\n        /* \"#utility.yul\":3397:3416   */\n      mstore\n        /* \"#utility.yul\":3449:3453   */\n      0x20\n        /* \"#utility.yul\":3444:3447   */\n      dup3\n        /* \"#utility.yul\":3440:3454   */\n      add\n        /* \"#utility.yul\":3425:3454   */\n      swap1\n      pop\n        /* \"#utility.yul\":3291:3460   */\n      swap3\n      swap2\n      pop\n      pop\n      jump\t// out\n        /* \"#utility.yul\":3466:3637   */\n    tag_257:\n        /* \"#utility.yul\":3606:3629   */\n      0x61646472657373207a65726f2064657465637465640000000000000000000000\n        /* \"#utility.yul\":3602:3603   */\n      0x00\n        /* \"#utility.yul\":3594:3600   */\n      dup3\n        /* \"#utility.yul\":3590:3604   */\n      add\n        /* \"#utility.yul\":3583:3630   */\n      mstore\n        /* \"#utility.yul\":3466:3637   */\n      pop\n      jump\t// out\n        /* \"#utility.yul\":3643:4009   */\n    tag_258:\n        /* \"#utility.yul\":3785:3788   */\n      0x00\n        /* \"#utility.yul\":3806:3873   */\n      tag_328\n        /* \"#utility.yul\":3870:3872   */\n      0x15\n        /* \"#utility.yul\":3865:3868   */\n      dup4\n        /* \"#utility.yul\":3806:3873   */\n      tag_256\n      jump\t// in\n    tag_328:\n        /* \"#utility.yul\":3799:3873   */\n      swap2\n      pop\n        /* \"#utility.yul\":3882:3975   */\n      tag_329\n        /* \"#utility.yul\":3971:3974   */\n      dup3\n        /* \"#utility.yul\":3882:3975   */\n      tag_257\n      jump\t// in\n    tag_329:\n        /* \"#utility.yul\":4000:4002   */\n      0x20\n        /* \"#utility.yul\":3995:3998   */\n      dup3\n        /* \"#utility.yul\":3991:4003   */\n      add\n        /* \"#utility.yul\":3984:4003   */\n      swap1\n      pop\n        /* \"#utility.yul\":3643:4009   */\n      swap2\n      swap1\n      pop\n      jump\t// out\n        /* \"#utility.yul\":4015:4434   */\n    tag_39:\n        /* \"#utility.yul\":4181:4185   */\n      0x00\n        /* \"#utility.yul\":4219:4221   */\n      0x20\n        /* \"#utility.yul\":4208:4217   */\n      dup3\n        /* \"#utility.yul\":4204:4222   */\n      add\n        /* \"#utility.yul\":4196:4222   */\n      swap1\n      pop\n        /* \"#utility.yul\":4268:4277   */\n      dup2\n        /* \"#utility.yul\":4262:4266   */\n      dup2\n        /* \"#utility.yul\":4258:4278   */\n      sub\n        /* \"#utility.yul\":4254:4255   */\n      0x00\n        /* \"#utility.yul\":4243:4252   */\n      dup4\n        /* \"#utility.yul\":4239:4256   */\n      add\n        /* \"#utility.yul\":4232:4279   */\n      mstore\n        /* \"#utility.yul\":4296:4427   */\n      tag_331\n        /* \"#utility.yul\":4422:4426   */\n      dup2\n        /* \"#utility.yul\":4296:4427   */\n      tag_258\n      jump\t// in\n    tag_331:\n        /* \"#utility.yul\":4288:4427   */\n      swap1\n      pop\n        /* \"#utility.yul\":4015:4434   */\n      swap2\n      swap1\n      pop\n      jump\t// out\n        /* \"#utility.yul\":4440:4616   */\n    tag_259:\n        /* \"#utility.yul\":4580:4608   */\n      0x43616e27742065786368616e6765207a65726f20616d6f756e74000000000000\n        /* \"#utility.yul\":4576:4577   */\n      0x00\n        /* \"#utility.yul\":4568:4574   */\n      dup3\n        /* \"#utility.yul\":4564:4578   */\n      add\n        /* \"#utility.yul\":4557:4609   */\n      mstore\n        /* \"#utility.yul\":4440:4616   */\n      pop\n      jump\t// out\n        /* \"#utility.yul\":4622:4988   */\n    tag_260:\n        /* \"#utility.yul\":4764:4767   */\n      0x00\n        /* \"#utility.yul\":4785:4852   */\n      tag_334\n        /* \"#utility.yul\":4849:4851   */\n      0x1a\n        /* \"#utility.yul\":4844:4847   */\n      dup4\n        /* \"#utility.yul\":4785:4852   */\n      tag_256\n      jump\t// in\n    tag_334:\n        /* \"#utility.yul\":4778:4852   */\n      swap2\n      pop\n        /* \"#utility.yul\":4861:4954   */\n      tag_335\n        /* \"#utility.yul\":4950:4953   */\n      dup3\n        /* \"#utility.yul\":4861:4954   */\n      tag_259\n      jump\t// in\n    tag_335:\n        /* \"#utility.yul\":4979:4981   */\n      0x20\n        /* \"#utility.yul\":4974:4977   */\n      dup3\n        /* \"#utility.yul\":4970:4982   */\n      add\n        /* \"#utility.yul\":4963:4982   */\n      swap1\n      pop\n        /* \"#utility.yul\":4622:4988   */\n      swap2\n      swap1\n      pop\n      jump\t// out\n        /* \"#utility.yul\":4994:5413   */\n    tag_42:\n        /* \"#utility.yul\":5160:5164   */\n      0x00\n        /* \"#utility.yul\":5198:5200   */\n      0x20\n        /* \"#utility.yul\":5187:5196   */\n      dup3\n        /* \"#utility.yul\":5183:5201   */\n      add\n        /* \"#utility.yul\":5175:5201   */\n      swap1\n      pop\n        /* \"#utility.yul\":5247:5256   */\n      dup2\n        /* \"#utility.yul\":5241:5245   */\n      dup2\n        /* \"#utility.yul\":5237:5257   */\n      sub\n        /* \"#utility.yul\":5233:5234   */\n      0x00\n        /* \"#utility.yul\":5222:5231   */\n      dup4\n        /* \"#utility.yul\":5218:5235   */\n      add\n        /* \"#utility.yul\":5211:5258   */\n      mstore\n        /* \"#utility.yul\":5275:5406   */\n      tag_337\n        /* \"#utility.yul\":5401:5405   */\n      dup2\n        /* \"#utility.yul\":5275:5406   */\n      tag_260\n      jump\t// in\n    tag_337:\n        /* \"#utility.yul\":5267:5406   */\n      swap1\n      pop\n        /* \"#utility.yul\":4994:5413   */\n      swap2\n      swap1\n      pop\n      jump\t// out\n        /* \"#utility.yul\":5419:5537   */\n    tag_261:\n        /* \"#utility.yul\":5506:5530   */\n      tag_339\n        /* \"#utility.yul\":5524:5529   */\n      dup2\n        /* \"#utility.yul\":5506:5530   */\n      tag_247\n      jump\t// in\n    tag_339:\n        /* \"#utility.yul\":5501:5504   */\n      dup3\n        /* \"#utility.yul\":5494:5531   */\n      mstore\n        /* \"#utility.yul\":5419:5537   */\n      pop\n      pop\n      jump\t// out\n        /* \"#utility.yul\":5543:5765   */\n    tag_44:\n        /* \"#utility.yul\":5636:5640   */\n      0x00\n        /* \"#utility.yul\":5674:5676   */\n      0x20\n        /* \"#utility.yul\":5663:5672   */\n      dup3\n        /* \"#utility.yul\":5659:5677   */\n      add\n        /* \"#utility.yul\":5651:5677   */\n      swap1\n      pop\n        /* \"#utility.yul\":5687:5758   */\n      tag_341\n        /* \"#utility.yul\":5755:5756   */\n      0x00\n        /* \"#utility.yul\":5744:5753   */\n      dup4\n        /* \"#utility.yul\":5740:5757   */\n      add\n        /* \"#utility.yul\":5731:5737   */\n      dup5\n        /* \"#utility.yul\":5687:5758   */\n      tag_261\n      jump\t// in\n    tag_341:\n        /* \"#utility.yul\":5543:5765   */\n      swap3\n      swap2\n      pop\n      pop\n      jump\t// out\n        /* \"#utility.yul\":5771:5914   */\n    tag_262:\n        /* \"#utility.yul\":5828:5833   */\n      0x00\n        /* \"#utility.yul\":5859:5865   */\n      dup2\n        /* \"#utility.yul\":5853:5866   */\n      mload\n        /* \"#utility.yul\":5844:5866   */\n      swap1\n      pop\n        /* \"#utility.yul\":5875:5908   */\n      tag_343\n        /* \"#utility.yul\":5902:5907   */\n      dup2\n        /* \"#utility.yul\":5875:5908   */\n      tag_244\n      jump\t// in\n    tag_343:\n        /* \"#utility.yul\":5771:5914   */\n      swap3\n      swap2\n      pop\n      pop\n      jump\t// out\n        /* \"#utility.yul\":5920:6271   */\n    tag_48:\n        /* \"#utility.yul\":5990:5996   */\n      0x00\n        /* \"#utility.yul\":6039:6041   */\n      0x20\n        /* \"#utility.yul\":6027:6036   */\n      dup3\n        /* \"#utility.yul\":6018:6025   */\n      dup5\n        /* \"#utility.yul\":6014:6037   */\n      sub\n        /* \"#utility.yul\":6010:6042   */\n      slt\n        /* \"#utility.yul\":6007:6126   */\n      iszero\n      tag_345\n      jumpi\n        /* \"#utility.yul\":6045:6124   */\n      tag_346\n      tag_241\n      jump\t// in\n    tag_346:\n        /* \"#utility.yul\":6007:6126   */\n    tag_345:\n        /* \"#utility.yul\":6165:6166   */\n      0x00\n        /* \"#utility.yul\":6190:6254   */\n      tag_347\n        /* \"#utility.yul\":6246:6253   */\n      dup5\n        /* \"#utility.yul\":6237:6243   */\n      dup3\n        /* \"#utility.yul\":6226:6235   */\n      dup6\n        /* \"#utility.yul\":6222:6244   */\n      add\n        /* \"#utility.yul\":6190:6254   */\n      tag_262\n      jump\t// in\n    tag_347:\n        /* \"#utility.yul\":6180:6254   */\n      swap2\n      pop\n        /* \"#utility.yul\":6136:6264   */\n      pop\n        /* \"#utility.yul\":5920:6271   */\n      swap3\n      swap2\n      pop\n      pop\n      jump\t// out\n        /* \"#utility.yul\":6277:6447   */\n    tag_263:\n        /* \"#utility.yul\":6417:6439   */\n      0x496e73756666696369656e742042616c616e6365000000000000000000000000\n        /* \"#utility.yul\":6413:6414   */\n      0x00\n        /* \"#utility.yul\":6405:6411   */\n      dup3\n        /* \"#utility.yul\":6401:6415   */\n      add\n        /* \"#utility.yul\":6394:6440   */\n      mstore\n        /* \"#utility.yul\":6277:6447   */\n      pop\n      jump\t// out\n        /* \"#utility.yul\":6453:6819   */\n    tag_264:\n        /* \"#utility.yul\":6595:6598   */\n      0x00\n        /* \"#utility.yul\":6616:6683   */\n      tag_350\n        /* \"#utility.yul\":6680:6682   */\n      0x14\n        /* \"#utility.yul\":6675:6678   */\n      dup4\n        /* \"#utility.yul\":6616:6683   */\n      tag_256\n      jump\t// in\n    tag_350:\n        /* \"#utility.yul\":6609:6683   */\n      swap2\n      pop\n        /* \"#utility.yul\":6692:6785   */\n      tag_351\n        /* \"#utility.yul\":6781:6784   */\n      dup3\n        /* \"#utility.yul\":6692:6785   */\n      tag_263\n      jump\t// in\n    tag_351:\n        /* \"#utility.yul\":6810:6812   */\n      0x20\n        /* \"#utility.yul\":6805:6808   */\n      dup3\n        /* \"#utility.yul\":6801:6813   */\n      add\n        /* \"#utility.yul\":6794:6813   */\n      swap1\n      pop\n        /* \"#utility.yul\":6453:6819   */\n      swap2\n      swap1\n      pop\n      jump\t// out\n        /* \"#utility.yul\":6825:7244   */\n    tag_51:\n        /* \"#utility.yul\":6991:6995   */\n      0x00\n        /* \"#utility.yul\":7029:7031   */\n      0x20\n        /* \"#utility.yul\":7018:7027   */\n      dup3\n        /* \"#utility.yul\":7014:7032   */\n      add\n        /* \"#utility.yul\":7006:7032   */\n      swap1\n      pop\n        /* \"#utility.yul\":7078:7087   */\n      dup2\n        /* \"#utility.yul\":7072:7076   */\n      dup2\n        /* \"#utility.yul\":7068:7088   */\n      sub\n        /* \"#utility.yul\":7064:7065   */\n      0x00\n        /* \"#utility.yul\":7053:7062   */\n      dup4\n        /* \"#utility.yul\":7049:7066   */\n      add\n        /* \"#utility.yul\":7042:7089   */\n      mstore\n        /* \"#utility.yul\":7106:7237   */\n      tag_353\n        /* \"#utility.yul\":7232:7236   */\n      dup2\n        /* \"#utility.yul\":7106:7237   */\n      tag_264\n      jump\t// in\n    tag_353:\n        /* \"#utility.yul\":7098:7237   */\n      swap1\n      pop\n        /* \"#utility.yul\":6825:7244   */\n      swap2\n      swap1\n      pop\n      jump\t// out\n        /* \"#utility.yul\":7250:7417   */\n    tag_265:\n        /* \"#utility.yul\":7390:7409   */\n      0x4e6f7420656e6f75676820746f6b656e42000000000000000000000000000000\n        /* \"#utility.yul\":7386:7387   */\n      0x00\n        /* \"#utility.yul\":7378:7384   */\n      dup3\n        /* \"#utility.yul\":7374:7388   */\n      add\n        /* \"#utility.yul\":7367:7410   */\n      mstore\n        /* \"#utility.yul\":7250:7417   */\n      pop\n      jump\t// out\n        /* \"#utility.yul\":7423:7789   */\n    tag_266:\n        /* \"#utility.yul\":7565:7568   */\n      0x00\n        /* \"#utility.yul\":7586:7653   */\n      tag_356\n        /* \"#utility.yul\":7650:7652   */\n      0x11\n        /* \"#utility.yul\":7645:7648   */\n      dup4\n        /* \"#utility.yul\":7586:7653   */\n      tag_256\n      jump\t// in\n    tag_356:\n        /* \"#utility.yul\":7579:7653   */\n      swap2\n      pop\n        /* \"#utility.yul\":7662:7755   */\n      tag_357\n        /* \"#utility.yul\":7751:7754   */\n      dup3\n        /* \"#utility.yul\":7662:7755   */\n      tag_265\n      jump\t// in\n    tag_357:\n        /* \"#utility.yul\":7780:7782   */\n      0x20\n        /* \"#utility.yul\":7775:7778   */\n      dup3\n        /* \"#utility.yul\":7771:7783   */\n      add\n        /* \"#utility.yul\":7764:7783   */\n      swap1\n      pop\n        /* \"#utility.yul\":7423:7789   */\n      swap2\n      swap1\n      pop\n      jump\t// out\n        /* \"#utility.yul\":7795:8214   */\n    tag_59:\n        /* \"#utility.yul\":7961:7965   */\n      0x00\n        /* \"#utility.yul\":7999:8001   */\n      0x20\n        /* \"#utility.yul\":7988:7997   */\n      dup3\n        /* \"#utility.yul\":7984:8002   */\n      add\n        /* \"#utility.yul\":7976:8002   */\n      swap1\n      pop\n        /* \"#utility.yul\":8048:8057   */\n      dup2\n        /* \"#utility.yul\":8042:8046   */\n      dup2\n        /* \"#utility.yul\":8038:8058   */\n      sub\n        /* \"#utility.yul\":8034:8035   */\n      0x00\n        /* \"#utility.yul\":8023:8032   */\n      dup4\n        /* \"#utility.yul\":8019:8036   */\n      add\n        /* \"#utility.yul\":8012:8059   */\n      mstore\n        /* \"#utility.yul\":8076:8207   */\n      tag_359\n        /* \"#utility.yul\":8202:8206   */\n      dup2\n        /* \"#utility.yul\":8076:8207   */\n      tag_266\n      jump\t// in\n    tag_359:\n        /* \"#utility.yul\":8068:8207   */\n      swap1\n      pop\n        /* \"#utility.yul\":7795:8214   */\n      swap2\n      swap1\n      pop\n      jump\t// out\n        /* \"#utility.yul\":8220:8338   */\n    tag_267:\n        /* \"#utility.yul\":8307:8331   */\n      tag_361\n        /* \"#utility.yul\":8325:8330   */\n      dup2\n        /* \"#utility.yul\":8307:8331   */\n      tag_243\n      jump\t// in\n    tag_361:\n        /* \"#utility.yul\":8302:8305   */\n      dup3\n        /* \"#utility.yul\":8295:8332   */\n      mstore\n        /* \"#utility.yul\":8220:8338   */\n      pop\n      pop\n      jump\t// out\n        /* \"#utility.yul\":8344:8786   */\n    tag_61:\n        /* \"#utility.yul\":8493:8497   */\n      0x00\n        /* \"#utility.yul\":8531:8533   */\n      0x60\n        /* \"#utility.yul\":8520:8529   */\n      dup3\n        /* \"#utility.yul\":8516:8534   */\n      add\n        /* \"#utility.yul\":8508:8534   */\n      swap1\n      pop\n        /* \"#utility.yul\":8544:8615   */\n      tag_363\n        /* \"#utility.yul\":8612:8613   */\n      0x00\n        /* \"#utility.yul\":8601:8610   */\n      dup4\n        /* \"#utility.yul\":8597:8614   */\n      add\n        /* \"#utility.yul\":8588:8594   */\n      dup7\n        /* \"#utility.yul\":8544:8615   */\n      tag_261\n      jump\t// in\n    tag_363:\n        /* \"#utility.yul\":8625:8697   */\n      tag_364\n        /* \"#utility.yul\":8693:8695   */\n      0x20\n        /* \"#utility.yul\":8682:8691   */\n      dup4\n        /* \"#utility.yul\":8678:8696   */\n      add\n        /* \"#utility.yul\":8669:8675   */\n      dup6\n        /* \"#utility.yul\":8625:8697   */\n      tag_261\n      jump\t// in\n    tag_364:\n        /* \"#utility.yul\":8707:8779   */\n      tag_365\n        /* \"#utility.yul\":8775:8777   */\n      0x40\n        /* \"#utility.yul\":8764:8773   */\n      dup4\n        /* \"#utility.yul\":8760:8778   */\n      add\n        /* \"#utility.yul\":8751:8757   */\n      dup5\n        /* \"#utility.yul\":8707:8779   */\n      tag_267\n      jump\t// in\n    tag_365:\n        /* \"#utility.yul\":8344:8786   */\n      swap5\n      swap4\n      pop\n      pop\n      pop\n      pop\n      jump\t// out\n        /* \"#utility.yul\":8792:8882   */\n    tag_268:\n        /* \"#utility.yul\":8826:8833   */\n      0x00\n        /* \"#utility.yul\":8869:8874   */\n      dup2\n        /* \"#utility.yul\":8862:8875   */\n      iszero\n        /* \"#utility.yul\":8855:8876   */\n      iszero\n        /* \"#utility.yul\":8844:8876   */\n      swap1\n      pop\n        /* \"#utility.yul\":8792:8882   */\n      swap2\n      swap1\n      pop\n      jump\t// out\n        /* \"#utility.yul\":8888:9004   */\n    tag_269:\n        /* \"#utility.yul\":8958:8979   */\n      tag_368\n        /* \"#utility.yul\":8973:8978   */\n      dup2\n        /* \"#utility.yul\":8958:8979   */\n      tag_268\n      jump\t// in\n    tag_368:\n        /* \"#utility.yul\":8951:8956   */\n      dup2\n        /* \"#utility.yul\":8948:8980   */\n      eq\n        /* \"#utility.yul\":8938:8998   */\n      tag_369\n      jumpi\n        /* \"#utility.yul\":8994:8995   */\n      0x00\n        /* \"#utility.yul\":8991:8992   */\n      0x00\n        /* \"#utility.yul\":8984:8996   */\n      revert\n        /* \"#utility.yul\":8938:8998   */\n    tag_369:\n        /* \"#utility.yul\":8888:9004   */\n      pop\n      jump\t// out\n        /* \"#utility.yul\":9010:9147   */\n    tag_270:\n        /* \"#utility.yul\":9064:9069   */\n      0x00\n        /* \"#utility.yul\":9095:9101   */\n      dup2\n        /* \"#utility.yul\":9089:9102   */\n      mload\n        /* \"#utility.yul\":9080:9102   */\n      swap1\n      pop\n        /* \"#utility.yul\":9111:9141   */\n      tag_371\n        /* \"#utility.yul\":9135:9140   */\n      dup2\n        /* \"#utility.yul\":9111:9141   */\n      tag_269\n      jump\t// in\n    tag_371:\n        /* \"#utility.yul\":9010:9147   */\n      swap3\n      swap2\n      pop\n      pop\n      jump\t// out\n        /* \"#utility.yul\":9153:9498   */\n    tag_65:\n        /* \"#utility.yul\":9220:9226   */\n      0x00\n        /* \"#utility.yul\":9269:9271   */\n      0x20\n        /* \"#utility.yul\":9257:9266   */\n      dup3\n        /* \"#utility.yul\":9248:9255   */\n      dup5\n        /* \"#utility.yul\":9244:9267   */\n      sub\n        /* \"#utility.yul\":9240:9272   */\n      slt\n        /* \"#utility.yul\":9237:9356   */\n      iszero\n      tag_373\n      jumpi\n        /* \"#utility.yul\":9275:9354   */\n      tag_374\n      tag_241\n      jump\t// in\n    tag_374:\n        /* \"#utility.yul\":9237:9356   */\n    tag_373:\n        /* \"#utility.yul\":9395:9396   */\n      0x00\n        /* \"#utility.yul\":9420:9481   */\n      tag_375\n        /* \"#utility.yul\":9473:9480   */\n      dup5\n        /* \"#utility.yul\":9464:9470   */\n      dup3\n        /* \"#utility.yul\":9453:9462   */\n      dup6\n        /* \"#utility.yul\":9449:9471   */\n      add\n        /* \"#utility.yul\":9420:9481   */\n      tag_270\n      jump\t// in\n    tag_375:\n        /* \"#utility.yul\":9410:9481   */\n      swap2\n      pop\n        /* \"#utility.yul\":9366:9491   */\n      pop\n        /* \"#utility.yul\":9153:9498   */\n      swap3\n      swap2\n      pop\n      pop\n      jump\t// out\n        /* \"#utility.yul\":9504:9836   */\n    tag_67:\n        /* \"#utility.yul\":9625:9629   */\n      0x00\n        /* \"#utility.yul\":9663:9665   */\n      0x40\n        /* \"#utility.yul\":9652:9661   */\n      dup3\n        /* \"#utility.yul\":9648:9666   */\n      add\n        /* \"#utility.yul\":9640:9666   */\n      swap1\n      pop\n        /* \"#utility.yul\":9676:9747   */\n      tag_377\n        /* \"#utility.yul\":9744:9745   */\n      0x00\n        /* \"#utility.yul\":9733:9742   */\n      dup4\n        /* \"#utility.yul\":9729:9746   */\n      add\n        /* \"#utility.yul\":9720:9726   */\n      dup6\n        /* \"#utility.yul\":9676:9747   */\n      tag_261\n      jump\t// in\n    tag_377:\n        /* \"#utility.yul\":9757:9829   */\n      tag_378\n        /* \"#utility.yul\":9825:9827   */\n      0x20\n        /* \"#utility.yul\":9814:9823   */\n      dup4\n        /* \"#utility.yul\":9810:9828   */\n      add\n        /* \"#utility.yul\":9801:9807   */\n      dup5\n        /* \"#utility.yul\":9757:9829   */\n      tag_267\n      jump\t// in\n    tag_378:\n        /* \"#utility.yul\":9504:9836   */\n      swap4\n      swap3\n      pop\n      pop\n      pop\n      jump\t// out\n        /* \"#utility.yul\":9842:10009   */\n    tag_271:\n        /* \"#utility.yul\":9982:10001   */\n      0x496e76616c6964205f646563696d616c73000000000000000000000000000000\n        /* \"#utility.yul\":9978:9979   */\n      0x00\n        /* \"#utility.yul\":9970:9976   */\n      dup3\n        /* \"#utility.yul\":9966:9980   */\n      add\n        /* \"#utility.yul\":9959:10002   */\n      mstore\n        /* \"#utility.yul\":9842:10009   */\n      pop\n      jump\t// out\n        /* \"#utility.yul\":10015:10381   */\n    tag_272:\n        /* \"#utility.yul\":10157:10160   */\n      0x00\n        /* \"#utility.yul\":10178:10245   */\n      tag_381\n        /* \"#utility.yul\":10242:10244   */\n      0x11\n        /* \"#utility.yul\":10237:10240   */\n      dup4\n        /* \"#utility.yul\":10178:10245   */\n      tag_256\n      jump\t// in\n    tag_381:\n        /* \"#utility.yul\":10171:10245   */\n      swap2\n      pop\n        /* \"#utility.yul\":10254:10347   */\n      tag_382\n        /* \"#utility.yul\":10343:10346   */\n      dup3\n        /* \"#utility.yul\":10254:10347   */\n      tag_271\n      jump\t// in\n    tag_382:\n        /* \"#utility.yul\":10372:10374   */\n      0x20\n        /* \"#utility.yul\":10367:10370   */\n      dup3\n        /* \"#utility.yul\":10363:10375   */\n      add\n        /* \"#utility.yul\":10356:10375   */\n      swap1\n      pop\n        /* \"#utility.yul\":10015:10381   */\n      swap2\n      swap1\n      pop\n      jump\t// out\n        /* \"#utility.yul\":10387:10806   */\n    tag_205:\n        /* \"#utility.yul\":10553:10557   */\n      0x00\n        /* \"#utility.yul\":10591:10593   */\n      0x20\n        /* \"#utility.yul\":10580:10589   */\n      dup3\n        /* \"#utility.yul\":10576:10594   */\n      add\n        /* \"#utility.yul\":10568:10594   */\n      swap1\n      pop\n        /* \"#utility.yul\":10640:10649   */\n      dup2\n        /* \"#utility.yul\":10634:10638   */\n      dup2\n        /* \"#utility.yul\":10630:10650   */\n      sub\n        /* \"#utility.yul\":10626:10627   */\n      0x00\n        /* \"#utility.yul\":10615:10624   */\n      dup4\n        /* \"#utility.yul\":10611:10628   */\n      add\n        /* \"#utility.yul\":10604:10651   */\n      mstore\n        /* \"#utility.yul\":10668:10799   */\n      tag_384\n        /* \"#utility.yul\":10794:10798   */\n      dup2\n        /* \"#utility.yul\":10668:10799   */\n      tag_272\n      jump\t// in\n    tag_384:\n        /* \"#utility.yul\":10660:10799   */\n      swap1\n      pop\n        /* \"#utility.yul\":10387:10806   */\n      swap2\n      swap1\n      pop\n      jump\t// out\n        /* \"#utility.yul\":10812:10992   */\n    tag_273:\n        /* \"#utility.yul\":10860:10937   */\n      0x4e487b7100000000000000000000000000000000000000000000000000000000\n        /* \"#utility.yul\":10857:10858   */\n      0x00\n        /* \"#utility.yul\":10850:10938   */\n      mstore\n        /* \"#utility.yul\":10957:10961   */\n      0x11\n        /* \"#utility.yul\":10954:10955   */\n      0x04\n        /* \"#utility.yul\":10947:10962   */\n      mstore\n        /* \"#utility.yul\":10981:10985   */\n      0x24\n        /* \"#utility.yul\":10978:10979   */\n      0x00\n        /* \"#utility.yul\":10971:10986   */\n      revert\n        /* \"#utility.yul\":10998:11100   */\n    tag_274:\n        /* \"#utility.yul\":11040:11048   */\n      0x00\n        /* \"#utility.yul\":11087:11092   */\n      dup2\n        /* \"#utility.yul\":11084:11085   */\n      0x01\n        /* \"#utility.yul\":11080:11093   */\n      shr\n        /* \"#utility.yul\":11059:11093   */\n      swap1\n      pop\n        /* \"#utility.yul\":10998:11100   */\n      swap2\n      swap1\n      pop\n      jump\t// out\n        /* \"#utility.yul\":11106:11954   */\n    tag_275:\n        /* \"#utility.yul\":11167:11172   */\n      0x00\n        /* \"#utility.yul\":11174:11178   */\n      0x00\n        /* \"#utility.yul\":11198:11204   */\n      dup3\n        /* \"#utility.yul\":11189:11204   */\n      swap2\n      pop\n        /* \"#utility.yul\":11222:11227   */\n      dup4\n        /* \"#utility.yul\":11213:11227   */\n      swap1\n      pop\n        /* \"#utility.yul\":11236:11948   */\n    tag_388:\n        /* \"#utility.yul\":11257:11258   */\n      0x01\n        /* \"#utility.yul\":11247:11255   */\n      dup6\n        /* \"#utility.yul\":11244:11259   */\n      gt\n        /* \"#utility.yul\":11236:11948   */\n      iszero\n      tag_390\n      jumpi\n        /* \"#utility.yul\":11352:11356   */\n      dup1\n        /* \"#utility.yul\":11347:11350   */\n      dup7\n        /* \"#utility.yul\":11343:11357   */\n      div\n        /* \"#utility.yul\":11337:11341   */\n      dup2\n        /* \"#utility.yul\":11334:11358   */\n      gt\n        /* \"#utility.yul\":11331:11381   */\n      iszero\n      tag_391\n      jumpi\n        /* \"#utility.yul\":11361:11379   */\n      tag_392\n      tag_273\n      jump\t// in\n    tag_392:\n        /* \"#utility.yul\":11331:11381   */\n    tag_391:\n        /* \"#utility.yul\":11411:11412   */\n      0x01\n        /* \"#utility.yul\":11401:11409   */\n      dup6\n        /* \"#utility.yul\":11397:11413   */\n      and\n        /* \"#utility.yul\":11394:11845   */\n      iszero\n      tag_393\n      jumpi\n        /* \"#utility.yul\":11826:11830   */\n      dup1\n        /* \"#utility.yul\":11819:11824   */\n      dup3\n        /* \"#utility.yul\":11815:11831   */\n      mul\n        /* \"#utility.yul\":11806:11831   */\n      swap2\n      pop\n        /* \"#utility.yul\":11394:11845   */\n    tag_393:\n        /* \"#utility.yul\":11876:11880   */\n      dup1\n        /* \"#utility.yul\":11870:11874   */\n      dup2\n        /* \"#utility.yul\":11866:11881   */\n      mul\n        /* \"#utility.yul\":11858:11881   */\n      swap1\n      pop\n        /* \"#utility.yul\":11906:11938   */\n      tag_394\n        /* \"#utility.yul\":11929:11937   */\n      dup6\n        /* \"#utility.yul\":11906:11938   */\n      tag_274\n      jump\t// in\n    tag_394:\n        /* \"#utility.yul\":11894:11938   */\n      swap5\n      pop\n        /* \"#utility.yul\":11236:11948   */\n      jump(tag_388)\n    tag_390:\n        /* \"#utility.yul\":11106:11954   */\n      swap5\n      pop\n      swap5\n      swap3\n      pop\n      pop\n      pop\n      jump\t// out\n        /* \"#utility.yul\":11960:13033   */\n    tag_276:\n        /* \"#utility.yul\":12014:12019   */\n      0x00\n        /* \"#utility.yul\":12205:12213   */\n      dup3\n        /* \"#utility.yul\":12195:12235   */\n      tag_396\n      jumpi\n        /* \"#utility.yul\":12226:12227   */\n      0x01\n        /* \"#utility.yul\":12217:12227   */\n      swap1\n      pop\n        /* \"#utility.yul\":12228:12233   */\n      jump(tag_395)\n        /* \"#utility.yul\":12195:12235   */\n    tag_396:\n        /* \"#utility.yul\":12254:12258   */\n      dup2\n        /* \"#utility.yul\":12244:12280   */\n      tag_397\n      jumpi\n        /* \"#utility.yul\":12271:12272   */\n      0x00\n        /* \"#utility.yul\":12262:12272   */\n      swap1\n      pop\n        /* \"#utility.yul\":12273:12278   */\n      jump(tag_395)\n        /* \"#utility.yul\":12244:12280   */\n    tag_397:\n        /* \"#utility.yul\":12340:12344   */\n      dup2\n        /* \"#utility.yul\":12388:12389   */\n      0x01\n        /* \"#utility.yul\":12383:12410   */\n      dup2\n      eq\n      tag_399\n      jumpi\n        /* \"#utility.yul\":12424:12425   */\n      0x02\n        /* \"#utility.yul\":12419:12610   */\n      dup2\n      eq\n      tag_400\n      jumpi\n        /* \"#utility.yul\":12333:12610   */\n      jump(tag_398)\n        /* \"#utility.yul\":12383:12410   */\n    tag_399:\n        /* \"#utility.yul\":12401:12402   */\n      0x01\n        /* \"#utility.yul\":12392:12402   */\n      swap2\n      pop\n        /* \"#utility.yul\":12403:12408   */\n      pop\n      jump(tag_395)\n        /* \"#utility.yul\":12419:12610   */\n    tag_400:\n        /* \"#utility.yul\":12464:12467   */\n      0xff\n        /* \"#utility.yul\":12454:12462   */\n      dup5\n        /* \"#utility.yul\":12451:12468   */\n      gt\n        /* \"#utility.yul\":12448:12491   */\n      iszero\n      tag_401\n      jumpi\n        /* \"#utility.yul\":12471:12489   */\n      tag_402\n      tag_273\n      jump\t// in\n    tag_402:\n        /* \"#utility.yul\":12448:12491   */\n    tag_401:\n        /* \"#utility.yul\":12520:12528   */\n      dup4\n        /* \"#utility.yul\":12517:12518   */\n      0x02\n        /* \"#utility.yul\":12513:12529   */\n      exp\n        /* \"#utility.yul\":12504:12529   */\n      swap2\n      pop\n        /* \"#utility.yul\":12555:12558   */\n      dup5\n        /* \"#utility.yul\":12548:12553   */\n      dup3\n        /* \"#utility.yul\":12545:12559   */\n      gt\n        /* \"#utility.yul\":12542:12582   */\n      iszero\n      tag_403\n      jumpi\n        /* \"#utility.yul\":12562:12580   */\n      tag_404\n      tag_273\n      jump\t// in\n    tag_404:\n        /* \"#utility.yul\":12542:12582   */\n    tag_403:\n        /* \"#utility.yul\":12595:12600   */\n      pop\n      jump(tag_395)\n        /* \"#utility.yul\":12333:12610   */\n    tag_398:\n      pop\n        /* \"#utility.yul\":12719:12721   */\n      0x20\n        /* \"#utility.yul\":12709:12717   */\n      dup4\n        /* \"#utility.yul\":12706:12722   */\n      lt\n        /* \"#utility.yul\":12700:12703   */\n      0x0133\n        /* \"#utility.yul\":12694:12698   */\n      dup4\n        /* \"#utility.yul\":12691:12704   */\n      lt\n        /* \"#utility.yul\":12687:12723   */\n      and\n        /* \"#utility.yul\":12669:12671   */\n      0x4e\n        /* \"#utility.yul\":12659:12667   */\n      dup5\n        /* \"#utility.yul\":12656:12672   */\n      lt\n        /* \"#utility.yul\":12651:12653   */\n      0x0b\n        /* \"#utility.yul\":12645:12649   */\n      dup5\n        /* \"#utility.yul\":12642:12654   */\n      lt\n        /* \"#utility.yul\":12638:12673   */\n      and\n        /* \"#utility.yul\":12622:12733   */\n      or\n        /* \"#utility.yul\":12619:12865   */\n      iszero\n      tag_405\n      jumpi\n        /* \"#utility.yul\":12775:12783   */\n      dup3\n        /* \"#utility.yul\":12769:12773   */\n      dup3\n        /* \"#utility.yul\":12765:12784   */\n      exp\n        /* \"#utility.yul\":12756:12784   */\n      swap1\n      pop\n        /* \"#utility.yul\":12810:12813   */\n      dup4\n        /* \"#utility.yul\":12803:12808   */\n      dup2\n        /* \"#utility.yul\":12800:12814   */\n      gt\n        /* \"#utility.yul\":12797:12837   */\n      iszero\n      tag_406\n      jumpi\n        /* \"#utility.yul\":12817:12835   */\n      tag_407\n      tag_273\n      jump\t// in\n    tag_407:\n        /* \"#utility.yul\":12797:12837   */\n    tag_406:\n        /* \"#utility.yul\":12850:12855   */\n      jump(tag_395)\n        /* \"#utility.yul\":12619:12865   */\n    tag_405:\n        /* \"#utility.yul\":12890:12932   */\n      tag_408\n        /* \"#utility.yul\":12928:12931   */\n      dup5\n        /* \"#utility.yul\":12918:12926   */\n      dup5\n        /* \"#utility.yul\":12912:12916   */\n      dup5\n        /* \"#utility.yul\":12909:12910   */\n      0x01\n        /* \"#utility.yul\":12890:12932   */\n      tag_275\n      jump\t// in\n    tag_408:\n        /* \"#utility.yul\":12875:12932   */\n      swap3\n      pop\n      swap1\n      pop\n        /* \"#utility.yul\":12964:12968   */\n      dup2\n        /* \"#utility.yul\":12959:12962   */\n      dup5\n        /* \"#utility.yul\":12955:12969   */\n      div\n        /* \"#utility.yul\":12948:12953   */\n      dup2\n        /* \"#utility.yul\":12945:12970   */\n      gt\n        /* \"#utility.yul\":12942:12993   */\n      iszero\n      tag_409\n      jumpi\n        /* \"#utility.yul\":12973:12991   */\n      tag_410\n      tag_273\n      jump\t// in\n    tag_410:\n        /* \"#utility.yul\":12942:12993   */\n    tag_409:\n        /* \"#utility.yul\":13022:13026   */\n      dup2\n        /* \"#utility.yul\":13015:13020   */\n      dup2\n        /* \"#utility.yul\":13011:13027   */\n      mul\n        /* \"#utility.yul\":13002:13027   */\n      swap1\n      pop\n        /* \"#utility.yul\":11960:13033   */\n    tag_395:\n      swap4\n      swap3\n      pop\n      pop\n      pop\n      jump\t// out\n        /* \"#utility.yul\":13039:13324   */\n    tag_207:\n        /* \"#utility.yul\":13099:13104   */\n      0x00\n        /* \"#utility.yul\":13123:13146   */\n      tag_412\n        /* \"#utility.yul\":13141:13145   */\n      dup3\n        /* \"#utility.yul\":13123:13146   */\n      tag_243\n      jump\t// in\n    tag_412:\n        /* \"#utility.yul\":13115:13146   */\n      swap2\n      pop\n        /* \"#utility.yul\":13167:13194   */\n      tag_413\n        /* \"#utility.yul\":13185:13193   */\n      dup4\n        /* \"#utility.yul\":13167:13194   */\n      tag_243\n      jump\t// in\n    tag_413:\n        /* \"#utility.yul\":13155:13194   */\n      swap3\n      pop\n        /* \"#utility.yul\":13213:13317   */\n      tag_414\n        /* \"#utility.yul\":13250:13316   */\n      0xffffffffffffffffffffffffffffffffffffffffffffffffffffffffffffffff\n        /* \"#utility.yul\":13240:13248   */\n      dup5\n        /* \"#utility.yul\":13234:13238   */\n      dup5\n        /* \"#utility.yul\":13213:13317   */\n      tag_276\n      jump\t// in\n    tag_414:\n        /* \"#utility.yul\":13204:13317   */\n      swap1\n      pop\n        /* \"#utility.yul\":13039:13324   */\n      swap3\n      swap2\n      pop\n      pop\n      jump\t// out\n        /* \"#utility.yul\":13330:13435   */\n    tag_277:\n        /* \"#utility.yul\":13366:13373   */\n      0x00\n        /* \"#utility.yul\":13406:13428   */\n      0xffffffffffffffffffff\n        /* \"#utility.yul\":13399:13404   */\n      dup3\n        /* \"#utility.yul\":13395:13429   */\n      and\n        /* \"#utility.yul\":13384:13429   */\n      swap1\n      pop\n        /* \"#utility.yul\":13330:13435   */\n      swap2\n      swap1\n      pop\n      jump\t// out\n        /* \"#utility.yul\":13441:13561   */\n    tag_278:\n        /* \"#utility.yul\":13513:13536   */\n      tag_417\n        /* \"#utility.yul\":13530:13535   */\n      dup2\n        /* \"#utility.yul\":13513:13536   */\n      tag_277\n      jump\t// in\n    tag_417:\n        /* \"#utility.yul\":13506:13511   */\n      dup2\n        /* \"#utility.yul\":13503:13537   */\n      eq\n        /* \"#utility.yul\":13493:13555   */\n      tag_418\n      jumpi\n        /* \"#utility.yul\":13551:13552   */\n      0x00\n        /* \"#utility.yul\":13548:13549   */\n      0x00\n        /* \"#utility.yul\":13541:13553   */\n      revert\n        /* \"#utility.yul\":13493:13555   */\n    tag_418:\n        /* \"#utility.yul\":13441:13561   */\n      pop\n      jump\t// out\n        /* \"#utility.yul\":13567:13708   */\n    tag_279:\n        /* \"#utility.yul\":13623:13628   */\n      0x00\n        /* \"#utility.yul\":13654:13660   */\n      dup2\n        /* \"#utility.yul\":13648:13661   */\n      mload\n        /* \"#utility.yul\":13639:13661   */\n      swap1\n      pop\n        /* \"#utility.yul\":13670:13702   */\n      tag_420\n        /* \"#utility.yul\":13696:13701   */\n      dup2\n        /* \"#utility.yul\":13670:13702   */\n      tag_278\n      jump\t// in\n    tag_420:\n        /* \"#utility.yul\":13567:13708   */\n      swap3\n      swap2\n      pop\n      pop\n      jump\t// out\n        /* \"#utility.yul\":13714:13834   */\n    tag_280:\n        /* \"#utility.yul\":13786:13809   */\n      tag_422\n        /* \"#utility.yul\":13803:13808   */\n      dup2\n        /* \"#utility.yul\":13786:13809   */\n      tag_254\n      jump\t// in\n    tag_422:\n        /* \"#utility.yul\":13779:13784   */\n      dup2\n        /* \"#utility.yul\":13776:13810   */\n      eq\n        /* \"#utility.yul\":13766:13828   */\n      tag_423\n      jumpi\n        /* \"#utility.yul\":13824:13825   */\n      0x00\n        /* \"#utility.yul\":13821:13822   */\n      0x00\n        /* \"#utility.yul\":13814:13826   */\n      revert\n        /* \"#utility.yul\":13766:13828   */\n    tag_423:\n        /* \"#utility.yul\":13714:13834   */\n      pop\n      jump\t// out\n        /* \"#utility.yul\":13840:13981   */\n    tag_281:\n        /* \"#utility.yul\":13896:13901   */\n      0x00\n        /* \"#utility.yul\":13927:13933   */\n      dup2\n        /* \"#utility.yul\":13921:13934   */\n      mload\n        /* \"#utility.yul\":13912:13934   */\n      swap1\n      pop\n        /* \"#utility.yul\":13943:13975   */\n      tag_425\n        /* \"#utility.yul\":13969:13974   */\n      dup2\n        /* \"#utility.yul\":13943:13975   */\n      tag_280\n      jump\t// in\n    tag_425:\n        /* \"#utility.yul\":13840:13981   */\n      swap3\n      swap2\n      pop\n      pop\n      jump\t// out\n        /* \"#utility.yul\":13987:14958   */\n    tag_211:\n        /* \"#utility.yul\":14090:14096   */\n      0x00\n        /* \"#utility.yul\":14098:14104   */\n      0x00\n        /* \"#utility.yul\":14106:14112   */\n      0x00\n        /* \"#utility.yul\":14114:14120   */\n      0x00\n        /* \"#utility.yul\":14122:14128   */\n      0x00\n        /* \"#utility.yul\":14171:14174   */\n      0xa0\n        /* \"#utility.yul\":14159:14168   */\n      dup7\n        /* \"#utility.yul\":14150:14157   */\n      dup9\n        /* \"#utility.yul\":14146:14169   */\n      sub\n        /* \"#utility.yul\":14142:14175   */\n      slt\n        /* \"#utility.yul\":14139:14259   */\n      iszero\n      tag_427\n      jumpi\n        /* \"#utility.yul\":14178:14257   */\n      tag_428\n      tag_241\n      jump\t// in\n    tag_428:\n        /* \"#utility.yul\":14139:14259   */\n    tag_427:\n        /* \"#utility.yul\":14298:14299   */\n      0x00\n        /* \"#utility.yul\":14323:14386   */\n      tag_429\n        /* \"#utility.yul\":14378:14385   */\n      dup9\n        /* \"#utility.yul\":14369:14375   */\n      dup3\n        /* \"#utility.yul\":14358:14367   */\n      dup10\n        /* \"#utility.yul\":14354:14376   */\n      add\n        /* \"#utility.yul\":14323:14386   */\n      tag_279\n      jump\t// in\n    tag_429:\n        /* \"#utility.yul\":14313:14386   */\n      swap6\n      pop\n        /* \"#utility.yul\":14269:14396   */\n      pop\n        /* \"#utility.yul\":14435:14437   */\n      0x20\n        /* \"#utility.yul\":14461:14524   */\n      tag_430\n        /* \"#utility.yul\":14516:14523   */\n      dup9\n        /* \"#utility.yul\":14507:14513   */\n      dup3\n        /* \"#utility.yul\":14496:14505   */\n      dup10\n        /* \"#utility.yul\":14492:14514   */\n      add\n        /* \"#utility.yul\":14461:14524   */\n      tag_281\n      jump\t// in\n    tag_430:\n        /* \"#utility.yul\":14451:14524   */\n      swap5\n      pop\n        /* \"#utility.yul\":14406:14534   */\n      pop\n        /* \"#utility.yul\":14573:14575   */\n      0x40\n        /* \"#utility.yul\":14599:14663   */\n      tag_431\n        /* \"#utility.yul\":14655:14662   */\n      dup9\n        /* \"#utility.yul\":14646:14652   */\n      dup3\n        /* \"#utility.yul\":14635:14644   */\n      dup10\n        /* \"#utility.yul\":14631:14653   */\n      add\n        /* \"#utility.yul\":14599:14663   */\n      tag_262\n      jump\t// in\n    tag_431:\n        /* \"#utility.yul\":14589:14663   */\n      swap4\n      pop\n        /* \"#utility.yul\":14544:14673   */\n      pop\n        /* \"#utility.yul\":14712:14714   */\n      0x60\n        /* \"#utility.yul\":14738:14802   */\n      tag_432\n        /* \"#utility.yul\":14794:14801   */\n      dup9\n        /* \"#utility.yul\":14785:14791   */\n      dup3\n        /* \"#utility.yul\":14774:14783   */\n      dup10\n        /* \"#utility.yul\":14770:14792   */\n      add\n        /* \"#utility.yul\":14738:14802   */\n      tag_262\n      jump\t// in\n    tag_432:\n        /* \"#utility.yul\":14728:14802   */\n      swap3\n      pop\n        /* \"#utility.yul\":14683:14812   */\n      pop\n        /* \"#utility.yul\":14851:14854   */\n      0x80\n        /* \"#utility.yul\":14878:14941   */\n      tag_433\n        /* \"#utility.yul\":14933:14940   */\n      dup9\n        /* \"#utility.yul\":14924:14930   */\n      dup3\n        /* \"#utility.yul\":14913:14922   */\n      dup10\n        /* \"#utility.yul\":14909:14931   */\n      add\n        /* \"#utility.yul\":14878:14941   */\n      tag_279\n      jump\t// in\n    tag_433:\n        /* \"#utility.yul\":14868:14941   */\n      swap2\n      pop\n        /* \"#utility.yul\":14822:14951   */\n      pop\n        /* \"#utility.yul\":13987:14958   */\n      swap3\n      swap6\n      pop\n      swap3\n      swap6\n      swap1\n      swap4\n      pop\n      jump\t// out\n        /* \"#utility.yul\":14964:15103   */\n    tag_282:\n        /* \"#utility.yul\":15019:15024   */\n      0x00\n        /* \"#utility.yul\":15050:15056   */\n      dup2\n        /* \"#utility.yul\":15044:15057   */\n      mload\n        /* \"#utility.yul\":15035:15057   */\n      swap1\n      pop\n        /* \"#utility.yul\":15066:15097   */\n      tag_435\n        /* \"#utility.yul\":15091:15096   */\n      dup2\n        /* \"#utility.yul\":15066:15097   */\n      tag_252\n      jump\t// in\n    tag_435:\n        /* \"#utility.yul\":14964:15103   */\n      swap3\n      swap2\n      pop\n      pop\n      jump\t// out\n        /* \"#utility.yul\":15109:15456   */\n    tag_215:\n        /* \"#utility.yul\":15177:15183   */\n      0x00\n        /* \"#utility.yul\":15226:15228   */\n      0x20\n        /* \"#utility.yul\":15214:15223   */\n      dup3\n        /* \"#utility.yul\":15205:15212   */\n      dup5\n        /* \"#utility.yul\":15201:15224   */\n      sub\n        /* \"#utility.yul\":15197:15229   */\n      slt\n        /* \"#utility.yul\":15194:15313   */\n      iszero\n      tag_437\n      jumpi\n        /* \"#utility.yul\":15232:15311   */\n      tag_438\n      tag_241\n      jump\t// in\n    tag_438:\n        /* \"#utility.yul\":15194:15313   */\n    tag_437:\n        /* \"#utility.yul\":15352:15353   */\n      0x00\n        /* \"#utility.yul\":15377:15439   */\n      tag_439\n        /* \"#utility.yul\":15431:15438   */\n      dup5\n        /* \"#utility.yul\":15422:15428   */\n      dup3\n        /* \"#utility.yul\":15411:15420   */\n      dup6\n        /* \"#utility.yul\":15407:15429   */\n      add\n        /* \"#utility.yul\":15377:15439   */\n      tag_282\n      jump\t// in\n    tag_439:\n        /* \"#utility.yul\":15367:15439   */\n      swap2\n      pop\n        /* \"#utility.yul\":15323:15449   */\n      pop\n        /* \"#utility.yul\":15109:15456   */\n      swap3\n      swap2\n      pop\n      pop\n      jump\t// out\n        /* \"#utility.yul\":15462:16018   */\n    tag_226:\n        /* \"#utility.yul\":15501:15508   */\n      0x00\n        /* \"#utility.yul\":15524:15543   */\n      tag_441\n        /* \"#utility.yul\":15541:15542   */\n      dup3\n        /* \"#utility.yul\":15524:15543   */\n      tag_254\n      jump\t// in\n    tag_441:\n        /* \"#utility.yul\":15519:15543   */\n      swap2\n      pop\n        /* \"#utility.yul\":15557:15576   */\n      tag_442\n        /* \"#utility.yul\":15574:15575   */\n      dup4\n        /* \"#utility.yul\":15557:15576   */\n      tag_254\n      jump\t// in\n    tag_442:\n        /* \"#utility.yul\":15552:15576   */\n      swap3\n      pop\n        /* \"#utility.yul\":15611:15612   */\n      dup3\n        /* \"#utility.yul\":15608:15609   */\n      dup3\n        /* \"#utility.yul\":15604:15613   */\n      mul\n        /* \"#utility.yul\":15633:15662   */\n      tag_443\n        /* \"#utility.yul\":15650:15661   */\n      dup2\n        /* \"#utility.yul\":15633:15662   */\n      tag_254\n      jump\t// in\n    tag_443:\n        /* \"#utility.yul\":15622:15662   */\n      swap2\n      pop\n        /* \"#utility.yul\":15720:15786   */\n      0x8000000000000000000000000000000000000000000000000000000000000000\n        /* \"#utility.yul\":15717:15718   */\n      dup5\n        /* \"#utility.yul\":15714:15787   */\n      eq\n        /* \"#utility.yul\":15710:15711   */\n      0x00\n        /* \"#utility.yul\":15707:15708   */\n      dup5\n        /* \"#utility.yul\":15703:15712   */\n      slt\n        /* \"#utility.yul\":15699:15788   */\n      and\n        /* \"#utility.yul\":15696:15811   */\n      iszero\n      tag_444\n      jumpi\n        /* \"#utility.yul\":15791:15809   */\n      tag_445\n      tag_273\n      jump\t// in\n    tag_445:\n        /* \"#utility.yul\":15696:15811   */\n    tag_444:\n        /* \"#utility.yul\":15961:15962   */\n      dup3\n        /* \"#utility.yul\":15952:15959   */\n      dup3\n        /* \"#utility.yul\":15947:15963   */\n      sdiv\n        /* \"#utility.yul\":15944:15945   */\n      dup5\n        /* \"#utility.yul\":15941:15964   */\n      eq\n        /* \"#utility.yul\":15921:15922   */\n      dup4\n        /* \"#utility.yul\":15914:15923   */\n      iszero\n        /* \"#utility.yul\":15894:15978   */\n      or\n        /* \"#utility.yul\":15871:16011   */\n      tag_446\n      jumpi\n        /* \"#utility.yul\":15991:16009   */\n      tag_447\n      tag_273\n      jump\t// in\n    tag_447:\n        /* \"#utility.yul\":15871:16011   */\n    tag_446:\n        /* \"#utility.yul\":15509:16018   */\n      pop\n        /* \"#utility.yul\":15462:16018   */\n      swap3\n      swap2\n      pop\n      pop\n      jump\t// out\n        /* \"#utility.yul\":16024:16204   */\n    tag_283:\n        /* \"#utility.yul\":16072:16149   */\n      0x4e487b7100000000000000000000000000000000000000000000000000000000\n        /* \"#utility.yul\":16069:16070   */\n      0x00\n        /* \"#utility.yul\":16062:16150   */\n      mstore\n        /* \"#utility.yul\":16169:16173   */\n      0x12\n        /* \"#utility.yul\":16166:16167   */\n      0x04\n        /* \"#utility.yul\":16159:16174   */\n      mstore\n        /* \"#utility.yul\":16193:16197   */\n      0x24\n        /* \"#utility.yul\":16190:16191   */\n      0x00\n        /* \"#utility.yul\":16183:16198   */\n      revert\n        /* \"#utility.yul\":16210:16595   */\n    tag_228:\n        /* \"#utility.yul\":16249:16250   */\n      0x00\n        /* \"#utility.yul\":16266:16285   */\n      tag_450\n        /* \"#utility.yul\":16283:16284   */\n      dup3\n        /* \"#utility.yul\":16266:16285   */\n      tag_254\n      jump\t// in\n    tag_450:\n        /* \"#utility.yul\":16261:16285   */\n      swap2\n      pop\n        /* \"#utility.yul\":16299:16318   */\n      tag_451\n        /* \"#utility.yul\":16316:16317   */\n      dup4\n        /* \"#utility.yul\":16299:16318   */\n      tag_254\n      jump\t// in\n    tag_451:\n        /* \"#utility.yul\":16294:16318   */\n      swap3\n      pop\n        /* \"#utility.yul\":16337:16338   */\n      dup3\n        /* \"#utility.yul\":16327:16362   */\n      tag_452\n      jumpi\n        /* \"#utility.yul\":16342:16360   */\n      tag_453\n      tag_283\n      jump\t// in\n    tag_453:\n        /* \"#utility.yul\":16327:16362   */\n    tag_452:\n        /* \"#utility.yul\":16528:16529   */\n      0x01\n        /* \"#utility.yul\":16525:16526   */\n      0x00\n        /* \"#utility.yul\":16521:16530   */\n      sub\n        /* \"#utility.yul\":16518:16519   */\n      dup4\n        /* \"#utility.yul\":16515:16531   */\n      eq\n        /* \"#utility.yul\":16434:16500   */\n      0x8000000000000000000000000000000000000000000000000000000000000000\n        /* \"#utility.yul\":16431:16432   */\n      dup4\n        /* \"#utility.yul\":16428:16501   */\n      eq\n        /* \"#utility.yul\":16411:16541   */\n      and\n        /* \"#utility.yul\":16408:16564   */\n      iszero\n      tag_454\n      jumpi\n        /* \"#utility.yul\":16544:16562   */\n      tag_455\n      tag_273\n      jump\t// in\n    tag_455:\n        /* \"#utility.yul\":16408:16564   */\n    tag_454:\n        /* \"#utility.yul\":16587:16588   */\n      dup3\n        /* \"#utility.yul\":16584:16585   */\n      dup3\n        /* \"#utility.yul\":16579:16589   */\n      sdiv\n        /* \"#utility.yul\":16574:16589   */\n      swap1\n      pop\n        /* \"#utility.yul\":16210:16595   */\n      swap3\n      swap2\n      pop\n      pop\n      jump\t// out\n        /* \"#utility.yul\":16601:16792   */\n    tag_232:\n        /* \"#utility.yul\":16639:16643   */\n      0x00\n        /* \"#utility.yul\":16659:16677   */\n      tag_457\n        /* \"#utility.yul\":16675:16676   */\n      dup3\n        /* \"#utility.yul\":16659:16677   */\n      tag_251\n      jump\t// in\n    tag_457:\n        /* \"#utility.yul\":16654:16677   */\n      swap2\n      pop\n        /* \"#utility.yul\":16691:16709   */\n      tag_458\n        /* \"#utility.yul\":16707:16708   */\n      dup4\n        /* \"#utility.yul\":16691:16709   */\n      tag_251\n      jump\t// in\n    tag_458:\n        /* \"#utility.yul\":16686:16709   */\n      swap3\n      pop\n        /* \"#utility.yul\":16733:16734   */\n      dup3\n        /* \"#utility.yul\":16730:16731   */\n      dup3\n        /* \"#utility.yul\":16726:16735   */\n      sub\n        /* \"#utility.yul\":16718:16735   */\n      swap1\n      pop\n        /* \"#utility.yul\":16757:16761   */\n      0xff\n        /* \"#utility.yul\":16751:16755   */\n      dup2\n        /* \"#utility.yul\":16748:16762   */\n      gt\n        /* \"#utility.yul\":16745:16785   */\n      iszero\n      tag_459\n      jumpi\n        /* \"#utility.yul\":16765:16783   */\n      tag_460\n      tag_273\n      jump\t// in\n    tag_460:\n        /* \"#utility.yul\":16745:16785   */\n    tag_459:\n        /* \"#utility.yul\":16601:16792   */\n      swap3\n      swap2\n      pop\n      pop\n      jump\t// out\n\n    auxdata: 0xa264697066735822122099d1608bc6eb62ea5b6fed950c6253bb27f5158ec04f894d3f3502891a2f995764736f6c634300081b0033\n}\n",
				"bytecode": {
					"linkReferences": {},
					"object": "608060405234801561000f575f5ffd5b50733e622317f8c93f7328350cf0b56d9ed4c620c5d65f5f6101000a81548173ffffffffffffffffffffffffffffffffffffffff021916908373ffffffffffffffffffffffffffffffffffffffff160217905550737b79995e5f793a07bc00c21412e50ecae098e7f960025f6101000a81548173ffffffffffffffffffffffffffffffffffffffff021916908373ffffffffffffffffffffffffffffffffffffffff16021790555073779877a7b0d9e8603169ddbd7836e478b462478960015f6101000a81548173ffffffffffffffffffffffffffffffffffffffff021916908373ffffffffffffffffffffffffffffffffffffffff16021790555073694aa1769357215de4fac081bf1f309adc32530660035f6101000a81548173ffffffffffffffffffffffffffffffffffffffff021916908373ffffffffffffffffffffffffffffffffffffffff16021790555073c59e3633baac79493d908e63626716e204a45edf60045f6101000a81548173ffffffffffffffffffffffffffffffffffffffff021916908373ffffffffffffffffffffffffffffffffffffffff1602179055507314866185b1962b63c3ea9e03bc1da838bab34c1960055f6101000a81548173ffffffffffffffffffffffffffffffffffffffff021916908373ffffffffffffffffffffffffffffffffffffffff1602179055506126b7806102145f395ff3fe608060405234801561000f575f5ffd5b506004361061007b575f3560e01c80637567fe56116100595780637567fe56146100d35780637e11eff4146100ef57806387ffd4401461010b57806397436655146101275761007b565b80631dd153901461007f5780632067c2ca1461009b57806361a46876146100b7575b5f5ffd5b61009960048036038101906100949190611de6565b610157565b005b6100b560048036038101906100b09190611de6565b610591565b005b6100d160048036038101906100cc9190611de6565b6109cd565b005b6100ed60048036038101906100e89190611de6565b610e07565b005b61010960048036038101906101049190611de6565b611241565b005b61012560048036038101906101209190611de6565b61167b565b005b610141600480360381019061013c9190611eb2565b611ab7565b60405161014e9190611f1a565b60405180910390f35b5f73ffffffffffffffffffffffffffffffffffffffff163373ffffffffffffffffffffffffffffffffffffffff16036101c5576040517f08c379a00000000000000000000000000000000000000000000000000000000081526004016101bc90611f8d565b60405180910390fd5b5f8111610207576040517f08c379a00000000000000000000000000000000000000000000000000000000081526004016101fe90611ff5565b60405180910390fd5b805f5f9054906101000a900473ffffffffffffffffffffffffffffffffffffffff1673ffffffffffffffffffffffffffffffffffffffff166370a08231336040518263ffffffff1660e01b81526004016102619190612022565b602060405180830381865afa15801561027c573d5f5f3e3d5ffd5b505050506040513d601f19601f820116820180604052508101906102a0919061204f565b10156102e1576040517f08c379a00000000000000000000000000000000000000000000000000000000081526004016102d8906120c4565b60405180910390fd5b5f61033060055f9054906101000a900473ffffffffffffffffffffffffffffffffffffffff1660035f9054906101000a900473ffffffffffffffffffffffffffffffffffffffff166012611ab7565b90508060025f9054906101000a900473ffffffffffffffffffffffffffffffffffffffff1673ffffffffffffffffffffffffffffffffffffffff166370a08231306040518263ffffffff1660e01b815260040161038d9190612022565b602060405180830381865afa1580156103a8573d5f5f3e3d5ffd5b505050506040513d601f19601f820116820180604052508101906103cc919061204f565b101561040d576040517f08c379a00000000000000000000000000000000000000000000000000000000081526004016104049061212c565b60405180910390fd5b5f5f9054906101000a900473ffffffffffffffffffffffffffffffffffffffff1673ffffffffffffffffffffffffffffffffffffffff166323b872dd3330856040518463ffffffff1660e01b815260040161046a93929190612159565b6020604051808303815f875af1158015610486573d5f5f3e3d5ffd5b505050506040513d601f19601f820116820180604052508101906104aa91906121c3565b5060025f9054906101000a900473ffffffffffffffffffffffffffffffffffffffff1673ffffffffffffffffffffffffffffffffffffffff1663a9059cbb33836040518363ffffffff1660e01b81526004016105079291906121ee565b6020604051808303815f875af1158015610523573d5f5f3e3d5ffd5b505050506040513d601f19601f8201168201806040525081019061054791906121c3565b5080823373ffffffffffffffffffffffffffffffffffffffff167fd0dcb5d6ccbc65558941eda1d0add99921923cc1868a41bbf8d224258a21396d60405160405180910390a45050565b5f73ffffffffffffffffffffffffffffffffffffffff163373ffffffffffffffffffffffffffffffffffffffff16036105ff576040517f08c379a00000000000000000000000000000000000000000000000000000000081526004016105f690611f8d565b60405180910390fd5b5f8111610641576040517f08c379a000000000000000000000000000000000000000000000000000000000815260040161063890611ff5565b60405180910390fd5b8060015f9054906101000a900473ffffffffffffffffffffffffffffffffffffffff1673ffffffffffffffffffffffffffffffffffffffff166370a08231336040518263ffffffff1660e01b815260040161069c9190612022565b602060405180830381865afa1580156106b7573d5f5f3e3d5ffd5b505050506040513d601f19601f820116820180604052508101906106db919061204f565b101561071c576040517f08c379a0000000000000000000000000000000000000000000000000000000008152600401610713906120c4565b60405180910390fd5b5f61076b60045f9054906101000a900473ffffffffffffffffffffffffffffffffffffffff1660035f9054906101000a900473ffffffffffffffffffffffffffffffffffffffff166012611ab7565b90508060025f9054906101000a900473ffffffffffffffffffffffffffffffffffffffff1673ffffffffffffffffffffffffffffffffffffffff166370a08231306040518263ffffffff1660e01b81526004016107c89190612022565b602060405180830381865afa1580156107e3573d5f5f3e3d5ffd5b505050506040513d601f19601f82011682018060405250810190610807919061204f565b1015610848576040517f08c379a000000000000000000000000000000000000000000000000000000000815260040161083f9061212c565b60405180910390fd5b60015f9054906101000a900473ffffffffffffffffffffffffffffffffffffffff1673ffffffffffffffffffffffffffffffffffffffff166323b872dd3330856040518463ffffffff1660e01b81526004016108a693929190612159565b6020604051808303815f875af11580156108c2573d5f5f3e3d5ffd5b505050506040513d601f19601f820116820180604052508101906108e691906121c3565b5060025f9054906101000a900473ffffffffffffffffffffffffffffffffffffffff1673ffffffffffffffffffffffffffffffffffffffff1663a9059cbb33836040518363ffffffff1660e01b81526004016109439291906121ee565b6020604051808303815f875af115801561095f573d5f5f3e3d5ffd5b505050506040513d601f19601f8201168201806040525081019061098391906121c3565b5080823373ffffffffffffffffffffffffffffffffffffffff167fd0dcb5d6ccbc65558941eda1d0add99921923cc1868a41bbf8d224258a21396d60405160405180910390a45050565b5f73ffffffffffffffffffffffffffffffffffffffff163373ffffffffffffffffffffffffffffffffffffffff1603610a3b576040517f08c379a0000000000000000000000000000000000000000000000000000000008152600401610a3290611f8d565b60405180910390fd5b5f8111610a7d576040517f08c379a0000000000000000000000000000000000000000000000000000000008152600401610a7490611ff5565b60405180910390fd5b8060015f9054906101000a900473ffffffffffffffffffffffffffffffffffffffff1673ffffffffffffffffffffffffffffffffffffffff166370a08231336040518263ffffffff1660e01b8152600401610ad89190612022565b602060405180830381865afa158015610af3573d5f5f3e3d5ffd5b505050506040513d601f19601f82011682018060405250810190610b17919061204f565b1015610b58576040517f08c379a0000000000000000000000000000000000000000000000000000000008152600401610b4f906120c4565b60405180910390fd5b5f610ba760045f9054906101000a900473ffffffffffffffffffffffffffffffffffffffff1660055f9054906101000a900473ffffffffffffffffffffffffffffffffffffffff166012611ab7565b9050805f5f9054906101000a900473ffffffffffffffffffffffffffffffffffffffff1673ffffffffffffffffffffffffffffffffffffffff166370a08231306040518263ffffffff1660e01b8152600401610c039190612022565b602060405180830381865afa158015610c1e573d5f5f3e3d5ffd5b505050506040513d601f19601f82011682018060405250810190610c42919061204f565b1015610c83576040517f08c379a0000000000000000000000000000000000000000000000000000000008152600401610c7a9061212c565b60405180910390fd5b60015f9054906101000a900473ffffffffffffffffffffffffffffffffffffffff1673ffffffffffffffffffffffffffffffffffffffff166323b872dd3330856040518463ffffffff1660e01b8152600401610ce193929190612159565b6020604051808303815f875af1158015610cfd573d5f5f3e3d5ffd5b505050506040513d601f19601f82011682018060405250810190610d2191906121c3565b505f5f9054906101000a900473ffffffffffffffffffffffffffffffffffffffff1673ffffffffffffffffffffffffffffffffffffffff1663a9059cbb33836040518363ffffffff1660e01b8152600401610d7d9291906121ee565b6020604051808303815f875af1158015610d99573d5f5f3e3d5ffd5b505050506040513d601f19601f82011682018060405250810190610dbd91906121c3565b5080823373ffffffffffffffffffffffffffffffffffffffff167fd0dcb5d6ccbc65558941eda1d0add99921923cc1868a41bbf8d224258a21396d60405160405180910390a45050565b5f73ffffffffffffffffffffffffffffffffffffffff163373ffffffffffffffffffffffffffffffffffffffff1603610e75576040517f08c379a0000000000000000000000000000000000000000000000000000000008152600401610e6c90611f8d565b60405180910390fd5b5f8111610eb7576040517f08c379a0000000000000000000000000000000000000000000000000000000008152600401610eae90611ff5565b60405180910390fd5b8060025f9054906101000a900473ffffffffffffffffffffffffffffffffffffffff1673ffffffffffffffffffffffffffffffffffffffff166370a08231336040518263ffffffff1660e01b8152600401610f129190612022565b602060405180830381865afa158015610f2d573d5f5f3e3d5ffd5b505050506040513d601f19601f82011682018060405250810190610f51919061204f565b1015610f92576040517f08c379a0000000000000000000000000000000000000000000000000000000008152600401610f89906120c4565b60405180910390fd5b5f610fe160035f9054906101000a900473ffffffffffffffffffffffffffffffffffffffff1660055f9054906101000a900473ffffffffffffffffffffffffffffffffffffffff166012611ab7565b9050805f5f9054906101000a900473ffffffffffffffffffffffffffffffffffffffff1673ffffffffffffffffffffffffffffffffffffffff166370a08231306040518263ffffffff1660e01b815260040161103d9190612022565b602060405180830381865afa158015611058573d5f5f3e3d5ffd5b505050506040513d601f19601f8201168201806040525081019061107c919061204f565b10156110bd576040517f08c379a00000000000000000000000000000000000000000000000000000000081526004016110b49061212c565b60405180910390fd5b60025f9054906101000a900473ffffffffffffffffffffffffffffffffffffffff1673ffffffffffffffffffffffffffffffffffffffff166323b872dd3330856040518463ffffffff1660e01b815260040161111b93929190612159565b6020604051808303815f875af1158015611137573d5f5f3e3d5ffd5b505050506040513d601f19601f8201168201806040525081019061115b91906121c3565b505f5f9054906101000a900473ffffffffffffffffffffffffffffffffffffffff1673ffffffffffffffffffffffffffffffffffffffff1663a9059cbb33836040518363ffffffff1660e01b81526004016111b79291906121ee565b6020604051808303815f875af11580156111d3573d5f5f3e3d5ffd5b505050506040513d601f19601f820116820180604052508101906111f791906121c3565b5080823373ffffffffffffffffffffffffffffffffffffffff167fd0dcb5d6ccbc65558941eda1d0add99921923cc1868a41bbf8d224258a21396d60405160405180910390a45050565b5f73ffffffffffffffffffffffffffffffffffffffff163373ffffffffffffffffffffffffffffffffffffffff16036112af576040517f08c379a00000000000000000000000000000000000000000000000000000000081526004016112a690611f8d565b60405180910390fd5b5f81116112f1576040517f08c379a00000000000000000000000000000000000000000000000000000000081526004016112e890611ff5565b60405180910390fd5b805f5f9054906101000a900473ffffffffffffffffffffffffffffffffffffffff1673ffffffffffffffffffffffffffffffffffffffff166370a08231336040518263ffffffff1660e01b815260040161134b9190612022565b602060405180830381865afa158015611366573d5f5f3e3d5ffd5b505050506040513d601f19601f8201168201806040525081019061138a919061204f565b10156113cb576040517f08c379a00000000000000000000000000000000000000000000000000000000081526004016113c2906120c4565b60405180910390fd5b5f61141a60055f9054906101000a900473ffffffffffffffffffffffffffffffffffffffff1660045f9054906101000a900473ffffffffffffffffffffffffffffffffffffffff166012611ab7565b90508060015f9054906101000a900473ffffffffffffffffffffffffffffffffffffffff1673ffffffffffffffffffffffffffffffffffffffff166370a08231306040518263ffffffff1660e01b81526004016114779190612022565b602060405180830381865afa158015611492573d5f5f3e3d5ffd5b505050506040513d601f19601f820116820180604052508101906114b6919061204f565b10156114f7576040517f08c379a00000000000000000000000000000000000000000000000000000000081526004016114ee9061212c565b60405180910390fd5b5f5f9054906101000a900473ffffffffffffffffffffffffffffffffffffffff1673ffffffffffffffffffffffffffffffffffffffff166323b872dd3330856040518463ffffffff1660e01b815260040161155493929190612159565b6020604051808303815f875af1158015611570573d5f5f3e3d5ffd5b505050506040513d601f19601f8201168201806040525081019061159491906121c3565b5060015f9054906101000a900473ffffffffffffffffffffffffffffffffffffffff1673ffffffffffffffffffffffffffffffffffffffff1663a9059cbb33836040518363ffffffff1660e01b81526004016115f19291906121ee565b6020604051808303815f875af115801561160d573d5f5f3e3d5ffd5b505050506040513d601f19601f8201168201806040525081019061163191906121c3565b5080823373ffffffffffffffffffffffffffffffffffffffff167fd0dcb5d6ccbc65558941eda1d0add99921923cc1868a41bbf8d224258a21396d60405160405180910390a45050565b5f73ffffffffffffffffffffffffffffffffffffffff163373ffffffffffffffffffffffffffffffffffffffff16036116e9576040517f08c379a00000000000000000000000000000000000000000000000000000000081526004016116e090611f8d565b60405180910390fd5b5f811161172b576040517f08c379a000000000000000000000000000000000000000000000000000000000815260040161172290611ff5565b60405180910390fd5b8060025f9054906101000a900473ffffffffffffffffffffffffffffffffffffffff1673ffffffffffffffffffffffffffffffffffffffff166370a08231336040518263ffffffff1660e01b81526004016117869190612022565b602060405180830381865afa1580156117a1573d5f5f3e3d5ffd5b505050506040513d601f19601f820116820180604052508101906117c5919061204f565b1015611806576040517f08c379a00000000000000000000000000000000000000000000000000000000081526004016117fd906120c4565b60405180910390fd5b5f61185560035f9054906101000a900473ffffffffffffffffffffffffffffffffffffffff1660045f9054906101000a900473ffffffffffffffffffffffffffffffffffffffff166012611ab7565b90508060015f9054906101000a900473ffffffffffffffffffffffffffffffffffffffff1673ffffffffffffffffffffffffffffffffffffffff166370a08231306040518263ffffffff1660e01b81526004016118b29190612022565b602060405180830381865afa1580156118cd573d5f5f3e3d5ffd5b505050506040513d601f19601f820116820180604052508101906118f1919061204f565b1015611932576040517f08c379a00000000000000000000000000000000000000000000000000000000081526004016119299061212c565b60405180910390fd5b60025f9054906101000a900473ffffffffffffffffffffffffffffffffffffffff1673ffffffffffffffffffffffffffffffffffffffff166323b872dd3330856040518463ffffffff1660e01b815260040161199093929190612159565b6020604051808303815f875af11580156119ac573d5f5f3e3d5ffd5b505050506040513d601f19601f820116820180604052508101906119d091906121c3565b5060015f9054906101000a900473ffffffffffffffffffffffffffffffffffffffff1673ffffffffffffffffffffffffffffffffffffffff1663a9059cbb33836040518363ffffffff1660e01b8152600401611a2d9291906121ee565b6020604051808303815f875af1158015611a49573d5f5f3e3d5ffd5b505050506040513d601f19601f82011682018060405250810190611a6d91906121c3565b5080823373ffffffffffffffffffffffffffffffffffffffff167fd0dcb5d6ccbc65558941eda1d0add99921923cc1868a41bbf8d224258a21396d60405160405180910390a45050565b5f5f60ff168260ff16118015611ad45750601260ff168260ff1611155b611b13576040517f08c379a0000000000000000000000000000000000000000000000000000000008152600401611b0a9061225f565b60405180910390fd5b5f8260ff16600a611b2491906123d9565b90505f8573ffffffffffffffffffffffffffffffffffffffff1663feaf968c6040518163ffffffff1660e01b815260040160a060405180830381865afa158015611b70573d5f5f3e3d5ffd5b505050506040513d601f19601f82011682018060405250810190611b94919061248c565b5050509150505f8673ffffffffffffffffffffffffffffffffffffffff1663313ce5676040518163ffffffff1660e01b8152600401602060405180830381865afa158015611be4573d5f5f3e3d5ffd5b505050506040513d601f19601f82011682018060405250810190611c089190612517565b9050611c15828287611d2d565b91505f8673ffffffffffffffffffffffffffffffffffffffff1663feaf968c6040518163ffffffff1660e01b815260040160a060405180830381865afa158015611c61573d5f5f3e3d5ffd5b505050506040513d601f19601f82011682018060405250810190611c85919061248c565b5050509150505f8773ffffffffffffffffffffffffffffffffffffffff1663313ce5676040518163ffffffff1660e01b8152600401602060405180830381865afa158015611cd5573d5f5f3e3d5ffd5b505050506040513d601f19601f82011682018060405250810190611cf99190612517565b9050611d06828289611d2d565b9150818585611d159190612542565b611d1f91906125e5565b955050505050509392505050565b5f8160ff168360ff161015611d69578282611d48919061264d565b60ff16600a611d5791906123d9565b84611d629190612542565b9050611da8565b8160ff168360ff161115611da4578183611d83919061264d565b60ff16600a611d9291906123d9565b84611d9d91906125e5565b9050611da8565b8390505b9392505050565b5f5ffd5b5f819050919050565b611dc581611db3565b8114611dcf575f5ffd5b50565b5f81359050611de081611dbc565b92915050565b5f60208284031215611dfb57611dfa611daf565b5b5f611e0884828501611dd2565b91505092915050565b5f73ffffffffffffffffffffffffffffffffffffffff82169050919050565b5f611e3a82611e11565b9050919050565b5f611e4b82611e30565b9050919050565b611e5b81611e41565b8114611e65575f5ffd5b50565b5f81359050611e7681611e52565b92915050565b5f60ff82169050919050565b611e9181611e7c565b8114611e9b575f5ffd5b50565b5f81359050611eac81611e88565b92915050565b5f5f5f60608486031215611ec957611ec8611daf565b5b5f611ed686828701611e68565b9350506020611ee786828701611e68565b9250506040611ef886828701611e9e565b9150509250925092565b5f819050919050565b611f1481611f02565b82525050565b5f602082019050611f2d5f830184611f0b565b92915050565b5f82825260208201905092915050565b7f61646472657373207a65726f20646574656374656400000000000000000000005f82015250565b5f611f77601583611f33565b9150611f8282611f43565b602082019050919050565b5f6020820190508181035f830152611fa481611f6b565b9050919050565b7f43616e27742065786368616e6765207a65726f20616d6f756e740000000000005f82015250565b5f611fdf601a83611f33565b9150611fea82611fab565b602082019050919050565b5f6020820190508181035f83015261200c81611fd3565b9050919050565b61201c81611e30565b82525050565b5f6020820190506120355f830184612013565b92915050565b5f8151905061204981611dbc565b92915050565b5f6020828403121561206457612063611daf565b5b5f6120718482850161203b565b91505092915050565b7f496e73756666696369656e742042616c616e63650000000000000000000000005f82015250565b5f6120ae601483611f33565b91506120b98261207a565b602082019050919050565b5f6020820190508181035f8301526120db816120a2565b9050919050565b7f4e6f7420656e6f75676820746f6b656e420000000000000000000000000000005f82015250565b5f612116601183611f33565b9150612121826120e2565b602082019050919050565b5f6020820190508181035f8301526121438161210a565b9050919050565b61215381611db3565b82525050565b5f60608201905061216c5f830186612013565b6121796020830185612013565b612186604083018461214a565b949350505050565b5f8115159050919050565b6121a28161218e565b81146121ac575f5ffd5b50565b5f815190506121bd81612199565b92915050565b5f602082840312156121d8576121d7611daf565b5b5f6121e5848285016121af565b91505092915050565b5f6040820190506122015f830185612013565b61220e602083018461214a565b9392505050565b7f496e76616c6964205f646563696d616c730000000000000000000000000000005f82015250565b5f612249601183611f33565b915061225482612215565b602082019050919050565b5f6020820190508181035f8301526122768161223d565b9050919050565b7f4e487b71000000000000000000000000000000000000000000000000000000005f52601160045260245ffd5b5f8160011c9050919050565b5f5f8291508390505b60018511156122ff578086048111156122db576122da61227d565b5b60018516156122ea5780820291505b80810290506122f8856122aa565b94506122bf565b94509492505050565b5f8261231757600190506123d2565b81612324575f90506123d2565b816001811461233a576002811461234457612373565b60019150506123d2565b60ff8411156123565761235561227d565b5b8360020a91508482111561236d5761236c61227d565b5b506123d2565b5060208310610133831016604e8410600b84101617156123a85782820a9050838111156123a3576123a261227d565b5b6123d2565b6123b584848460016122b6565b925090508184048111156123cc576123cb61227d565b5b81810290505b9392505050565b5f6123e382611db3565b91506123ee83611db3565b925061241b7fffffffffffffffffffffffffffffffffffffffffffffffffffffffffffffffff8484612308565b905092915050565b5f69ffffffffffffffffffff82169050919050565b61244181612423565b811461244b575f5ffd5b50565b5f8151905061245c81612438565b92915050565b61246b81611f02565b8114612475575f5ffd5b50565b5f8151905061248681612462565b92915050565b5f5f5f5f5f60a086880312156124a5576124a4611daf565b5b5f6124b28882890161244e565b95505060206124c388828901612478565b94505060406124d48882890161203b565b93505060606124e58882890161203b565b92505060806124f68882890161244e565b9150509295509295909350565b5f8151905061251181611e88565b92915050565b5f6020828403121561252c5761252b611daf565b5b5f61253984828501612503565b91505092915050565b5f61254c82611f02565b915061255783611f02565b925082820261256581611f02565b91507f800000000000000000000000000000000000000000000000000000000000000084145f8412161561259c5761259b61227d565b5b82820584148315176125b1576125b061227d565b5b5092915050565b7f4e487b71000000000000000000000000000000000000000000000000000000005f52601260045260245ffd5b5f6125ef82611f02565b91506125fa83611f02565b92508261260a576126096125b8565b5b60015f0383147f8000000000000000000000000000000000000000000000000000000000000000831416156126425761264161227d565b5b828205905092915050565b5f61265782611e7c565b915061266283611e7c565b9250828203905060ff81111561267b5761267a61227d565b5b9291505056fea264697066735822122099d1608bc6eb62ea5b6fed950c6253bb27f5158ec04f894d3f3502891a2f995764736f6c634300081b0033",
					"opcodes": "PUSH1 0x80 PUSH1 0x40 MSTORE CALLVALUE DUP1 ISZERO PUSH2 0xF JUMPI PUSH0 PUSH0 REVERT JUMPDEST POP PUSH20 0x3E622317F8C93F7328350CF0B56D9ED4C620C5D6 PUSH0 PUSH0 PUSH2 0x100 EXP DUP2 SLOAD DUP2 PUSH20 0xFFFFFFFFFFFFFFFFFFFFFFFFFFFFFFFFFFFFFFFF MUL NOT AND SWAP1 DUP4 PUSH20 0xFFFFFFFFFFFFFFFFFFFFFFFFFFFFFFFFFFFFFFFF AND MUL OR SWAP1 SSTORE POP PUSH20 0x7B79995E5F793A07BC00C21412E50ECAE098E7F9 PUSH1 0x2 PUSH0 PUSH2 0x100 EXP DUP2 SLOAD DUP2 PUSH20 0xFFFFFFFFFFFFFFFFFFFFFFFFFFFFFFFFFFFFFFFF MUL NOT AND SWAP1 DUP4 PUSH20 0xFFFFFFFFFFFFFFFFFFFFFFFFFFFFFFFFFFFFFFFF AND MUL OR SWAP1 SSTORE POP PUSH20 0x779877A7B0D9E8603169DDBD7836E478B4624789 PUSH1 0x1 PUSH0 PUSH2 0x100 EXP DUP2 SLOAD DUP2 PUSH20 0xFFFFFFFFFFFFFFFFFFFFFFFFFFFFFFFFFFFFFFFF MUL NOT AND SWAP1 DUP4 PUSH20 0xFFFFFFFFFFFFFFFFFFFFFFFFFFFFFFFFFFFFFFFF AND MUL OR SWAP1 SSTORE POP PUSH20 0x694AA1769357215DE4FAC081BF1F309ADC325306 PUSH1 0x3 PUSH0 PUSH2 0x100 EXP DUP2 SLOAD DUP2 PUSH20 0xFFFFFFFFFFFFFFFFFFFFFFFFFFFFFFFFFFFFFFFF MUL NOT AND SWAP1 DUP4 PUSH20 0xFFFFFFFFFFFFFFFFFFFFFFFFFFFFFFFFFFFFFFFF AND MUL OR SWAP1 SSTORE POP PUSH20 0xC59E3633BAAC79493D908E63626716E204A45EDF PUSH1 0x4 PUSH0 PUSH2 0x100 EXP DUP2 SLOAD DUP2 PUSH20 0xFFFFFFFFFFFFFFFFFFFFFFFFFFFFFFFFFFFFFFFF MUL NOT AND SWAP1 DUP4 PUSH20 0xFFFFFFFFFFFFFFFFFFFFFFFFFFFFFFFFFFFFFFFF AND MUL OR SWAP1 SSTORE POP PUSH20 0x14866185B1962B63C3EA9E03BC1DA838BAB34C19 PUSH1 0x5 PUSH0 PUSH2 0x100 EXP DUP2 SLOAD DUP2 PUSH20 0xFFFFFFFFFFFFFFFFFFFFFFFFFFFFFFFFFFFFFFFF MUL NOT AND SWAP1 DUP4 PUSH20 0xFFFFFFFFFFFFFFFFFFFFFFFFFFFFFFFFFFFFFFFF AND MUL OR SWAP1 SSTORE POP PUSH2 0x26B7 DUP1 PUSH2 0x214 PUSH0 CODECOPY PUSH0 RETURN INVALID PUSH1 0x80 PUSH1 0x40 MSTORE CALLVALUE DUP1 ISZERO PUSH2 0xF JUMPI PUSH0 PUSH0 REVERT JUMPDEST POP PUSH1 0x4 CALLDATASIZE LT PUSH2 0x7B JUMPI PUSH0 CALLDATALOAD PUSH1 0xE0 SHR DUP1 PUSH4 0x7567FE56 GT PUSH2 0x59 JUMPI DUP1 PUSH4 0x7567FE56 EQ PUSH2 0xD3 JUMPI DUP1 PUSH4 0x7E11EFF4 EQ PUSH2 0xEF JUMPI DUP1 PUSH4 0x87FFD440 EQ PUSH2 0x10B JUMPI DUP1 PUSH4 0x97436655 EQ PUSH2 0x127 JUMPI PUSH2 0x7B JUMP JUMPDEST DUP1 PUSH4 0x1DD15390 EQ PUSH2 0x7F JUMPI DUP1 PUSH4 0x2067C2CA EQ PUSH2 0x9B JUMPI DUP1 PUSH4 0x61A46876 EQ PUSH2 0xB7 JUMPI JUMPDEST PUSH0 PUSH0 REVERT JUMPDEST PUSH2 0x99 PUSH1 0x4 DUP1 CALLDATASIZE SUB DUP2 ADD SWAP1 PUSH2 0x94 SWAP2 SWAP1 PUSH2 0x1DE6 JUMP JUMPDEST PUSH2 0x157 JUMP JUMPDEST STOP JUMPDEST PUSH2 0xB5 PUSH1 0x4 DUP1 CALLDATASIZE SUB DUP2 ADD SWAP1 PUSH2 0xB0 SWAP2 SWAP1 PUSH2 0x1DE6 JUMP JUMPDEST PUSH2 0x591 JUMP JUMPDEST STOP JUMPDEST PUSH2 0xD1 PUSH1 0x4 DUP1 CALLDATASIZE SUB DUP2 ADD SWAP1 PUSH2 0xCC SWAP2 SWAP1 PUSH2 0x1DE6 JUMP JUMPDEST PUSH2 0x9CD JUMP JUMPDEST STOP JUMPDEST PUSH2 0xED PUSH1 0x4 DUP1 CALLDATASIZE SUB DUP2 ADD SWAP1 PUSH2 0xE8 SWAP2 SWAP1 PUSH2 0x1DE6 JUMP JUMPDEST PUSH2 0xE07 JUMP JUMPDEST STOP JUMPDEST PUSH2 0x109 PUSH1 0x4 DUP1 CALLDATASIZE SUB DUP2 ADD SWAP1 PUSH2 0x104 SWAP2 SWAP1 PUSH2 0x1DE6 JUMP JUMPDEST PUSH2 0x1241 JUMP JUMPDEST STOP JUMPDEST PUSH2 0x125 PUSH1 0x4 DUP1 CALLDATASIZE SUB DUP2 ADD SWAP1 PUSH2 0x120 SWAP2 SWAP1 PUSH2 0x1DE6 JUMP JUMPDEST PUSH2 0x167B JUMP JUMPDEST STOP JUMPDEST PUSH2 0x141 PUSH1 0x4 DUP1 CALLDATASIZE SUB DUP2 ADD SWAP1 PUSH2 0x13C SWAP2 SWAP1 PUSH2 0x1EB2 JUMP JUMPDEST PUSH2 0x1AB7 JUMP JUMPDEST PUSH1 0x40 MLOAD PUSH2 0x14E SWAP2 SWAP1 PUSH2 0x1F1A JUMP JUMPDEST PUSH1 0x40 MLOAD DUP1 SWAP2 SUB SWAP1 RETURN JUMPDEST PUSH0 PUSH20 0xFFFFFFFFFFFFFFFFFFFFFFFFFFFFFFFFFFFFFFFF AND CALLER PUSH20 0xFFFFFFFFFFFFFFFFFFFFFFFFFFFFFFFFFFFFFFFF AND SUB PUSH2 0x1C5 JUMPI PUSH1 0x40 MLOAD PUSH32 0x8C379A000000000000000000000000000000000000000000000000000000000 DUP2 MSTORE PUSH1 0x4 ADD PUSH2 0x1BC SWAP1 PUSH2 0x1F8D JUMP JUMPDEST PUSH1 0x40 MLOAD DUP1 SWAP2 SUB SWAP1 REVERT JUMPDEST PUSH0 DUP2 GT PUSH2 0x207 JUMPI PUSH1 0x40 MLOAD PUSH32 0x8C379A000000000000000000000000000000000000000000000000000000000 DUP2 MSTORE PUSH1 0x4 ADD PUSH2 0x1FE SWAP1 PUSH2 0x1FF5 JUMP JUMPDEST PUSH1 0x40 MLOAD DUP1 SWAP2 SUB SWAP1 REVERT JUMPDEST DUP1 PUSH0 PUSH0 SWAP1 SLOAD SWAP1 PUSH2 0x100 EXP SWAP1 DIV PUSH20 0xFFFFFFFFFFFFFFFFFFFFFFFFFFFFFFFFFFFFFFFF AND PUSH20 0xFFFFFFFFFFFFFFFFFFFFFFFFFFFFFFFFFFFFFFFF AND PUSH4 0x70A08231 CALLER PUSH1 0x40 MLOAD DUP3 PUSH4 0xFFFFFFFF AND PUSH1 0xE0 SHL DUP2 MSTORE PUSH1 0x4 ADD PUSH2 0x261 SWAP2 SWAP1 PUSH2 0x2022 JUMP JUMPDEST PUSH1 0x20 PUSH1 0x40 MLOAD DUP1 DUP4 SUB DUP2 DUP7 GAS STATICCALL ISZERO DUP1 ISZERO PUSH2 0x27C JUMPI RETURNDATASIZE PUSH0 PUSH0 RETURNDATACOPY RETURNDATASIZE PUSH0 REVERT JUMPDEST POP POP POP POP PUSH1 0x40 MLOAD RETURNDATASIZE PUSH1 0x1F NOT PUSH1 0x1F DUP3 ADD AND DUP3 ADD DUP1 PUSH1 0x40 MSTORE POP DUP2 ADD SWAP1 PUSH2 0x2A0 SWAP2 SWAP1 PUSH2 0x204F JUMP JUMPDEST LT ISZERO PUSH2 0x2E1 JUMPI PUSH1 0x40 MLOAD PUSH32 0x8C379A000000000000000000000000000000000000000000000000000000000 DUP2 MSTORE PUSH1 0x4 ADD PUSH2 0x2D8 SWAP1 PUSH2 0x20C4 JUMP JUMPDEST PUSH1 0x40 MLOAD DUP1 SWAP2 SUB SWAP1 REVERT JUMPDEST PUSH0 PUSH2 0x330 PUSH1 0x5 PUSH0 SWAP1 SLOAD SWAP1 PUSH2 0x100 EXP SWAP1 DIV PUSH20 0xFFFFFFFFFFFFFFFFFFFFFFFFFFFFFFFFFFFFFFFF AND PUSH1 0x3 PUSH0 SWAP1 SLOAD SWAP1 PUSH2 0x100 EXP SWAP1 DIV PUSH20 0xFFFFFFFFFFFFFFFFFFFFFFFFFFFFFFFFFFFFFFFF AND PUSH1 0x12 PUSH2 0x1AB7 JUMP JUMPDEST SWAP1 POP DUP1 PUSH1 0x2 PUSH0 SWAP1 SLOAD SWAP1 PUSH2 0x100 EXP SWAP1 DIV PUSH20 0xFFFFFFFFFFFFFFFFFFFFFFFFFFFFFFFFFFFFFFFF AND PUSH20 0xFFFFFFFFFFFFFFFFFFFFFFFFFFFFFFFFFFFFFFFF AND PUSH4 0x70A08231 ADDRESS PUSH1 0x40 MLOAD DUP3 PUSH4 0xFFFFFFFF AND PUSH1 0xE0 SHL DUP2 MSTORE PUSH1 0x4 ADD PUSH2 0x38D SWAP2 SWAP1 PUSH2 0x2022 JUMP JUMPDEST PUSH1 0x20 PUSH1 0x40 MLOAD DUP1 DUP4 SUB DUP2 DUP7 GAS STATICCALL ISZERO DUP1 ISZERO PUSH2 0x3A8 JUMPI RETURNDATASIZE PUSH0 PUSH0 RETURNDATACOPY RETURNDATASIZE PUSH0 REVERT JUMPDEST POP POP POP POP PUSH1 0x40 MLOAD RETURNDATASIZE PUSH1 0x1F NOT PUSH1 0x1F DUP3 ADD AND DUP3 ADD DUP1 PUSH1 0x40 MSTORE POP DUP2 ADD SWAP1 PUSH2 0x3CC SWAP2 SWAP1 PUSH2 0x204F JUMP JUMPDEST LT ISZERO PUSH2 0x40D JUMPI PUSH1 0x40 MLOAD PUSH32 0x8C379A000000000000000000000000000000000000000000000000000000000 DUP2 MSTORE PUSH1 0x4 ADD PUSH2 0x404 SWAP1 PUSH2 0x212C JUMP JUMPDEST PUSH1 0x40 MLOAD DUP1 SWAP2 SUB SWAP1 REVERT JUMPDEST PUSH0 PUSH0 SWAP1 SLOAD SWAP1 PUSH2 0x100 EXP SWAP1 DIV PUSH20 0xFFFFFFFFFFFFFFFFFFFFFFFFFFFFFFFFFFFFFFFF AND PUSH20 0xFFFFFFFFFFFFFFFFFFFFFFFFFFFFFFFFFFFFFFFF AND PUSH4 0x23B872DD CALLER ADDRESS DUP6 PUSH1 0x40 MLOAD DUP5 PUSH4 0xFFFFFFFF AND PUSH1 0xE0 SHL DUP2 MSTORE PUSH1 0x4 ADD PUSH2 0x46A SWAP4 SWAP3 SWAP2 SWAP1 PUSH2 0x2159 JUMP JUMPDEST PUSH1 0x20 PUSH1 0x40 MLOAD DUP1 DUP4 SUB DUP2 PUSH0 DUP8 GAS CALL ISZERO DUP1 ISZERO PUSH2 0x486 JUMPI RETURNDATASIZE PUSH0 PUSH0 RETURNDATACOPY RETURNDATASIZE PUSH0 REVERT JUMPDEST POP POP POP POP PUSH1 0x40 MLOAD RETURNDATASIZE PUSH1 0x1F NOT PUSH1 0x1F DUP3 ADD AND DUP3 ADD DUP1 PUSH1 0x40 MSTORE POP DUP2 ADD SWAP1 PUSH2 0x4AA SWAP2 SWAP1 PUSH2 0x21C3 JUMP JUMPDEST POP PUSH1 0x2 PUSH0 SWAP1 SLOAD SWAP1 PUSH2 0x100 EXP SWAP1 DIV PUSH20 0xFFFFFFFFFFFFFFFFFFFFFFFFFFFFFFFFFFFFFFFF AND PUSH20 0xFFFFFFFFFFFFFFFFFFFFFFFFFFFFFFFFFFFFFFFF AND PUSH4 0xA9059CBB CALLER DUP4 PUSH1 0x40 MLOAD DUP4 PUSH4 0xFFFFFFFF AND PUSH1 0xE0 SHL DUP2 MSTORE PUSH1 0x4 ADD PUSH2 0x507 SWAP3 SWAP2 SWAP1 PUSH2 0x21EE JUMP JUMPDEST PUSH1 0x20 PUSH1 0x40 MLOAD DUP1 DUP4 SUB DUP2 PUSH0 DUP8 GAS CALL ISZERO DUP1 ISZERO PUSH2 0x523 JUMPI RETURNDATASIZE PUSH0 PUSH0 RETURNDATACOPY RETURNDATASIZE PUSH0 REVERT JUMPDEST POP POP POP POP PUSH1 0x40 MLOAD RETURNDATASIZE PUSH1 0x1F NOT PUSH1 0x1F DUP3 ADD AND DUP3 ADD DUP1 PUSH1 0x40 MSTORE POP DUP2 ADD SWAP1 PUSH2 0x547 SWAP2 SWAP1 PUSH2 0x21C3 JUMP JUMPDEST POP DUP1 DUP3 CALLER PUSH20 0xFFFFFFFFFFFFFFFFFFFFFFFFFFFFFFFFFFFFFFFF AND PUSH32 0xD0DCB5D6CCBC65558941EDA1D0ADD99921923CC1868A41BBF8D224258A21396D PUSH1 0x40 MLOAD PUSH1 0x40 MLOAD DUP1 SWAP2 SUB SWAP1 LOG4 POP POP JUMP JUMPDEST PUSH0 PUSH20 0xFFFFFFFFFFFFFFFFFFFFFFFFFFFFFFFFFFFFFFFF AND CALLER PUSH20 0xFFFFFFFFFFFFFFFFFFFFFFFFFFFFFFFFFFFFFFFF AND SUB PUSH2 0x5FF JUMPI PUSH1 0x40 MLOAD PUSH32 0x8C379A000000000000000000000000000000000000000000000000000000000 DUP2 MSTORE PUSH1 0x4 ADD PUSH2 0x5F6 SWAP1 PUSH2 0x1F8D JUMP JUMPDEST PUSH1 0x40 MLOAD DUP1 SWAP2 SUB SWAP1 REVERT JUMPDEST PUSH0 DUP2 GT PUSH2 0x641 JUMPI PUSH1 0x40 MLOAD PUSH32 0x8C379A000000000000000000000000000000000000000000000000000000000 DUP2 MSTORE PUSH1 0x4 ADD PUSH2 0x638 SWAP1 PUSH2 0x1FF5 JUMP JUMPDEST PUSH1 0x40 MLOAD DUP1 SWAP2 SUB SWAP1 REVERT JUMPDEST DUP1 PUSH1 0x1 PUSH0 SWAP1 SLOAD SWAP1 PUSH2 0x100 EXP SWAP1 DIV PUSH20 0xFFFFFFFFFFFFFFFFFFFFFFFFFFFFFFFFFFFFFFFF AND PUSH20 0xFFFFFFFFFFFFFFFFFFFFFFFFFFFFFFFFFFFFFFFF AND PUSH4 0x70A08231 CALLER PUSH1 0x40 MLOAD DUP3 PUSH4 0xFFFFFFFF AND PUSH1 0xE0 SHL DUP2 MSTORE PUSH1 0x4 ADD PUSH2 0x69C SWAP2 SWAP1 PUSH2 0x2022 JUMP JUMPDEST PUSH1 0x20 PUSH1 0x40 MLOAD DUP1 DUP4 SUB DUP2 DUP7 GAS STATICCALL ISZERO DUP1 ISZERO PUSH2 0x6B7 JUMPI RETURNDATASIZE PUSH0 PUSH0 RETURNDATACOPY RETURNDATASIZE PUSH0 REVERT JUMPDEST POP POP POP POP PUSH1 0x40 MLOAD RETURNDATASIZE PUSH1 0x1F NOT PUSH1 0x1F DUP3 ADD AND DUP3 ADD DUP1 PUSH1 0x40 MSTORE POP DUP2 ADD SWAP1 PUSH2 0x6DB SWAP2 SWAP1 PUSH2 0x204F JUMP JUMPDEST LT ISZERO PUSH2 0x71C JUMPI PUSH1 0x40 MLOAD PUSH32 0x8C379A000000000000000000000000000000000000000000000000000000000 DUP2 MSTORE PUSH1 0x4 ADD PUSH2 0x713 SWAP1 PUSH2 0x20C4 JUMP JUMPDEST PUSH1 0x40 MLOAD DUP1 SWAP2 SUB SWAP1 REVERT JUMPDEST PUSH0 PUSH2 0x76B PUSH1 0x4 PUSH0 SWAP1 SLOAD SWAP1 PUSH2 0x100 EXP SWAP1 DIV PUSH20 0xFFFFFFFFFFFFFFFFFFFFFFFFFFFFFFFFFFFFFFFF AND PUSH1 0x3 PUSH0 SWAP1 SLOAD SWAP1 PUSH2 0x100 EXP SWAP1 DIV PUSH20 0xFFFFFFFFFFFFFFFFFFFFFFFFFFFFFFFFFFFFFFFF AND PUSH1 0x12 PUSH2 0x1AB7 JUMP JUMPDEST SWAP1 POP DUP1 PUSH1 0x2 PUSH0 SWAP1 SLOAD SWAP1 PUSH2 0x100 EXP SWAP1 DIV PUSH20 0xFFFFFFFFFFFFFFFFFFFFFFFFFFFFFFFFFFFFFFFF AND PUSH20 0xFFFFFFFFFFFFFFFFFFFFFFFFFFFFFFFFFFFFFFFF AND PUSH4 0x70A08231 ADDRESS PUSH1 0x40 MLOAD DUP3 PUSH4 0xFFFFFFFF AND PUSH1 0xE0 SHL DUP2 MSTORE PUSH1 0x4 ADD PUSH2 0x7C8 SWAP2 SWAP1 PUSH2 0x2022 JUMP JUMPDEST PUSH1 0x20 PUSH1 0x40 MLOAD DUP1 DUP4 SUB DUP2 DUP7 GAS STATICCALL ISZERO DUP1 ISZERO PUSH2 0x7E3 JUMPI RETURNDATASIZE PUSH0 PUSH0 RETURNDATACOPY RETURNDATASIZE PUSH0 REVERT JUMPDEST POP POP POP POP PUSH1 0x40 MLOAD RETURNDATASIZE PUSH1 0x1F NOT PUSH1 0x1F DUP3 ADD AND DUP3 ADD DUP1 PUSH1 0x40 MSTORE POP DUP2 ADD SWAP1 PUSH2 0x807 SWAP2 SWAP1 PUSH2 0x204F JUMP JUMPDEST LT ISZERO PUSH2 0x848 JUMPI PUSH1 0x40 MLOAD PUSH32 0x8C379A000000000000000000000000000000000000000000000000000000000 DUP2 MSTORE PUSH1 0x4 ADD PUSH2 0x83F SWAP1 PUSH2 0x212C JUMP JUMPDEST PUSH1 0x40 MLOAD DUP1 SWAP2 SUB SWAP1 REVERT JUMPDEST PUSH1 0x1 PUSH0 SWAP1 SLOAD SWAP1 PUSH2 0x100 EXP SWAP1 DIV PUSH20 0xFFFFFFFFFFFFFFFFFFFFFFFFFFFFFFFFFFFFFFFF AND PUSH20 0xFFFFFFFFFFFFFFFFFFFFFFFFFFFFFFFFFFFFFFFF AND PUSH4 0x23B872DD CALLER ADDRESS DUP6 PUSH1 0x40 MLOAD DUP5 PUSH4 0xFFFFFFFF AND PUSH1 0xE0 SHL DUP2 MSTORE PUSH1 0x4 ADD PUSH2 0x8A6 SWAP4 SWAP3 SWAP2 SWAP1 PUSH2 0x2159 JUMP JUMPDEST PUSH1 0x20 PUSH1 0x40 MLOAD DUP1 DUP4 SUB DUP2 PUSH0 DUP8 GAS CALL ISZERO DUP1 ISZERO PUSH2 0x8C2 JUMPI RETURNDATASIZE PUSH0 PUSH0 RETURNDATACOPY RETURNDATASIZE PUSH0 REVERT JUMPDEST POP POP POP POP PUSH1 0x40 MLOAD RETURNDATASIZE PUSH1 0x1F NOT PUSH1 0x1F DUP3 ADD AND DUP3 ADD DUP1 PUSH1 0x40 MSTORE POP DUP2 ADD SWAP1 PUSH2 0x8E6 SWAP2 SWAP1 PUSH2 0x21C3 JUMP JUMPDEST POP PUSH1 0x2 PUSH0 SWAP1 SLOAD SWAP1 PUSH2 0x100 EXP SWAP1 DIV PUSH20 0xFFFFFFFFFFFFFFFFFFFFFFFFFFFFFFFFFFFFFFFF AND PUSH20 0xFFFFFFFFFFFFFFFFFFFFFFFFFFFFFFFFFFFFFFFF AND PUSH4 0xA9059CBB CALLER DUP4 PUSH1 0x40 MLOAD DUP4 PUSH4 0xFFFFFFFF AND PUSH1 0xE0 SHL DUP2 MSTORE PUSH1 0x4 ADD PUSH2 0x943 SWAP3 SWAP2 SWAP1 PUSH2 0x21EE JUMP JUMPDEST PUSH1 0x20 PUSH1 0x40 MLOAD DUP1 DUP4 SUB DUP2 PUSH0 DUP8 GAS CALL ISZERO DUP1 ISZERO PUSH2 0x95F JUMPI RETURNDATASIZE PUSH0 PUSH0 RETURNDATACOPY RETURNDATASIZE PUSH0 REVERT JUMPDEST POP POP POP POP PUSH1 0x40 MLOAD RETURNDATASIZE PUSH1 0x1F NOT PUSH1 0x1F DUP3 ADD AND DUP3 ADD DUP1 PUSH1 0x40 MSTORE POP DUP2 ADD SWAP1 PUSH2 0x983 SWAP2 SWAP1 PUSH2 0x21C3 JUMP JUMPDEST POP DUP1 DUP3 CALLER PUSH20 0xFFFFFFFFFFFFFFFFFFFFFFFFFFFFFFFFFFFFFFFF AND PUSH32 0xD0DCB5D6CCBC65558941EDA1D0ADD99921923CC1868A41BBF8D224258A21396D PUSH1 0x40 MLOAD PUSH1 0x40 MLOAD DUP1 SWAP2 SUB SWAP1 LOG4 POP POP JUMP JUMPDEST PUSH0 PUSH20 0xFFFFFFFFFFFFFFFFFFFFFFFFFFFFFFFFFFFFFFFF AND CALLER PUSH20 0xFFFFFFFFFFFFFFFFFFFFFFFFFFFFFFFFFFFFFFFF AND SUB PUSH2 0xA3B JUMPI PUSH1 0x40 MLOAD PUSH32 0x8C379A000000000000000000000000000000000000000000000000000000000 DUP2 MSTORE PUSH1 0x4 ADD PUSH2 0xA32 SWAP1 PUSH2 0x1F8D JUMP JUMPDEST PUSH1 0x40 MLOAD DUP1 SWAP2 SUB SWAP1 REVERT JUMPDEST PUSH0 DUP2 GT PUSH2 0xA7D JUMPI PUSH1 0x40 MLOAD PUSH32 0x8C379A000000000000000000000000000000000000000000000000000000000 DUP2 MSTORE PUSH1 0x4 ADD PUSH2 0xA74 SWAP1 PUSH2 0x1FF5 JUMP JUMPDEST PUSH1 0x40 MLOAD DUP1 SWAP2 SUB SWAP1 REVERT JUMPDEST DUP1 PUSH1 0x1 PUSH0 SWAP1 SLOAD SWAP1 PUSH2 0x100 EXP SWAP1 DIV PUSH20 0xFFFFFFFFFFFFFFFFFFFFFFFFFFFFFFFFFFFFFFFF AND PUSH20 0xFFFFFFFFFFFFFFFFFFFFFFFFFFFFFFFFFFFFFFFF AND PUSH4 0x70A08231 CALLER PUSH1 0x40 MLOAD DUP3 PUSH4 0xFFFFFFFF AND PUSH1 0xE0 SHL DUP2 MSTORE PUSH1 0x4 ADD PUSH2 0xAD8 SWAP2 SWAP1 PUSH2 0x2022 JUMP JUMPDEST PUSH1 0x20 PUSH1 0x40 MLOAD DUP1 DUP4 SUB DUP2 DUP7 GAS STATICCALL ISZERO DUP1 ISZERO PUSH2 0xAF3 JUMPI RETURNDATASIZE PUSH0 PUSH0 RETURNDATACOPY RETURNDATASIZE PUSH0 REVERT JUMPDEST POP POP POP POP PUSH1 0x40 MLOAD RETURNDATASIZE PUSH1 0x1F NOT PUSH1 0x1F DUP3 ADD AND DUP3 ADD DUP1 PUSH1 0x40 MSTORE POP DUP2 ADD SWAP1 PUSH2 0xB17 SWAP2 SWAP1 PUSH2 0x204F JUMP JUMPDEST LT ISZERO PUSH2 0xB58 JUMPI PUSH1 0x40 MLOAD PUSH32 0x8C379A000000000000000000000000000000000000000000000000000000000 DUP2 MSTORE PUSH1 0x4 ADD PUSH2 0xB4F SWAP1 PUSH2 0x20C4 JUMP JUMPDEST PUSH1 0x40 MLOAD DUP1 SWAP2 SUB SWAP1 REVERT JUMPDEST PUSH0 PUSH2 0xBA7 PUSH1 0x4 PUSH0 SWAP1 SLOAD SWAP1 PUSH2 0x100 EXP SWAP1 DIV PUSH20 0xFFFFFFFFFFFFFFFFFFFFFFFFFFFFFFFFFFFFFFFF AND PUSH1 0x5 PUSH0 SWAP1 SLOAD SWAP1 PUSH2 0x100 EXP SWAP1 DIV PUSH20 0xFFFFFFFFFFFFFFFFFFFFFFFFFFFFFFFFFFFFFFFF AND PUSH1 0x12 PUSH2 0x1AB7 JUMP JUMPDEST SWAP1 POP DUP1 PUSH0 PUSH0 SWAP1 SLOAD SWAP1 PUSH2 0x100 EXP SWAP1 DIV PUSH20 0xFFFFFFFFFFFFFFFFFFFFFFFFFFFFFFFFFFFFFFFF AND PUSH20 0xFFFFFFFFFFFFFFFFFFFFFFFFFFFFFFFFFFFFFFFF AND PUSH4 0x70A08231 ADDRESS PUSH1 0x40 MLOAD DUP3 PUSH4 0xFFFFFFFF AND PUSH1 0xE0 SHL DUP2 MSTORE PUSH1 0x4 ADD PUSH2 0xC03 SWAP2 SWAP1 PUSH2 0x2022 JUMP JUMPDEST PUSH1 0x20 PUSH1 0x40 MLOAD DUP1 DUP4 SUB DUP2 DUP7 GAS STATICCALL ISZERO DUP1 ISZERO PUSH2 0xC1E JUMPI RETURNDATASIZE PUSH0 PUSH0 RETURNDATACOPY RETURNDATASIZE PUSH0 REVERT JUMPDEST POP POP POP POP PUSH1 0x40 MLOAD RETURNDATASIZE PUSH1 0x1F NOT PUSH1 0x1F DUP3 ADD AND DUP3 ADD DUP1 PUSH1 0x40 MSTORE POP DUP2 ADD SWAP1 PUSH2 0xC42 SWAP2 SWAP1 PUSH2 0x204F JUMP JUMPDEST LT ISZERO PUSH2 0xC83 JUMPI PUSH1 0x40 MLOAD PUSH32 0x8C379A000000000000000000000000000000000000000000000000000000000 DUP2 MSTORE PUSH1 0x4 ADD PUSH2 0xC7A SWAP1 PUSH2 0x212C JUMP JUMPDEST PUSH1 0x40 MLOAD DUP1 SWAP2 SUB SWAP1 REVERT JUMPDEST PUSH1 0x1 PUSH0 SWAP1 SLOAD SWAP1 PUSH2 0x100 EXP SWAP1 DIV PUSH20 0xFFFFFFFFFFFFFFFFFFFFFFFFFFFFFFFFFFFFFFFF AND PUSH20 0xFFFFFFFFFFFFFFFFFFFFFFFFFFFFFFFFFFFFFFFF AND PUSH4 0x23B872DD CALLER ADDRESS DUP6 PUSH1 0x40 MLOAD DUP5 PUSH4 0xFFFFFFFF AND PUSH1 0xE0 SHL DUP2 MSTORE PUSH1 0x4 ADD PUSH2 0xCE1 SWAP4 SWAP3 SWAP2 SWAP1 PUSH2 0x2159 JUMP JUMPDEST PUSH1 0x20 PUSH1 0x40 MLOAD DUP1 DUP4 SUB DUP2 PUSH0 DUP8 GAS CALL ISZERO DUP1 ISZERO PUSH2 0xCFD JUMPI RETURNDATASIZE PUSH0 PUSH0 RETURNDATACOPY RETURNDATASIZE PUSH0 REVERT JUMPDEST POP POP POP POP PUSH1 0x40 MLOAD RETURNDATASIZE PUSH1 0x1F NOT PUSH1 0x1F DUP3 ADD AND DUP3 ADD DUP1 PUSH1 0x40 MSTORE POP DUP2 ADD SWAP1 PUSH2 0xD21 SWAP2 SWAP1 PUSH2 0x21C3 JUMP JUMPDEST POP PUSH0 PUSH0 SWAP1 SLOAD SWAP1 PUSH2 0x100 EXP SWAP1 DIV PUSH20 0xFFFFFFFFFFFFFFFFFFFFFFFFFFFFFFFFFFFFFFFF AND PUSH20 0xFFFFFFFFFFFFFFFFFFFFFFFFFFFFFFFFFFFFFFFF AND PUSH4 0xA9059CBB CALLER DUP4 PUSH1 0x40 MLOAD DUP4 PUSH4 0xFFFFFFFF AND PUSH1 0xE0 SHL DUP2 MSTORE PUSH1 0x4 ADD PUSH2 0xD7D SWAP3 SWAP2 SWAP1 PUSH2 0x21EE JUMP JUMPDEST PUSH1 0x20 PUSH1 0x40 MLOAD DUP1 DUP4 SUB DUP2 PUSH0 DUP8 GAS CALL ISZERO DUP1 ISZERO PUSH2 0xD99 JUMPI RETURNDATASIZE PUSH0 PUSH0 RETURNDATACOPY RETURNDATASIZE PUSH0 REVERT JUMPDEST POP POP POP POP PUSH1 0x40 MLOAD RETURNDATASIZE PUSH1 0x1F NOT PUSH1 0x1F DUP3 ADD AND DUP3 ADD DUP1 PUSH1 0x40 MSTORE POP DUP2 ADD SWAP1 PUSH2 0xDBD SWAP2 SWAP1 PUSH2 0x21C3 JUMP JUMPDEST POP DUP1 DUP3 CALLER PUSH20 0xFFFFFFFFFFFFFFFFFFFFFFFFFFFFFFFFFFFFFFFF AND PUSH32 0xD0DCB5D6CCBC65558941EDA1D0ADD99921923CC1868A41BBF8D224258A21396D PUSH1 0x40 MLOAD PUSH1 0x40 MLOAD DUP1 SWAP2 SUB SWAP1 LOG4 POP POP JUMP JUMPDEST PUSH0 PUSH20 0xFFFFFFFFFFFFFFFFFFFFFFFFFFFFFFFFFFFFFFFF AND CALLER PUSH20 0xFFFFFFFFFFFFFFFFFFFFFFFFFFFFFFFFFFFFFFFF AND SUB PUSH2 0xE75 JUMPI PUSH1 0x40 MLOAD PUSH32 0x8C379A000000000000000000000000000000000000000000000000000000000 DUP2 MSTORE PUSH1 0x4 ADD PUSH2 0xE6C SWAP1 PUSH2 0x1F8D JUMP JUMPDEST PUSH1 0x40 MLOAD DUP1 SWAP2 SUB SWAP1 REVERT JUMPDEST PUSH0 DUP2 GT PUSH2 0xEB7 JUMPI PUSH1 0x40 MLOAD PUSH32 0x8C379A000000000000000000000000000000000000000000000000000000000 DUP2 MSTORE PUSH1 0x4 ADD PUSH2 0xEAE SWAP1 PUSH2 0x1FF5 JUMP JUMPDEST PUSH1 0x40 MLOAD DUP1 SWAP2 SUB SWAP1 REVERT JUMPDEST DUP1 PUSH1 0x2 PUSH0 SWAP1 SLOAD SWAP1 PUSH2 0x100 EXP SWAP1 DIV PUSH20 0xFFFFFFFFFFFFFFFFFFFFFFFFFFFFFFFFFFFFFFFF AND PUSH20 0xFFFFFFFFFFFFFFFFFFFFFFFFFFFFFFFFFFFFFFFF AND PUSH4 0x70A08231 CALLER PUSH1 0x40 MLOAD DUP3 PUSH4 0xFFFFFFFF AND PUSH1 0xE0 SHL DUP2 MSTORE PUSH1 0x4 ADD PUSH2 0xF12 SWAP2 SWAP1 PUSH2 0x2022 JUMP JUMPDEST PUSH1 0x20 PUSH1 0x40 MLOAD DUP1 DUP4 SUB DUP2 DUP7 GAS STATICCALL ISZERO DUP1 ISZERO PUSH2 0xF2D JUMPI RETURNDATASIZE PUSH0 PUSH0 RETURNDATACOPY RETURNDATASIZE PUSH0 REVERT JUMPDEST POP POP POP POP PUSH1 0x40 MLOAD RETURNDATASIZE PUSH1 0x1F NOT PUSH1 0x1F DUP3 ADD AND DUP3 ADD DUP1 PUSH1 0x40 MSTORE POP DUP2 ADD SWAP1 PUSH2 0xF51 SWAP2 SWAP1 PUSH2 0x204F JUMP JUMPDEST LT ISZERO PUSH2 0xF92 JUMPI PUSH1 0x40 MLOAD PUSH32 0x8C379A000000000000000000000000000000000000000000000000000000000 DUP2 MSTORE PUSH1 0x4 ADD PUSH2 0xF89 SWAP1 PUSH2 0x20C4 JUMP JUMPDEST PUSH1 0x40 MLOAD DUP1 SWAP2 SUB SWAP1 REVERT JUMPDEST PUSH0 PUSH2 0xFE1 PUSH1 0x3 PUSH0 SWAP1 SLOAD SWAP1 PUSH2 0x100 EXP SWAP1 DIV PUSH20 0xFFFFFFFFFFFFFFFFFFFFFFFFFFFFFFFFFFFFFFFF AND PUSH1 0x5 PUSH0 SWAP1 SLOAD SWAP1 PUSH2 0x100 EXP SWAP1 DIV PUSH20 0xFFFFFFFFFFFFFFFFFFFFFFFFFFFFFFFFFFFFFFFF AND PUSH1 0x12 PUSH2 0x1AB7 JUMP JUMPDEST SWAP1 POP DUP1 PUSH0 PUSH0 SWAP1 SLOAD SWAP1 PUSH2 0x100 EXP SWAP1 DIV PUSH20 0xFFFFFFFFFFFFFFFFFFFFFFFFFFFFFFFFFFFFFFFF AND PUSH20 0xFFFFFFFFFFFFFFFFFFFFFFFFFFFFFFFFFFFFFFFF AND PUSH4 0x70A08231 ADDRESS PUSH1 0x40 MLOAD DUP3 PUSH4 0xFFFFFFFF AND PUSH1 0xE0 SHL DUP2 MSTORE PUSH1 0x4 ADD PUSH2 0x103D SWAP2 SWAP1 PUSH2 0x2022 JUMP JUMPDEST PUSH1 0x20 PUSH1 0x40 MLOAD DUP1 DUP4 SUB DUP2 DUP7 GAS STATICCALL ISZERO DUP1 ISZERO PUSH2 0x1058 JUMPI RETURNDATASIZE PUSH0 PUSH0 RETURNDATACOPY RETURNDATASIZE PUSH0 REVERT JUMPDEST POP POP POP POP PUSH1 0x40 MLOAD RETURNDATASIZE PUSH1 0x1F NOT PUSH1 0x1F DUP3 ADD AND DUP3 ADD DUP1 PUSH1 0x40 MSTORE POP DUP2 ADD SWAP1 PUSH2 0x107C SWAP2 SWAP1 PUSH2 0x204F JUMP JUMPDEST LT ISZERO PUSH2 0x10BD JUMPI PUSH1 0x40 MLOAD PUSH32 0x8C379A000000000000000000000000000000000000000000000000000000000 DUP2 MSTORE PUSH1 0x4 ADD PUSH2 0x10B4 SWAP1 PUSH2 0x212C JUMP JUMPDEST PUSH1 0x40 MLOAD DUP1 SWAP2 SUB SWAP1 REVERT JUMPDEST PUSH1 0x2 PUSH0 SWAP1 SLOAD SWAP1 PUSH2 0x100 EXP SWAP1 DIV PUSH20 0xFFFFFFFFFFFFFFFFFFFFFFFFFFFFFFFFFFFFFFFF AND PUSH20 0xFFFFFFFFFFFFFFFFFFFFFFFFFFFFFFFFFFFFFFFF AND PUSH4 0x23B872DD CALLER ADDRESS DUP6 PUSH1 0x40 MLOAD DUP5 PUSH4 0xFFFFFFFF AND PUSH1 0xE0 SHL DUP2 MSTORE PUSH1 0x4 ADD PUSH2 0x111B SWAP4 SWAP3 SWAP2 SWAP1 PUSH2 0x2159 JUMP JUMPDEST PUSH1 0x20 PUSH1 0x40 MLOAD DUP1 DUP4 SUB DUP2 PUSH0 DUP8 GAS CALL ISZERO DUP1 ISZERO PUSH2 0x1137 JUMPI RETURNDATASIZE PUSH0 PUSH0 RETURNDATACOPY RETURNDATASIZE PUSH0 REVERT JUMPDEST POP POP POP POP PUSH1 0x40 MLOAD RETURNDATASIZE PUSH1 0x1F NOT PUSH1 0x1F DUP3 ADD AND DUP3 ADD DUP1 PUSH1 0x40 MSTORE POP DUP2 ADD SWAP1 PUSH2 0x115B SWAP2 SWAP1 PUSH2 0x21C3 JUMP JUMPDEST POP PUSH0 PUSH0 SWAP1 SLOAD SWAP1 PUSH2 0x100 EXP SWAP1 DIV PUSH20 0xFFFFFFFFFFFFFFFFFFFFFFFFFFFFFFFFFFFFFFFF AND PUSH20 0xFFFFFFFFFFFFFFFFFFFFFFFFFFFFFFFFFFFFFFFF AND PUSH4 0xA9059CBB CALLER DUP4 PUSH1 0x40 MLOAD DUP4 PUSH4 0xFFFFFFFF AND PUSH1 0xE0 SHL DUP2 MSTORE PUSH1 0x4 ADD PUSH2 0x11B7 SWAP3 SWAP2 SWAP1 PUSH2 0x21EE JUMP JUMPDEST PUSH1 0x20 PUSH1 0x40 MLOAD DUP1 DUP4 SUB DUP2 PUSH0 DUP8 GAS CALL ISZERO DUP1 ISZERO PUSH2 0x11D3 JUMPI RETURNDATASIZE PUSH0 PUSH0 RETURNDATACOPY RETURNDATASIZE PUSH0 REVERT JUMPDEST POP POP POP POP PUSH1 0x40 MLOAD RETURNDATASIZE PUSH1 0x1F NOT PUSH1 0x1F DUP3 ADD AND DUP3 ADD DUP1 PUSH1 0x40 MSTORE POP DUP2 ADD SWAP1 PUSH2 0x11F7 SWAP2 SWAP1 PUSH2 0x21C3 JUMP JUMPDEST POP DUP1 DUP3 CALLER PUSH20 0xFFFFFFFFFFFFFFFFFFFFFFFFFFFFFFFFFFFFFFFF AND PUSH32 0xD0DCB5D6CCBC65558941EDA1D0ADD99921923CC1868A41BBF8D224258A21396D PUSH1 0x40 MLOAD PUSH1 0x40 MLOAD DUP1 SWAP2 SUB SWAP1 LOG4 POP POP JUMP JUMPDEST PUSH0 PUSH20 0xFFFFFFFFFFFFFFFFFFFFFFFFFFFFFFFFFFFFFFFF AND CALLER PUSH20 0xFFFFFFFFFFFFFFFFFFFFFFFFFFFFFFFFFFFFFFFF AND SUB PUSH2 0x12AF JUMPI PUSH1 0x40 MLOAD PUSH32 0x8C379A000000000000000000000000000000000000000000000000000000000 DUP2 MSTORE PUSH1 0x4 ADD PUSH2 0x12A6 SWAP1 PUSH2 0x1F8D JUMP JUMPDEST PUSH1 0x40 MLOAD DUP1 SWAP2 SUB SWAP1 REVERT JUMPDEST PUSH0 DUP2 GT PUSH2 0x12F1 JUMPI PUSH1 0x40 MLOAD PUSH32 0x8C379A000000000000000000000000000000000000000000000000000000000 DUP2 MSTORE PUSH1 0x4 ADD PUSH2 0x12E8 SWAP1 PUSH2 0x1FF5 JUMP JUMPDEST PUSH1 0x40 MLOAD DUP1 SWAP2 SUB SWAP1 REVERT JUMPDEST DUP1 PUSH0 PUSH0 SWAP1 SLOAD SWAP1 PUSH2 0x100 EXP SWAP1 DIV PUSH20 0xFFFFFFFFFFFFFFFFFFFFFFFFFFFFFFFFFFFFFFFF AND PUSH20 0xFFFFFFFFFFFFFFFFFFFFFFFFFFFFFFFFFFFFFFFF AND PUSH4 0x70A08231 CALLER PUSH1 0x40 MLOAD DUP3 PUSH4 0xFFFFFFFF AND PUSH1 0xE0 SHL DUP2 MSTORE PUSH1 0x4 ADD PUSH2 0x134B SWAP2 SWAP1 PUSH2 0x2022 JUMP JUMPDEST PUSH1 0x20 PUSH1 0x40 MLOAD DUP1 DUP4 SUB DUP2 DUP7 GAS STATICCALL ISZERO DUP1 ISZERO PUSH2 0x1366 JUMPI RETURNDATASIZE PUSH0 PUSH0 RETURNDATACOPY RETURNDATASIZE PUSH0 REVERT JUMPDEST POP POP POP POP PUSH1 0x40 MLOAD RETURNDATASIZE PUSH1 0x1F NOT PUSH1 0x1F DUP3 ADD AND DUP3 ADD DUP1 PUSH1 0x40 MSTORE POP DUP2 ADD SWAP1 PUSH2 0x138A SWAP2 SWAP1 PUSH2 0x204F JUMP JUMPDEST LT ISZERO PUSH2 0x13CB JUMPI PUSH1 0x40 MLOAD PUSH32 0x8C379A000000000000000000000000000000000000000000000000000000000 DUP2 MSTORE PUSH1 0x4 ADD PUSH2 0x13C2 SWAP1 PUSH2 0x20C4 JUMP JUMPDEST PUSH1 0x40 MLOAD DUP1 SWAP2 SUB SWAP1 REVERT JUMPDEST PUSH0 PUSH2 0x141A PUSH1 0x5 PUSH0 SWAP1 SLOAD SWAP1 PUSH2 0x100 EXP SWAP1 DIV PUSH20 0xFFFFFFFFFFFFFFFFFFFFFFFFFFFFFFFFFFFFFFFF AND PUSH1 0x4 PUSH0 SWAP1 SLOAD SWAP1 PUSH2 0x100 EXP SWAP1 DIV PUSH20 0xFFFFFFFFFFFFFFFFFFFFFFFFFFFFFFFFFFFFFFFF AND PUSH1 0x12 PUSH2 0x1AB7 JUMP JUMPDEST SWAP1 POP DUP1 PUSH1 0x1 PUSH0 SWAP1 SLOAD SWAP1 PUSH2 0x100 EXP SWAP1 DIV PUSH20 0xFFFFFFFFFFFFFFFFFFFFFFFFFFFFFFFFFFFFFFFF AND PUSH20 0xFFFFFFFFFFFFFFFFFFFFFFFFFFFFFFFFFFFFFFFF AND PUSH4 0x70A08231 ADDRESS PUSH1 0x40 MLOAD DUP3 PUSH4 0xFFFFFFFF AND PUSH1 0xE0 SHL DUP2 MSTORE PUSH1 0x4 ADD PUSH2 0x1477 SWAP2 SWAP1 PUSH2 0x2022 JUMP JUMPDEST PUSH1 0x20 PUSH1 0x40 MLOAD DUP1 DUP4 SUB DUP2 DUP7 GAS STATICCALL ISZERO DUP1 ISZERO PUSH2 0x1492 JUMPI RETURNDATASIZE PUSH0 PUSH0 RETURNDATACOPY RETURNDATASIZE PUSH0 REVERT JUMPDEST POP POP POP POP PUSH1 0x40 MLOAD RETURNDATASIZE PUSH1 0x1F NOT PUSH1 0x1F DUP3 ADD AND DUP3 ADD DUP1 PUSH1 0x40 MSTORE POP DUP2 ADD SWAP1 PUSH2 0x14B6 SWAP2 SWAP1 PUSH2 0x204F JUMP JUMPDEST LT ISZERO PUSH2 0x14F7 JUMPI PUSH1 0x40 MLOAD PUSH32 0x8C379A000000000000000000000000000000000000000000000000000000000 DUP2 MSTORE PUSH1 0x4 ADD PUSH2 0x14EE SWAP1 PUSH2 0x212C JUMP JUMPDEST PUSH1 0x40 MLOAD DUP1 SWAP2 SUB SWAP1 REVERT JUMPDEST PUSH0 PUSH0 SWAP1 SLOAD SWAP1 PUSH2 0x100 EXP SWAP1 DIV PUSH20 0xFFFFFFFFFFFFFFFFFFFFFFFFFFFFFFFFFFFFFFFF AND PUSH20 0xFFFFFFFFFFFFFFFFFFFFFFFFFFFFFFFFFFFFFFFF AND PUSH4 0x23B872DD CALLER ADDRESS DUP6 PUSH1 0x40 MLOAD DUP5 PUSH4 0xFFFFFFFF AND PUSH1 0xE0 SHL DUP2 MSTORE PUSH1 0x4 ADD PUSH2 0x1554 SWAP4 SWAP3 SWAP2 SWAP1 PUSH2 0x2159 JUMP JUMPDEST PUSH1 0x20 PUSH1 0x40 MLOAD DUP1 DUP4 SUB DUP2 PUSH0 DUP8 GAS CALL ISZERO DUP1 ISZERO PUSH2 0x1570 JUMPI RETURNDATASIZE PUSH0 PUSH0 RETURNDATACOPY RETURNDATASIZE PUSH0 REVERT JUMPDEST POP POP POP POP PUSH1 0x40 MLOAD RETURNDATASIZE PUSH1 0x1F NOT PUSH1 0x1F DUP3 ADD AND DUP3 ADD DUP1 PUSH1 0x40 MSTORE POP DUP2 ADD SWAP1 PUSH2 0x1594 SWAP2 SWAP1 PUSH2 0x21C3 JUMP JUMPDEST POP PUSH1 0x1 PUSH0 SWAP1 SLOAD SWAP1 PUSH2 0x100 EXP SWAP1 DIV PUSH20 0xFFFFFFFFFFFFFFFFFFFFFFFFFFFFFFFFFFFFFFFF AND PUSH20 0xFFFFFFFFFFFFFFFFFFFFFFFFFFFFFFFFFFFFFFFF AND PUSH4 0xA9059CBB CALLER DUP4 PUSH1 0x40 MLOAD DUP4 PUSH4 0xFFFFFFFF AND PUSH1 0xE0 SHL DUP2 MSTORE PUSH1 0x4 ADD PUSH2 0x15F1 SWAP3 SWAP2 SWAP1 PUSH2 0x21EE JUMP JUMPDEST PUSH1 0x20 PUSH1 0x40 MLOAD DUP1 DUP4 SUB DUP2 PUSH0 DUP8 GAS CALL ISZERO DUP1 ISZERO PUSH2 0x160D JUMPI RETURNDATASIZE PUSH0 PUSH0 RETURNDATACOPY RETURNDATASIZE PUSH0 REVERT JUMPDEST POP POP POP POP PUSH1 0x40 MLOAD RETURNDATASIZE PUSH1 0x1F NOT PUSH1 0x1F DUP3 ADD AND DUP3 ADD DUP1 PUSH1 0x40 MSTORE POP DUP2 ADD SWAP1 PUSH2 0x1631 SWAP2 SWAP1 PUSH2 0x21C3 JUMP JUMPDEST POP DUP1 DUP3 CALLER PUSH20 0xFFFFFFFFFFFFFFFFFFFFFFFFFFFFFFFFFFFFFFFF AND PUSH32 0xD0DCB5D6CCBC65558941EDA1D0ADD99921923CC1868A41BBF8D224258A21396D PUSH1 0x40 MLOAD PUSH1 0x40 MLOAD DUP1 SWAP2 SUB SWAP1 LOG4 POP POP JUMP JUMPDEST PUSH0 PUSH20 0xFFFFFFFFFFFFFFFFFFFFFFFFFFFFFFFFFFFFFFFF AND CALLER PUSH20 0xFFFFFFFFFFFFFFFFFFFFFFFFFFFFFFFFFFFFFFFF AND SUB PUSH2 0x16E9 JUMPI PUSH1 0x40 MLOAD PUSH32 0x8C379A000000000000000000000000000000000000000000000000000000000 DUP2 MSTORE PUSH1 0x4 ADD PUSH2 0x16E0 SWAP1 PUSH2 0x1F8D JUMP JUMPDEST PUSH1 0x40 MLOAD DUP1 SWAP2 SUB SWAP1 REVERT JUMPDEST PUSH0 DUP2 GT PUSH2 0x172B JUMPI PUSH1 0x40 MLOAD PUSH32 0x8C379A000000000000000000000000000000000000000000000000000000000 DUP2 MSTORE PUSH1 0x4 ADD PUSH2 0x1722 SWAP1 PUSH2 0x1FF5 JUMP JUMPDEST PUSH1 0x40 MLOAD DUP1 SWAP2 SUB SWAP1 REVERT JUMPDEST DUP1 PUSH1 0x2 PUSH0 SWAP1 SLOAD SWAP1 PUSH2 0x100 EXP SWAP1 DIV PUSH20 0xFFFFFFFFFFFFFFFFFFFFFFFFFFFFFFFFFFFFFFFF AND PUSH20 0xFFFFFFFFFFFFFFFFFFFFFFFFFFFFFFFFFFFFFFFF AND PUSH4 0x70A08231 CALLER PUSH1 0x40 MLOAD DUP3 PUSH4 0xFFFFFFFF AND PUSH1 0xE0 SHL DUP2 MSTORE PUSH1 0x4 ADD PUSH2 0x1786 SWAP2 SWAP1 PUSH2 0x2022 JUMP JUMPDEST PUSH1 0x20 PUSH1 0x40 MLOAD DUP1 DUP4 SUB DUP2 DUP7 GAS STATICCALL ISZERO DUP1 ISZERO PUSH2 0x17A1 JUMPI RETURNDATASIZE PUSH0 PUSH0 RETURNDATACOPY RETURNDATASIZE PUSH0 REVERT JUMPDEST POP POP POP POP PUSH1 0x40 MLOAD RETURNDATASIZE PUSH1 0x1F NOT PUSH1 0x1F DUP3 ADD AND DUP3 ADD DUP1 PUSH1 0x40 MSTORE POP DUP2 ADD SWAP1 PUSH2 0x17C5 SWAP2 SWAP1 PUSH2 0x204F JUMP JUMPDEST LT ISZERO PUSH2 0x1806 JUMPI PUSH1 0x40 MLOAD PUSH32 0x8C379A000000000000000000000000000000000000000000000000000000000 DUP2 MSTORE PUSH1 0x4 ADD PUSH2 0x17FD SWAP1 PUSH2 0x20C4 JUMP JUMPDEST PUSH1 0x40 MLOAD DUP1 SWAP2 SUB SWAP1 REVERT JUMPDEST PUSH0 PUSH2 0x1855 PUSH1 0x3 PUSH0 SWAP1 SLOAD SWAP1 PUSH2 0x100 EXP SWAP1 DIV PUSH20 0xFFFFFFFFFFFFFFFFFFFFFFFFFFFFFFFFFFFFFFFF AND PUSH1 0x4 PUSH0 SWAP1 SLOAD SWAP1 PUSH2 0x100 EXP SWAP1 DIV PUSH20 0xFFFFFFFFFFFFFFFFFFFFFFFFFFFFFFFFFFFFFFFF AND PUSH1 0x12 PUSH2 0x1AB7 JUMP JUMPDEST SWAP1 POP DUP1 PUSH1 0x1 PUSH0 SWAP1 SLOAD SWAP1 PUSH2 0x100 EXP SWAP1 DIV PUSH20 0xFFFFFFFFFFFFFFFFFFFFFFFFFFFFFFFFFFFFFFFF AND PUSH20 0xFFFFFFFFFFFFFFFFFFFFFFFFFFFFFFFFFFFFFFFF AND PUSH4 0x70A08231 ADDRESS PUSH1 0x40 MLOAD DUP3 PUSH4 0xFFFFFFFF AND PUSH1 0xE0 SHL DUP2 MSTORE PUSH1 0x4 ADD PUSH2 0x18B2 SWAP2 SWAP1 PUSH2 0x2022 JUMP JUMPDEST PUSH1 0x20 PUSH1 0x40 MLOAD DUP1 DUP4 SUB DUP2 DUP7 GAS STATICCALL ISZERO DUP1 ISZERO PUSH2 0x18CD JUMPI RETURNDATASIZE PUSH0 PUSH0 RETURNDATACOPY RETURNDATASIZE PUSH0 REVERT JUMPDEST POP POP POP POP PUSH1 0x40 MLOAD RETURNDATASIZE PUSH1 0x1F NOT PUSH1 0x1F DUP3 ADD AND DUP3 ADD DUP1 PUSH1 0x40 MSTORE POP DUP2 ADD SWAP1 PUSH2 0x18F1 SWAP2 SWAP1 PUSH2 0x204F JUMP JUMPDEST LT ISZERO PUSH2 0x1932 JUMPI PUSH1 0x40 MLOAD PUSH32 0x8C379A000000000000000000000000000000000000000000000000000000000 DUP2 MSTORE PUSH1 0x4 ADD PUSH2 0x1929 SWAP1 PUSH2 0x212C JUMP JUMPDEST PUSH1 0x40 MLOAD DUP1 SWAP2 SUB SWAP1 REVERT JUMPDEST PUSH1 0x2 PUSH0 SWAP1 SLOAD SWAP1 PUSH2 0x100 EXP SWAP1 DIV PUSH20 0xFFFFFFFFFFFFFFFFFFFFFFFFFFFFFFFFFFFFFFFF AND PUSH20 0xFFFFFFFFFFFFFFFFFFFFFFFFFFFFFFFFFFFFFFFF AND PUSH4 0x23B872DD CALLER ADDRESS DUP6 PUSH1 0x40 MLOAD DUP5 PUSH4 0xFFFFFFFF AND PUSH1 0xE0 SHL DUP2 MSTORE PUSH1 0x4 ADD PUSH2 0x1990 SWAP4 SWAP3 SWAP2 SWAP1 PUSH2 0x2159 JUMP JUMPDEST PUSH1 0x20 PUSH1 0x40 MLOAD DUP1 DUP4 SUB DUP2 PUSH0 DUP8 GAS CALL ISZERO DUP1 ISZERO PUSH2 0x19AC JUMPI RETURNDATASIZE PUSH0 PUSH0 RETURNDATACOPY RETURNDATASIZE PUSH0 REVERT JUMPDEST POP POP POP POP PUSH1 0x40 MLOAD RETURNDATASIZE PUSH1 0x1F NOT PUSH1 0x1F DUP3 ADD AND DUP3 ADD DUP1 PUSH1 0x40 MSTORE POP DUP2 ADD SWAP1 PUSH2 0x19D0 SWAP2 SWAP1 PUSH2 0x21C3 JUMP JUMPDEST POP PUSH1 0x1 PUSH0 SWAP1 SLOAD SWAP1 PUSH2 0x100 EXP SWAP1 DIV PUSH20 0xFFFFFFFFFFFFFFFFFFFFFFFFFFFFFFFFFFFFFFFF AND PUSH20 0xFFFFFFFFFFFFFFFFFFFFFFFFFFFFFFFFFFFFFFFF AND PUSH4 0xA9059CBB CALLER DUP4 PUSH1 0x40 MLOAD DUP4 PUSH4 0xFFFFFFFF AND PUSH1 0xE0 SHL DUP2 MSTORE PUSH1 0x4 ADD PUSH2 0x1A2D SWAP3 SWAP2 SWAP1 PUSH2 0x21EE JUMP JUMPDEST PUSH1 0x20 PUSH1 0x40 MLOAD DUP1 DUP4 SUB DUP2 PUSH0 DUP8 GAS CALL ISZERO DUP1 ISZERO PUSH2 0x1A49 JUMPI RETURNDATASIZE PUSH0 PUSH0 RETURNDATACOPY RETURNDATASIZE PUSH0 REVERT JUMPDEST POP POP POP POP PUSH1 0x40 MLOAD RETURNDATASIZE PUSH1 0x1F NOT PUSH1 0x1F DUP3 ADD AND DUP3 ADD DUP1 PUSH1 0x40 MSTORE POP DUP2 ADD SWAP1 PUSH2 0x1A6D SWAP2 SWAP1 PUSH2 0x21C3 JUMP JUMPDEST POP DUP1 DUP3 CALLER PUSH20 0xFFFFFFFFFFFFFFFFFFFFFFFFFFFFFFFFFFFFFFFF AND PUSH32 0xD0DCB5D6CCBC65558941EDA1D0ADD99921923CC1868A41BBF8D224258A21396D PUSH1 0x40 MLOAD PUSH1 0x40 MLOAD DUP1 SWAP2 SUB SWAP1 LOG4 POP POP JUMP JUMPDEST PUSH0 PUSH0 PUSH1 0xFF AND DUP3 PUSH1 0xFF AND GT DUP1 ISZERO PUSH2 0x1AD4 JUMPI POP PUSH1 0x12 PUSH1 0xFF AND DUP3 PUSH1 0xFF AND GT ISZERO JUMPDEST PUSH2 0x1B13 JUMPI PUSH1 0x40 MLOAD PUSH32 0x8C379A000000000000000000000000000000000000000000000000000000000 DUP2 MSTORE PUSH1 0x4 ADD PUSH2 0x1B0A SWAP1 PUSH2 0x225F JUMP JUMPDEST PUSH1 0x40 MLOAD DUP1 SWAP2 SUB SWAP1 REVERT JUMPDEST PUSH0 DUP3 PUSH1 0xFF AND PUSH1 0xA PUSH2 0x1B24 SWAP2 SWAP1 PUSH2 0x23D9 JUMP JUMPDEST SWAP1 POP PUSH0 DUP6 PUSH20 0xFFFFFFFFFFFFFFFFFFFFFFFFFFFFFFFFFFFFFFFF AND PUSH4 0xFEAF968C PUSH1 0x40 MLOAD DUP2 PUSH4 0xFFFFFFFF AND PUSH1 0xE0 SHL DUP2 MSTORE PUSH1 0x4 ADD PUSH1 0xA0 PUSH1 0x40 MLOAD DUP1 DUP4 SUB DUP2 DUP7 GAS STATICCALL ISZERO DUP1 ISZERO PUSH2 0x1B70 JUMPI RETURNDATASIZE PUSH0 PUSH0 RETURNDATACOPY RETURNDATASIZE PUSH0 REVERT JUMPDEST POP POP POP POP PUSH1 0x40 MLOAD RETURNDATASIZE PUSH1 0x1F NOT PUSH1 0x1F DUP3 ADD AND DUP3 ADD DUP1 PUSH1 0x40 MSTORE POP DUP2 ADD SWAP1 PUSH2 0x1B94 SWAP2 SWAP1 PUSH2 0x248C JUMP JUMPDEST POP POP POP SWAP2 POP POP PUSH0 DUP7 PUSH20 0xFFFFFFFFFFFFFFFFFFFFFFFFFFFFFFFFFFFFFFFF AND PUSH4 0x313CE567 PUSH1 0x40 MLOAD DUP2 PUSH4 0xFFFFFFFF AND PUSH1 0xE0 SHL DUP2 MSTORE PUSH1 0x4 ADD PUSH1 0x20 PUSH1 0x40 MLOAD DUP1 DUP4 SUB DUP2 DUP7 GAS STATICCALL ISZERO DUP1 ISZERO PUSH2 0x1BE4 JUMPI RETURNDATASIZE PUSH0 PUSH0 RETURNDATACOPY RETURNDATASIZE PUSH0 REVERT JUMPDEST POP POP POP POP PUSH1 0x40 MLOAD RETURNDATASIZE PUSH1 0x1F NOT PUSH1 0x1F DUP3 ADD AND DUP3 ADD DUP1 PUSH1 0x40 MSTORE POP DUP2 ADD SWAP1 PUSH2 0x1C08 SWAP2 SWAP1 PUSH2 0x2517 JUMP JUMPDEST SWAP1 POP PUSH2 0x1C15 DUP3 DUP3 DUP8 PUSH2 0x1D2D JUMP JUMPDEST SWAP2 POP PUSH0 DUP7 PUSH20 0xFFFFFFFFFFFFFFFFFFFFFFFFFFFFFFFFFFFFFFFF AND PUSH4 0xFEAF968C PUSH1 0x40 MLOAD DUP2 PUSH4 0xFFFFFFFF AND PUSH1 0xE0 SHL DUP2 MSTORE PUSH1 0x4 ADD PUSH1 0xA0 PUSH1 0x40 MLOAD DUP1 DUP4 SUB DUP2 DUP7 GAS STATICCALL ISZERO DUP1 ISZERO PUSH2 0x1C61 JUMPI RETURNDATASIZE PUSH0 PUSH0 RETURNDATACOPY RETURNDATASIZE PUSH0 REVERT JUMPDEST POP POP POP POP PUSH1 0x40 MLOAD RETURNDATASIZE PUSH1 0x1F NOT PUSH1 0x1F DUP3 ADD AND DUP3 ADD DUP1 PUSH1 0x40 MSTORE POP DUP2 ADD SWAP1 PUSH2 0x1C85 SWAP2 SWAP1 PUSH2 0x248C JUMP JUMPDEST POP POP POP SWAP2 POP POP PUSH0 DUP8 PUSH20 0xFFFFFFFFFFFFFFFFFFFFFFFFFFFFFFFFFFFFFFFF AND PUSH4 0x313CE567 PUSH1 0x40 MLOAD DUP2 PUSH4 0xFFFFFFFF AND PUSH1 0xE0 SHL DUP2 MSTORE PUSH1 0x4 ADD PUSH1 0x20 PUSH1 0x40 MLOAD DUP1 DUP4 SUB DUP2 DUP7 GAS STATICCALL ISZERO DUP1 ISZERO PUSH2 0x1CD5 JUMPI RETURNDATASIZE PUSH0 PUSH0 RETURNDATACOPY RETURNDATASIZE PUSH0 REVERT JUMPDEST POP POP POP POP PUSH1 0x40 MLOAD RETURNDATASIZE PUSH1 0x1F NOT PUSH1 0x1F DUP3 ADD AND DUP3 ADD DUP1 PUSH1 0x40 MSTORE POP DUP2 ADD SWAP1 PUSH2 0x1CF9 SWAP2 SWAP1 PUSH2 0x2517 JUMP JUMPDEST SWAP1 POP PUSH2 0x1D06 DUP3 DUP3 DUP10 PUSH2 0x1D2D JUMP JUMPDEST SWAP2 POP DUP2 DUP6 DUP6 PUSH2 0x1D15 SWAP2 SWAP1 PUSH2 0x2542 JUMP JUMPDEST PUSH2 0x1D1F SWAP2 SWAP1 PUSH2 0x25E5 JUMP JUMPDEST SWAP6 POP POP POP POP POP POP SWAP4 SWAP3 POP POP POP JUMP JUMPDEST PUSH0 DUP2 PUSH1 0xFF AND DUP4 PUSH1 0xFF AND LT ISZERO PUSH2 0x1D69 JUMPI DUP3 DUP3 PUSH2 0x1D48 SWAP2 SWAP1 PUSH2 0x264D JUMP JUMPDEST PUSH1 0xFF AND PUSH1 0xA PUSH2 0x1D57 SWAP2 SWAP1 PUSH2 0x23D9 JUMP JUMPDEST DUP5 PUSH2 0x1D62 SWAP2 SWAP1 PUSH2 0x2542 JUMP JUMPDEST SWAP1 POP PUSH2 0x1DA8 JUMP JUMPDEST DUP2 PUSH1 0xFF AND DUP4 PUSH1 0xFF AND GT ISZERO PUSH2 0x1DA4 JUMPI DUP2 DUP4 PUSH2 0x1D83 SWAP2 SWAP1 PUSH2 0x264D JUMP JUMPDEST PUSH1 0xFF AND PUSH1 0xA PUSH2 0x1D92 SWAP2 SWAP1 PUSH2 0x23D9 JUMP JUMPDEST DUP5 PUSH2 0x1D9D SWAP2 SWAP1 PUSH2 0x25E5 JUMP JUMPDEST SWAP1 POP PUSH2 0x1DA8 JUMP JUMPDEST DUP4 SWAP1 POP JUMPDEST SWAP4 SWAP3 POP POP POP JUMP JUMPDEST PUSH0 PUSH0 REVERT JUMPDEST PUSH0 DUP2 SWAP1 POP SWAP2 SWAP1 POP JUMP JUMPDEST PUSH2 0x1DC5 DUP2 PUSH2 0x1DB3 JUMP JUMPDEST DUP2 EQ PUSH2 0x1DCF JUMPI PUSH0 PUSH0 REVERT JUMPDEST POP JUMP JUMPDEST PUSH0 DUP2 CALLDATALOAD SWAP1 POP PUSH2 0x1DE0 DUP2 PUSH2 0x1DBC JUMP JUMPDEST SWAP3 SWAP2 POP POP JUMP JUMPDEST PUSH0 PUSH1 0x20 DUP3 DUP5 SUB SLT ISZERO PUSH2 0x1DFB JUMPI PUSH2 0x1DFA PUSH2 0x1DAF JUMP JUMPDEST JUMPDEST PUSH0 PUSH2 0x1E08 DUP5 DUP3 DUP6 ADD PUSH2 0x1DD2 JUMP JUMPDEST SWAP2 POP POP SWAP3 SWAP2 POP POP JUMP JUMPDEST PUSH0 PUSH20 0xFFFFFFFFFFFFFFFFFFFFFFFFFFFFFFFFFFFFFFFF DUP3 AND SWAP1 POP SWAP2 SWAP1 POP JUMP JUMPDEST PUSH0 PUSH2 0x1E3A DUP3 PUSH2 0x1E11 JUMP JUMPDEST SWAP1 POP SWAP2 SWAP1 POP JUMP JUMPDEST PUSH0 PUSH2 0x1E4B DUP3 PUSH2 0x1E30 JUMP JUMPDEST SWAP1 POP SWAP2 SWAP1 POP JUMP JUMPDEST PUSH2 0x1E5B DUP2 PUSH2 0x1E41 JUMP JUMPDEST DUP2 EQ PUSH2 0x1E65 JUMPI PUSH0 PUSH0 REVERT JUMPDEST POP JUMP JUMPDEST PUSH0 DUP2 CALLDATALOAD SWAP1 POP PUSH2 0x1E76 DUP2 PUSH2 0x1E52 JUMP JUMPDEST SWAP3 SWAP2 POP POP JUMP JUMPDEST PUSH0 PUSH1 0xFF DUP3 AND SWAP1 POP SWAP2 SWAP1 POP JUMP JUMPDEST PUSH2 0x1E91 DUP2 PUSH2 0x1E7C JUMP JUMPDEST DUP2 EQ PUSH2 0x1E9B JUMPI PUSH0 PUSH0 REVERT JUMPDEST POP JUMP JUMPDEST PUSH0 DUP2 CALLDATALOAD SWAP1 POP PUSH2 0x1EAC DUP2 PUSH2 0x1E88 JUMP JUMPDEST SWAP3 SWAP2 POP POP JUMP JUMPDEST PUSH0 PUSH0 PUSH0 PUSH1 0x60 DUP5 DUP7 SUB SLT ISZERO PUSH2 0x1EC9 JUMPI PUSH2 0x1EC8 PUSH2 0x1DAF JUMP JUMPDEST JUMPDEST PUSH0 PUSH2 0x1ED6 DUP7 DUP3 DUP8 ADD PUSH2 0x1E68 JUMP JUMPDEST SWAP4 POP POP PUSH1 0x20 PUSH2 0x1EE7 DUP7 DUP3 DUP8 ADD PUSH2 0x1E68 JUMP JUMPDEST SWAP3 POP POP PUSH1 0x40 PUSH2 0x1EF8 DUP7 DUP3 DUP8 ADD PUSH2 0x1E9E JUMP JUMPDEST SWAP2 POP POP SWAP3 POP SWAP3 POP SWAP3 JUMP JUMPDEST PUSH0 DUP2 SWAP1 POP SWAP2 SWAP1 POP JUMP JUMPDEST PUSH2 0x1F14 DUP2 PUSH2 0x1F02 JUMP JUMPDEST DUP3 MSTORE POP POP JUMP JUMPDEST PUSH0 PUSH1 0x20 DUP3 ADD SWAP1 POP PUSH2 0x1F2D PUSH0 DUP4 ADD DUP5 PUSH2 0x1F0B JUMP JUMPDEST SWAP3 SWAP2 POP POP JUMP JUMPDEST PUSH0 DUP3 DUP3 MSTORE PUSH1 0x20 DUP3 ADD SWAP1 POP SWAP3 SWAP2 POP POP JUMP JUMPDEST PUSH32 0x61646472657373207A65726F2064657465637465640000000000000000000000 PUSH0 DUP3 ADD MSTORE POP JUMP JUMPDEST PUSH0 PUSH2 0x1F77 PUSH1 0x15 DUP4 PUSH2 0x1F33 JUMP JUMPDEST SWAP2 POP PUSH2 0x1F82 DUP3 PUSH2 0x1F43 JUMP JUMPDEST PUSH1 0x20 DUP3 ADD SWAP1 POP SWAP2 SWAP1 POP JUMP JUMPDEST PUSH0 PUSH1 0x20 DUP3 ADD SWAP1 POP DUP2 DUP2 SUB PUSH0 DUP4 ADD MSTORE PUSH2 0x1FA4 DUP2 PUSH2 0x1F6B JUMP JUMPDEST SWAP1 POP SWAP2 SWAP1 POP JUMP JUMPDEST PUSH32 0x43616E27742065786368616E6765207A65726F20616D6F756E74000000000000 PUSH0 DUP3 ADD MSTORE POP JUMP JUMPDEST PUSH0 PUSH2 0x1FDF PUSH1 0x1A DUP4 PUSH2 0x1F33 JUMP JUMPDEST SWAP2 POP PUSH2 0x1FEA DUP3 PUSH2 0x1FAB JUMP JUMPDEST PUSH1 0x20 DUP3 ADD SWAP1 POP SWAP2 SWAP1 POP JUMP JUMPDEST PUSH0 PUSH1 0x20 DUP3 ADD SWAP1 POP DUP2 DUP2 SUB PUSH0 DUP4 ADD MSTORE PUSH2 0x200C DUP2 PUSH2 0x1FD3 JUMP JUMPDEST SWAP1 POP SWAP2 SWAP1 POP JUMP JUMPDEST PUSH2 0x201C DUP2 PUSH2 0x1E30 JUMP JUMPDEST DUP3 MSTORE POP POP JUMP JUMPDEST PUSH0 PUSH1 0x20 DUP3 ADD SWAP1 POP PUSH2 0x2035 PUSH0 DUP4 ADD DUP5 PUSH2 0x2013 JUMP JUMPDEST SWAP3 SWAP2 POP POP JUMP JUMPDEST PUSH0 DUP2 MLOAD SWAP1 POP PUSH2 0x2049 DUP2 PUSH2 0x1DBC JUMP JUMPDEST SWAP3 SWAP2 POP POP JUMP JUMPDEST PUSH0 PUSH1 0x20 DUP3 DUP5 SUB SLT ISZERO PUSH2 0x2064 JUMPI PUSH2 0x2063 PUSH2 0x1DAF JUMP JUMPDEST JUMPDEST PUSH0 PUSH2 0x2071 DUP5 DUP3 DUP6 ADD PUSH2 0x203B JUMP JUMPDEST SWAP2 POP POP SWAP3 SWAP2 POP POP JUMP JUMPDEST PUSH32 0x496E73756666696369656E742042616C616E6365000000000000000000000000 PUSH0 DUP3 ADD MSTORE POP JUMP JUMPDEST PUSH0 PUSH2 0x20AE PUSH1 0x14 DUP4 PUSH2 0x1F33 JUMP JUMPDEST SWAP2 POP PUSH2 0x20B9 DUP3 PUSH2 0x207A JUMP JUMPDEST PUSH1 0x20 DUP3 ADD SWAP1 POP SWAP2 SWAP1 POP JUMP JUMPDEST PUSH0 PUSH1 0x20 DUP3 ADD SWAP1 POP DUP2 DUP2 SUB PUSH0 DUP4 ADD MSTORE PUSH2 0x20DB DUP2 PUSH2 0x20A2 JUMP JUMPDEST SWAP1 POP SWAP2 SWAP1 POP JUMP JUMPDEST PUSH32 0x4E6F7420656E6F75676820746F6B656E42000000000000000000000000000000 PUSH0 DUP3 ADD MSTORE POP JUMP JUMPDEST PUSH0 PUSH2 0x2116 PUSH1 0x11 DUP4 PUSH2 0x1F33 JUMP JUMPDEST SWAP2 POP PUSH2 0x2121 DUP3 PUSH2 0x20E2 JUMP JUMPDEST PUSH1 0x20 DUP3 ADD SWAP1 POP SWAP2 SWAP1 POP JUMP JUMPDEST PUSH0 PUSH1 0x20 DUP3 ADD SWAP1 POP DUP2 DUP2 SUB PUSH0 DUP4 ADD MSTORE PUSH2 0x2143 DUP2 PUSH2 0x210A JUMP JUMPDEST SWAP1 POP SWAP2 SWAP1 POP JUMP JUMPDEST PUSH2 0x2153 DUP2 PUSH2 0x1DB3 JUMP JUMPDEST DUP3 MSTORE POP POP JUMP JUMPDEST PUSH0 PUSH1 0x60 DUP3 ADD SWAP1 POP PUSH2 0x216C PUSH0 DUP4 ADD DUP7 PUSH2 0x2013 JUMP JUMPDEST PUSH2 0x2179 PUSH1 0x20 DUP4 ADD DUP6 PUSH2 0x2013 JUMP JUMPDEST PUSH2 0x2186 PUSH1 0x40 DUP4 ADD DUP5 PUSH2 0x214A JUMP JUMPDEST SWAP5 SWAP4 POP POP POP POP JUMP JUMPDEST PUSH0 DUP2 ISZERO ISZERO SWAP1 POP SWAP2 SWAP1 POP JUMP JUMPDEST PUSH2 0x21A2 DUP2 PUSH2 0x218E JUMP JUMPDEST DUP2 EQ PUSH2 0x21AC JUMPI PUSH0 PUSH0 REVERT JUMPDEST POP JUMP JUMPDEST PUSH0 DUP2 MLOAD SWAP1 POP PUSH2 0x21BD DUP2 PUSH2 0x2199 JUMP JUMPDEST SWAP3 SWAP2 POP POP JUMP JUMPDEST PUSH0 PUSH1 0x20 DUP3 DUP5 SUB SLT ISZERO PUSH2 0x21D8 JUMPI PUSH2 0x21D7 PUSH2 0x1DAF JUMP JUMPDEST JUMPDEST PUSH0 PUSH2 0x21E5 DUP5 DUP3 DUP6 ADD PUSH2 0x21AF JUMP JUMPDEST SWAP2 POP POP SWAP3 SWAP2 POP POP JUMP JUMPDEST PUSH0 PUSH1 0x40 DUP3 ADD SWAP1 POP PUSH2 0x2201 PUSH0 DUP4 ADD DUP6 PUSH2 0x2013 JUMP JUMPDEST PUSH2 0x220E PUSH1 0x20 DUP4 ADD DUP5 PUSH2 0x214A JUMP JUMPDEST SWAP4 SWAP3 POP POP POP JUMP JUMPDEST PUSH32 0x496E76616C6964205F646563696D616C73000000000000000000000000000000 PUSH0 DUP3 ADD MSTORE POP JUMP JUMPDEST PUSH0 PUSH2 0x2249 PUSH1 0x11 DUP4 PUSH2 0x1F33 JUMP JUMPDEST SWAP2 POP PUSH2 0x2254 DUP3 PUSH2 0x2215 JUMP JUMPDEST PUSH1 0x20 DUP3 ADD SWAP1 POP SWAP2 SWAP1 POP JUMP JUMPDEST PUSH0 PUSH1 0x20 DUP3 ADD SWAP1 POP DUP2 DUP2 SUB PUSH0 DUP4 ADD MSTORE PUSH2 0x2276 DUP2 PUSH2 0x223D JUMP JUMPDEST SWAP1 POP SWAP2 SWAP1 POP JUMP JUMPDEST PUSH32 0x4E487B7100000000000000000000000000000000000000000000000000000000 PUSH0 MSTORE PUSH1 0x11 PUSH1 0x4 MSTORE PUSH1 0x24 PUSH0 REVERT JUMPDEST PUSH0 DUP2 PUSH1 0x1 SHR SWAP1 POP SWAP2 SWAP1 POP JUMP JUMPDEST PUSH0 PUSH0 DUP3 SWAP2 POP DUP4 SWAP1 POP JUMPDEST PUSH1 0x1 DUP6 GT ISZERO PUSH2 0x22FF JUMPI DUP1 DUP7 DIV DUP2 GT ISZERO PUSH2 0x22DB JUMPI PUSH2 0x22DA PUSH2 0x227D JUMP JUMPDEST JUMPDEST PUSH1 0x1 DUP6 AND ISZERO PUSH2 0x22EA JUMPI DUP1 DUP3 MUL SWAP2 POP JUMPDEST DUP1 DUP2 MUL SWAP1 POP PUSH2 0x22F8 DUP6 PUSH2 0x22AA JUMP JUMPDEST SWAP5 POP PUSH2 0x22BF JUMP JUMPDEST SWAP5 POP SWAP5 SWAP3 POP POP POP JUMP JUMPDEST PUSH0 DUP3 PUSH2 0x2317 JUMPI PUSH1 0x1 SWAP1 POP PUSH2 0x23D2 JUMP JUMPDEST DUP2 PUSH2 0x2324 JUMPI PUSH0 SWAP1 POP PUSH2 0x23D2 JUMP JUMPDEST DUP2 PUSH1 0x1 DUP2 EQ PUSH2 0x233A JUMPI PUSH1 0x2 DUP2 EQ PUSH2 0x2344 JUMPI PUSH2 0x2373 JUMP JUMPDEST PUSH1 0x1 SWAP2 POP POP PUSH2 0x23D2 JUMP JUMPDEST PUSH1 0xFF DUP5 GT ISZERO PUSH2 0x2356 JUMPI PUSH2 0x2355 PUSH2 0x227D JUMP JUMPDEST JUMPDEST DUP4 PUSH1 0x2 EXP SWAP2 POP DUP5 DUP3 GT ISZERO PUSH2 0x236D JUMPI PUSH2 0x236C PUSH2 0x227D JUMP JUMPDEST JUMPDEST POP PUSH2 0x23D2 JUMP JUMPDEST POP PUSH1 0x20 DUP4 LT PUSH2 0x133 DUP4 LT AND PUSH1 0x4E DUP5 LT PUSH1 0xB DUP5 LT AND OR ISZERO PUSH2 0x23A8 JUMPI DUP3 DUP3 EXP SWAP1 POP DUP4 DUP2 GT ISZERO PUSH2 0x23A3 JUMPI PUSH2 0x23A2 PUSH2 0x227D JUMP JUMPDEST JUMPDEST PUSH2 0x23D2 JUMP JUMPDEST PUSH2 0x23B5 DUP5 DUP5 DUP5 PUSH1 0x1 PUSH2 0x22B6 JUMP JUMPDEST SWAP3 POP SWAP1 POP DUP2 DUP5 DIV DUP2 GT ISZERO PUSH2 0x23CC JUMPI PUSH2 0x23CB PUSH2 0x227D JUMP JUMPDEST JUMPDEST DUP2 DUP2 MUL SWAP1 POP JUMPDEST SWAP4 SWAP3 POP POP POP JUMP JUMPDEST PUSH0 PUSH2 0x23E3 DUP3 PUSH2 0x1DB3 JUMP JUMPDEST SWAP2 POP PUSH2 0x23EE DUP4 PUSH2 0x1DB3 JUMP JUMPDEST SWAP3 POP PUSH2 0x241B PUSH32 0xFFFFFFFFFFFFFFFFFFFFFFFFFFFFFFFFFFFFFFFFFFFFFFFFFFFFFFFFFFFFFFFF DUP5 DUP5 PUSH2 0x2308 JUMP JUMPDEST SWAP1 POP SWAP3 SWAP2 POP POP JUMP JUMPDEST PUSH0 PUSH10 0xFFFFFFFFFFFFFFFFFFFF DUP3 AND SWAP1 POP SWAP2 SWAP1 POP JUMP JUMPDEST PUSH2 0x2441 DUP2 PUSH2 0x2423 JUMP JUMPDEST DUP2 EQ PUSH2 0x244B JUMPI PUSH0 PUSH0 REVERT JUMPDEST POP JUMP JUMPDEST PUSH0 DUP2 MLOAD SWAP1 POP PUSH2 0x245C DUP2 PUSH2 0x2438 JUMP JUMPDEST SWAP3 SWAP2 POP POP JUMP JUMPDEST PUSH2 0x246B DUP2 PUSH2 0x1F02 JUMP JUMPDEST DUP2 EQ PUSH2 0x2475 JUMPI PUSH0 PUSH0 REVERT JUMPDEST POP JUMP JUMPDEST PUSH0 DUP2 MLOAD SWAP1 POP PUSH2 0x2486 DUP2 PUSH2 0x2462 JUMP JUMPDEST SWAP3 SWAP2 POP POP JUMP JUMPDEST PUSH0 PUSH0 PUSH0 PUSH0 PUSH0 PUSH1 0xA0 DUP7 DUP9 SUB SLT ISZERO PUSH2 0x24A5 JUMPI PUSH2 0x24A4 PUSH2 0x1DAF JUMP JUMPDEST JUMPDEST PUSH0 PUSH2 0x24B2 DUP9 DUP3 DUP10 ADD PUSH2 0x244E JUMP JUMPDEST SWAP6 POP POP PUSH1 0x20 PUSH2 0x24C3 DUP9 DUP3 DUP10 ADD PUSH2 0x2478 JUMP JUMPDEST SWAP5 POP POP PUSH1 0x40 PUSH2 0x24D4 DUP9 DUP3 DUP10 ADD PUSH2 0x203B JUMP JUMPDEST SWAP4 POP POP PUSH1 0x60 PUSH2 0x24E5 DUP9 DUP3 DUP10 ADD PUSH2 0x203B JUMP JUMPDEST SWAP3 POP POP PUSH1 0x80 PUSH2 0x24F6 DUP9 DUP3 DUP10 ADD PUSH2 0x244E JUMP JUMPDEST SWAP2 POP POP SWAP3 SWAP6 POP SWAP3 SWAP6 SWAP1 SWAP4 POP JUMP JUMPDEST PUSH0 DUP2 MLOAD SWAP1 POP PUSH2 0x2511 DUP2 PUSH2 0x1E88 JUMP JUMPDEST SWAP3 SWAP2 POP POP JUMP JUMPDEST PUSH0 PUSH1 0x20 DUP3 DUP5 SUB SLT ISZERO PUSH2 0x252C JUMPI PUSH2 0x252B PUSH2 0x1DAF JUMP JUMPDEST JUMPDEST PUSH0 PUSH2 0x2539 DUP5 DUP3 DUP6 ADD PUSH2 0x2503 JUMP JUMPDEST SWAP2 POP POP SWAP3 SWAP2 POP POP JUMP JUMPDEST PUSH0 PUSH2 0x254C DUP3 PUSH2 0x1F02 JUMP JUMPDEST SWAP2 POP PUSH2 0x2557 DUP4 PUSH2 0x1F02 JUMP JUMPDEST SWAP3 POP DUP3 DUP3 MUL PUSH2 0x2565 DUP2 PUSH2 0x1F02 JUMP JUMPDEST SWAP2 POP PUSH32 0x8000000000000000000000000000000000000000000000000000000000000000 DUP5 EQ PUSH0 DUP5 SLT AND ISZERO PUSH2 0x259C JUMPI PUSH2 0x259B PUSH2 0x227D JUMP JUMPDEST JUMPDEST DUP3 DUP3 SDIV DUP5 EQ DUP4 ISZERO OR PUSH2 0x25B1 JUMPI PUSH2 0x25B0 PUSH2 0x227D JUMP JUMPDEST JUMPDEST POP SWAP3 SWAP2 POP POP JUMP JUMPDEST PUSH32 0x4E487B7100000000000000000000000000000000000000000000000000000000 PUSH0 MSTORE PUSH1 0x12 PUSH1 0x4 MSTORE PUSH1 0x24 PUSH0 REVERT JUMPDEST PUSH0 PUSH2 0x25EF DUP3 PUSH2 0x1F02 JUMP JUMPDEST SWAP2 POP PUSH2 0x25FA DUP4 PUSH2 0x1F02 JUMP JUMPDEST SWAP3 POP DUP3 PUSH2 0x260A JUMPI PUSH2 0x2609 PUSH2 0x25B8 JUMP JUMPDEST JUMPDEST PUSH1 0x1 PUSH0 SUB DUP4 EQ PUSH32 0x8000000000000000000000000000000000000000000000000000000000000000 DUP4 EQ AND ISZERO PUSH2 0x2642 JUMPI PUSH2 0x2641 PUSH2 0x227D JUMP JUMPDEST JUMPDEST DUP3 DUP3 SDIV SWAP1 POP SWAP3 SWAP2 POP POP JUMP JUMPDEST PUSH0 PUSH2 0x2657 DUP3 PUSH2 0x1E7C JUMP JUMPDEST SWAP2 POP PUSH2 0x2662 DUP4 PUSH2 0x1E7C JUMP JUMPDEST SWAP3 POP DUP3 DUP3 SUB SWAP1 POP PUSH1 0xFF DUP2 GT ISZERO PUSH2 0x267B JUMPI PUSH2 0x267A PUSH2 0x227D JUMP JUMPDEST JUMPDEST SWAP3 SWAP2 POP POP JUMP INVALID LOG2 PUSH5 0x6970667358 0x22 SLT KECCAK256 SWAP10 0xD1 PUSH1 0x8B 0xC6 0xEB PUSH3 0xEA5B6F 0xED SWAP6 0xC PUSH3 0x53BB27 CREATE2 ISZERO DUP15 0xC0 0x4F DUP10 0x4D EXTCODEHASH CALLDATALOAD MUL DUP10 BYTE 0x2F SWAP10 JUMPI PUSH5 0x736F6C6343 STOP ADDMOD SHL STOP CALLER "
				},
				"gasEstimates": {
					"creation": {
						"codeDepositCost": "1982200",
						"executionCost": "147691",
						"totalCost": "2129891"
					},
					"external": {
						"getDerivedPrice(address,address,uint8)": "infinite",
						"swapDaiEth(uint256)": "infinite",
						"swapDaiLink(uint256)": "infinite",
						"swapEthDai(uint256)": "infinite",
						"swapEthLink(uint256)": "infinite",
						"swapLinkDai(uint256)": "infinite",
						"swapLinkEth(uint256)": "infinite"
					},
					"internal": {
						"scalePrice(int256,uint8,uint8)": "infinite"
					}
				},
				"methodIdentifiers": {
					"getDerivedPrice(address,address,uint8)": "97436655",
					"swapDaiEth(uint256)": "1dd15390",
					"swapDaiLink(uint256)": "7e11eff4",
					"swapEthDai(uint256)": "7567fe56",
					"swapEthLink(uint256)": "87ffd440",
					"swapLinkDai(uint256)": "61a46876",
					"swapLinkEth(uint256)": "2067c2ca"
				}
			},
			"storageLayout": {
				"storage": [
					{
						"astId": 113,
						"contract": "contracts/SwapContract.sol:SwapContract",
						"label": "dai",
						"offset": 0,
						"slot": "0",
						"type": "t_contract(IERC20)106"
					},
					{
						"astId": 116,
						"contract": "contracts/SwapContract.sol:SwapContract",
						"label": "link",
						"offset": 0,
						"slot": "1",
						"type": "t_contract(IERC20)106"
					},
					{
						"astId": 119,
						"contract": "contracts/SwapContract.sol:SwapContract",
						"label": "weth",
						"offset": 0,
						"slot": "2",
						"type": "t_contract(IERC20)106"
					},
					{
						"astId": 122,
						"contract": "contracts/SwapContract.sol:SwapContract",
						"label": "eth_usd",
						"offset": 0,
						"slot": "3",
						"type": "t_contract(AggregatorV3Interface)45"
					},
					{
						"astId": 125,
						"contract": "contracts/SwapContract.sol:SwapContract",
						"label": "link_usd",
						"offset": 0,
						"slot": "4",
						"type": "t_contract(AggregatorV3Interface)45"
					},
					{
						"astId": 128,
						"contract": "contracts/SwapContract.sol:SwapContract",
						"label": "dai_usd",
						"offset": 0,
						"slot": "5",
						"type": "t_contract(AggregatorV3Interface)45"
					}
				],
				"types": {
					"t_contract(AggregatorV3Interface)45": {
						"encoding": "inplace",
						"label": "contract AggregatorV3Interface",
						"numberOfBytes": "20"
					},
					"t_contract(IERC20)106": {
						"encoding": "inplace",
						"label": "contract IERC20",
						"numberOfBytes": "20"
					}
				}
			},
			"userdoc": {
				"kind": "user",
				"methods": {},
				"version": 1
			}
		}
	}
}